:020000040800F2
:1000000000C000203D800008BD470008C14700082F
:10001000C5470008C9470008CD4700080000000098
:10002000000000000000000000000000D1470008B0
:10003000D547000800000000D9470008DD47000848
:1000400039800008398000083980000839800008AC
:10005000398000083980000839800008398000089C
:10006000398000083980000839800008ED47000811
:10007000398000083980000839800008F9470008F5
:100080000548000839800008114800083980000838
:10009000398000083980000839800008398000085C
:1000A000398000083980000839800008398000084C
:1000B00039800008398000081D4800083980000890
:1000C00039800008294800083548000841480008E0
:1000D000398000084D48000865480008398000084C
:1000E000398000083980000839800008398000080C
:1000F00039800008398000083980000839800008FC
:1001000039800008398000087D48000839800008DF
:1001100039800008398000088948000839800008C3
:1001200039800008398000083980000839800008CB
:1001300000000000000000000000000000000000BF
:1001400000000000000000000000000000000000AF
:10015000000000000000000000000000000000009F
:10016000000000000000000000000000000000008F
:10017000000000000000000000000000000000007F
:10018000000000000000000000000000000000006F
:10019000000000000000000000000000000000005F
:1001A000000000000000000000000000000000004F
:1001B000000000000000000000000000000000003F
:1001C000000000000000000000000000000000002F
:1001D000000000000000000000000000000000001F
:0401E0005FF8E0F1F3
:1001E8000348044B834202D0034B03B118477047BE
:1001F800D8010020D8010020000000000548064969
:10020800091A891001EBD171491002D0034B03B1CF
:1002180018477047D8010020D801002000000000CE
:1002280010B5064C237843B9FFF7DAFF044B13B136
:100238000448AFF300800123237010BDD8010020CB
:10024800000000009483000808B5044B1BB1044962
:100258000448AFF30080BDE80840CFE70000000085
:10026800DC0100209483000870B50D4E0D4D761BFF
:10027800B61006D00024013455F8043B9847A6422E
:10028800F9D1094E094D08F075F8761BB61006D05D
:100298000024013455F8043B9847A642F9D170BDB3
:1002A80094830008948300089883000894830008C6
:1002B800844641EA000313F0030349D1403A23D3AB
:1002C8000B6803604B6843608B688360CB68C360CE
:1002D8000B6903614B6943618B698361CB69C361B6
:1002E8000B6A03624B6A43628B6A8362CB6AC3629E
:1002F8000B6B03634B6B43638B6B8363CB6BC36386
:1003080040304031403ADBD230320BD30B680360C7
:100318004B6843608B688360CB68C36010301031D2
:10032800103AF3D20C3205D351F8043B40F8043BA1
:10033800043AF9D2043208D0D2071CBF11F8013BA5
:1003480000F8013B01D30B8803806046704700BF6B
:10035800082A13D38B07B1D010F00303AED0C3F132
:100368000403D21ADB071CBF11F8013B00F8013B5C
:10037800A4D331F8023B20F8023B9FE7043AD9D3D3
:10038800013A11F8013B00F8013BF9D20B780370F0
:100398004B7843708B78837060467047F0B486075B
:1003A80043D0541E002A3ED0CAB2034602E014F1DC
:1003B800FF3438D303F8012B9D07F8D1032C2BD930
:1003C800CDB245EA05250F2C45EA054516D9A4F115
:1003D80010073F0903F1200606EB071603F1100288
:1003E80042E9045542E902551032B242F8D104F00C
:1003F8000F040137032C03EB07130DD91E462246C1
:10040800043A032A46F8045BFAD8221F22F00302B2
:100418000432134404F003042CB1C9B21C4403F899
:10042800011B9C42FBD1F0BC704714460346C5E74C
:100438002DE9F047002B88B01E46DDE913A490464D
:10044800109D51DB0023129A1370662C1BD0462C8A
:1004580019D0022124F02003452B08BF013507AF2E
:10046800CDE9001506A9CDE9031742463346CDF874
:1004780008A000F0DBFD672C074649D1119BDB077C
:100488002ED53D4414E0032107AF009106A9334659
:10049800CDE903174246CDE9015A00F0C7FD0746EA
:1004A8003B7800EB0509302B25D0DAF800504D4495
:1004B800404631460022002302F03CFF90B9079BDA
:1004C8009D4206D930215A1C07921970079BAB42EE
:1004D800F9D33846159ADB1B136008B0BDE8F087DE
:1004E800079BF6E72B46F4E72D2103F100431E4650
:1004F800129B1970A9E7404631460022002302F0FA
:1005080019FF0028D1D1C5F10105CAF80050CEE77E
:10051800472CB3D03D44CBE70029F0B4B4BF2D231A
:100528002B230546B8BF4942092905F8022B82B09A
:1005380043702BDD0DF107063446194F00E01C46C9
:10054800A7FB0132D20802EB8203A1EB430330334D
:10055800092A04F8013C114604F1FF33EFDC30317D
:10056800023CC9B2A64203F8011C0BD91A462C4614
:1005780001E012F8011B964204F8011BF9D102AA06
:10058800D31A1D44281A02B0F0BC70473023051D49
:100598001944C1708370281A02B0F0BC704700BFBC
:1005A800CDCCCCCC2DE9F04F91B00C46DDF868B03D
:1005B80016461F46054601F067FC036818460A936D
:1005C80000F074FC0023DBF80010226807310B9060
:1005D80009920E9321F00701D1F80080D1F8049018
:1005E80042464B46083194F818A0CBF8001029F081
:1005F800004BC4E91223404659464FF0FF32B44B32
:1006080002F0CAFE002854D1404659464FF0FF3246
:10061800AF4B02F0A3FE00284BD1404649460022CA
:10062800002302F091FE002840F09280099BA94A1D
:1006380023F004032360A84B0321BAF1470F8CBFB2
:10064800904698464FF000092161009733460FAA5B
:100658002146284600F05AFA013025D0236858056B
:1006680000F1D2804246236931462846B847013016
:100678001AD0226892070F98E36863D51A1A002ADD
:1006880060DD4FF0000804F1190904E0E3680F98F1
:100698001A1A424556DD01234A4631462846B847CC
:1006A800013008F10108F1D14FF0FF3011B0BDE879
:1006B800F08F424640464B46494602F06DFE002800
:1006C80076D1099B606843F48061431C00F09980EF
:1006D800BAF1670F40D0BAF1470F3DD04FF0000C88
:1006E800216042460DF1380E01910DF134080DF1EB
:1006F80033014B460090CDE90218CDF810A0CDE9A2
:1007080005EC2846FFF794FE80460D9BBAF1650F6D
:1007180065D9BAF1660F00F0B0800E9A9A4200F3DC
:10072800B68022682361D20701D55A1C22614FF096
:100738000009A3659DF83330002B86D02D2384F85B
:10074800433082E79842B8BF184611B0BDE8F08F31
:100758002D2384F8433069E7002840F0A080012366
:10076800184663604FF0000C216042460DF1380EC8
:1007780001910DF134080DF133014B460090CDE99C
:100788000218CDF810A0CDE905EC2846FFF750FE79
:10079800BAF1670F80460D9B02D0BAF1470FB5D169
:1007A800D91C15DB62689A4212DB4FF0670AB4E77E
:1007B8000321099B494A23F004032360484B216124
:1007C800BAF1470F8CBF904698464FF000093CE7B6
:1007D800AAF1020A5FFA8AFABAF1650F99D8013BC1
:1007E8001946524604F150000D93FFF795FE0E9AF4
:1007F80081461318012A236140F3A980013323613C
:1008080098E706206060ADE7BAF1650F6CD9D4E9C6
:1008180012010022002302F08DFD002800F0A480C0
:100828000123304A31462846B84701303FF43CAFEF
:10083800DDE90D239A4280F2D980DDE90A233146A9
:100848002846B84701303FF42FAF0E9B012B7FF7A6
:1008580010AF4FF0000804F11A0904E00E9B013BA9
:1008680043457FF706AF01234A4631462846B84735
:10087800013008F10108F1D116E7002B62686BDD41
:100888002361002A5ED001321A4422614FE7002B0F
:10089800CCBF0121C3F102010A44226147E74FF0AE
:1008A800000C216042460DF1380E01910DF134081B
:1008B8000DF133014B460090CDE90218CDF810A098
:1008C800CDE905EC2846FFF7B3FD0D9B804667E7A9
:1008D800FFFFEF7F24830008208300082C83000893
:1008E80028830008308300080E9A012A40F3838089
:1008F8000123424631462846B84701303FF4D4AE7A
:10090800DDE90A2331462846B847013008F10108D5
:100918003FF4CAAED4E91201DDF838A00022002362
:100928000AF1FF3B02F006FD002849D15B4642462A
:1009380031462846B84701303FF4B6AE4B4604F17D
:10094800500291E62168C8077FF5F1AE9BE722685F
:10095800D2077FF5EFAE51E722B92168C90701D464
:1009680001229AE7023298E70D9B002B4CDC012309
:10097800654A31462846B84701303FF495AE0D9B8D
:10098800002B70D0DDE90A2331462846B8470130EC
:100998003FF48AAE0D9B002B33DA4FF0000904F1C7
:1009A8001A0A03E00D9B5B424B452ADD01235246A0
:1009B80031462846B847013009F10109F2D173E6FA
:1009C800BAF1010FBADD4FF0000804F11A0A03E08A
:1009D8000E9B013B4345B1DD012352463146284673
:1009E800B847013008F10108F2D15DE62268D10765
:1009F8007FF540AE21E7D9073FF57AAF424601239C
:100A080096E742460E9B2FE60E9AA36D9A42A8BF20
:100A18001A46002A924608DD1346314642462846C1
:100A2800B84701303FF440AEA36D2AEAEA72114696
:100A38009A1A002A994621DD04F11A0BC1464FF093
:100A4800000AA0460C4604E0D8F858301A1B524554
:100A580011DD01235A4631462846B84701300AF1CC
:100A6800010AF1D120E60E9B002B8BD12268D30717
:100A78007FF500AE86E74446C8469946DDE90D2372
:100A88009A42C8443BDADDE90A2331462846B8478A
:100A980001303FF409AEDDE90D23A3EB0909991AEA
:100AA8008945A8BF8946B9F1000F09DD42464B4682
:100AB80031462846B84701303FF4F6ADDDE90D234D
:100AC80029EAE9789B1AA3EB0803002B7FF7D1AD3D
:100AD8004FF0000904F11A0A07E0DDE90D239B1A1B
:100AE800A3EB08034B457FF7C4AD012352463146BB
:100AF8002846B847013009F10109EED1D4E521684B
:100B0800C807C0D4C9E700BF308300082DE9F04703
:100B18000C460969A56891468D42B8BF0D46156017
:100B280094F8431006461F46DDF8208011B16A1C70
:100B3800C9F80020236899065FD5D9F80020023249
:100B4800C9F80020236813F0060F19461DD1E16883
:100B58008A1A002AD8BF194617DD002504F1190A98
:100B680005E0E368D9F800209B1AAB420CDD0123AD
:100B7800524639463046C047013005F10105F0D1EB
:100B88004FF0FF30BDE8F087216894F84330003318
:100B980018BF01238A060AD53021E21882F84310CB
:100BA80094F845105A1C224482F84310023304F189
:100BB800430239463046C0470130E1D0D4E902202B
:100BC8002368D9F8005003F00603042B21691AD0D2
:100BD8008A421FDD4FF00009521A914400251A3449
:100BE80001E04D4516D00123224639463046C0471C
:100BF800013005F10105F4D1C2E713F0060F0CD15D
:100C0800D9F80020A3E7401B8A4220EAE079E3DC18
:100C18000028E3DC0020BDE8F08794F84330003377
:100C280018BF0123C3E700BF2DE9F0430C46097E36
:100C380085B06E2906461746984604F1430C0C9D6C
:100C48004AD00FD8632900F0FE8000F2BE80002948
:100C58004ED0582940F0E08084F845102268DFF82B
:100C680044E212E0732900F0C5807AD86F2900F0B9
:100C7800DA80702940F0D080206840F0200222609D
:100C88007823DFF824E284F845302B68191D1B68A7
:100C98002960150602D4500648BF9BB2D10744BF4D
:100CA80042F020022260002B6CD1D4E9001284F8B3
:100CB8004330002A21F020032360A2607DDB21F06D
:100CC800240121601021002A78D1654608294ED0D8
:100CD800ACEB050323610EE02B682268181D6169DF
:100CE800286015061B6802D4500600F1C6801960FA
:100CF800002365462361CDF800803B4603AA2146C0
:100D08003046FFF703FF013020D02A4623693946D1
:100D18003046C047013019D0226803989207E3682B
:100D280019D51A1A002A16DD002504F1190904E05C
:100D3800E36803981A1AAA420DDD01234A46394688
:100D48003046C047013005F10105F1D14FF0FF30C1
:100D580005B0BDE8F0839842B8BF184605B0BDE8B5
:100D6800F08375295FD0782956D1226888E72368EF
:100D7800DB07ADD5626823699A42A9DC3023013DBF
:100D88002B70A5E71021002284F843206268002A0E
:100D9800A2602CDB206820F004002060002B92D099
:100DA8006546B3FBF1F201FB12331EF8030013464C
:100DB80005F8010D002AF4D188E710219EF80030CB
:100DC80004F1420584F8423080E7642901D069299A
:100DD80022D120682B68010603F1040245D51B685F
:100DE8002A60002B4BDB0A21DFF8B8E0CEE7002BA6
:100DF800D6D1E3E72B686268191D29601D680021B8
:100E0800284601F06DF8002845D0401B606020613D
:100E1800002384F843306EE7012384F842102361ED
:100E280004F14205F4E720682B6810F0800F03F105
:100E3800040213D01B682A606F290CBF08210A21FD
:100E4800DFF860E09FE701222B68191D1B68296005
:100E580004F1420584F842302261D9E7400653BFC5
:100E68001B682A601B882A60E6E7410653BF1B6897
:100E78002A60B3F900302A60B3E7198038E72D21DA
:100E880062685B42002A84F84310A26005DB0A21ED
:100E9800DFF810E07FE76068B9E7DFF808E00A21CB
:100EA8007EE700BF348300084883000820F0030170
:100EB80010F00300C0F1000051F8043B00F1040CED
:100EC8004FEACC0C6FF000021CBF22FA0CF213435D
:100ED8004FF0010C4CEA0C2C4CEA0C4CA3EB0C0226
:100EE80022EA030212EACC1204BF51F8043B043090
:100EF800F4D0C2F1000102EA0102B2FA82F2C2F1B0
:100F08001F0200EBD20070472DE9F04F03690E690C
:100F180083B0B342C0F28680013E01F1140800F1AB
:100F2800140958F8263059F826700133B7FBF3F73F
:100F3800B300009308EB030A4B440193002F3BD006
:100F48000023C6461C46CC465EF8042BDCF800504D
:100F58001FFA82FB07FB0B33120C4FEA134B07FBFC
:100F680002BB9AB2A21AABB21FFA8BF41A44C4EBB2
:100F7800154404EB224492B242EA0442F2454CF88A
:100F8800042B4FEA24444FEA1B43DDD2009B59F857
:100F980003308BB9019A131F99450CD252F8043CBF
:100FA8004BB9A2F1080302E01A68043B1AB9994543
:100FB80006F1FF36F8D30661044601F069FA002805
:100FC8002CDB4D460023013758F8041B28688AB2E9
:100FD8009A1A0B0C81B20A44C3EB104303EB224369
:100FE80092B242EA0342C24545F8042B4FEA234332
:100FF800EAD259F8262009EB86037AB91A1F9145D7
:101008000BD253F8042C42B9083B02E01A68043B9F
:101018001AB9994506F1FF36F8D32661384603B068
:10102800BDE8F08F002003B0BDE8F08F2DE9F04F48
:1010380016461F46456A99B00446CDE90267002D59
:1010480000F0EF802B6853B101226D681946AA4061
:10105800C3E9015200F0BEFF0022636A1A603E1E17
:10106800B4BF01230023259AB8BF26F000461360B9
:10107800794BB8BF0396B34300F0A680DDE9028937
:10108800002200234046494602F054F9074678B149
:101098000123249A1360269B002B00F0CB806F4B12
:1010A800269A03F1FF391360484619B0BDE8F08F5E
:1010B80016AA17ABCDE90032204642464B4601F04E
:1010C80005FB350D834640F09F80DDE916854544D4
:1010D80005F23243202B40F35184C3F140039E4074
:1010E800029B05F2124023FA00F0304301F040FE63
:1010F8000122013D0A92A1F1F8710022584B01F03A
:10110800F9FC4FA3D3E9002301F0ACFE4EA3D3E9C9
:10111800002301F0F1FC064628460F4601F038FE90
:101128004BA3D3E9002301F09DFE02460B4630464F
:10113800394601F0E1FC06460F4602F043F9002269
:10114800059000233046394602F0FEF8002840F0AA
:101158008282059E162E00F26C82DDE90223414947
:1011680001EBC601D1E9000102F00CF9002800F0FA
:101178000C84731E059300230D93A8EB0505B5F1A8
:10118800010A00F1628200230693059B002BC0F23E
:1011980053829A440C9300230B93229B092B69D802
:1011A800052BC4BF043B2293229BC8BF0026A3F192
:1011B8000203D8BF0126032B00F2A684DFE813F050
:1011C8000804E80313040B0542F20F73249A136012
:1011D800029B83B9C6F313066EB9269BDFF8889085
:1011E800002B3FF461AF09F108034846269A1360C3
:1011F80019B0BDE8F08F269BDFF87090002B3FF404
:1012080053AF09F10303F0E7C9F3130343F07F5128
:101218004046A5F2FF350A9741F44011DDF85880A1
:101228006BE7102000F04CFE6062C0E901550560D4
:10123800C56014E7DFF83890484619B0BDE8F08F6C
:1012480061436F63A787D23FB3C8608B288AC63FC4
:10125800FB799F501344D33F0000F07F318300088F
:101268000000F83FB08000085C830008688300082D
:10127800308300084FF0FF3501260023CDE90856DA
:101288002293239300231946676A14957B602046AE
:1012980000F06CFE636A0E2D3860D3F8009000F2FF
:1012A800FC80002E00F0F980DDE9022316461F4677
:1012B8000599CDE90E67002940F3E6839A4B01F0C2
:1012C8000F020D1103EBC203D3E90012CDE902129C
:1012D800EA0640F19E84954B3946D3E90823304607
:1012E80001F0EAFE0327CDE9100105F00F057DB1F5
:1012F800DDE902018D4EEB0704D5D6E9002301F0A4
:10130800B1FD01376D1006F10806F4D1CDE90201EF
:10131800DDE90223DDE9100101F0CEFECDE902018D
:101328000D9B43B1DDE902010022814B02F00CF86C
:10133800002840F00785384601F02AFDDDE9022340
:1013480001F090FD7B4B002201F0D6FB089B05467F
:10135800A1F15076002B00F01784059B1593089B8C
:101368001093DDE9020102F02DF8109A6E4B00F19E
:10137800300803EBC20353E90212CDE9121201F05F
:1013880007FD0B460246DDE90201CDE9025601F0F0
:10139800B1FB099B5FFA88F806460F4609F101057B
:1013A800002B00F05784DDE912230020624901F088
:1013B80083FEDDE9022301F09DFB89F800803246B7
:1013C8003B46CDE9020101F0DDFF002840F00C8525
:1013D80032463B460020564901F08CFBDDE90223EA
:1013E80001F0B2FF002840F00985109A012A50D078
:1013F8004A44CDF848A0CDF840B0A046DDE902AB9C
:10140800CDF8089091460EE032463B460020484908
:1014180001F070FB52465B4601F096FF002840F051
:10142800E6844D452ED0504659460022434B01F0E4
:1014380019FD0022414B82468B463046394601F061
:1014480011FD0F46064601F0BDFF044601F0A0FC61
:1014580002460B463046394601F04CFB3034E4B2C4
:1014680005F8014B52465B4606460F4601F06CFFF5
:101478000028C9D0159BDDF840B0DDF80890444637
:10148800059339E24446DDF848A0DDF840B0DDF8C0
:101498000890DDE90E23CDE90223179B002BC0F24B
:1014A800A980059A0E2A00F3A5801F4B03EBC203FF
:1014B800D3E90023CDE90623239B002BC0F2C08289
:1014C800DDE90267DDE906233046394601F0F4FD1F
:1014D80001F078FF804601F05BFCDDE9062301F0AE
:1014E800C1FC02460B463046394601F003FB089E14
:1014F80008F13005012E89F8005002460B4609F123
:1015080001054CD000220D4B01F0ACFC0022002359
:1015180006460F4601F00EFF002840F0ED81CDF899
:1015280008B0DDE906AB18E0B0800008A08100082B
:101538000000F03F00001C400000E03F0000244095
:101548000022C64B01F08EFC0022002306460F46FF
:1015580001F0F0FE002840F0418352465B463046D9
:10156800394601F0A9FD01F02DFF804601F010FC7D
:1015780052465B4601F076FC02460B463046394639
:1015880001F0B8FA08F1300605F8016B089FA5EBE1
:101598000906B74202460B46D2D1DDF808B010461C
:1015A800194601F0A9FADDE9062306460F4601F0BF
:1015B800E9FE60B9DDE906233046394601F0BAFE96
:1015C800002800F0998118F0010F00F0958115F8B6
:1015D800018C05E0994500F07D831D4613F8018CC8
:1015E800B8F1390F05F1FF33F4D008F1010883F899
:1015F800008081E1099A002A3DD0229A012A40F30D
:101608001182089B03F1FF380B9B4345C0F2E98226
:10161800A3EB0808089B002BC0F20E83069A9A4495
:101628000A921A4406920121204600F0C9FD064696
:1016380026E001230D93A0E500230C93DDE9053294
:10164800D21A5B4206920B93A7E5C5F101030693F4
:101658004FF0000A99E5DDF81490484601F098FB30
:1016680032463B4601F066FE00287FF472AD09F170
:10167800FF3305936DE5069BDDF82C80099E0A93E0
:101688000A9900290B460CDDBAF1000F09DD514516
:10169800A8BF5346069AAAEB030AD21A0692CA1A98
:1016A8000A920B9B7BB1099A002A00F08D82A3EB6A
:1016B8000807B8F1000F40F0998159463A4620468C
:1016C80000F02EFE83460121204600F079FD0C9A99
:1016D8000746002A40F02581229B012B40F3C7834F
:1016E8000120504410F01F0000F01981C0F12003C0
:1016F800042B40F3B783C0F11C00069B82440344CB
:1017080006930A9B03440A93069B002B05DD594662
:101718001A46204600F060FE8346BAF1000F05DD48
:1017280039465246204600F057FE07460D9B002BCF
:1017380077D1089B002B40F30582099B002B00F012
:1017480089800A9B002B00F366810C9B002B40F0DC
:10175800C481B246C846029B089A03F001030A9363
:1017680009F1FF331A440692CDF82C9039465846B1
:10177800FFF7CAFB314681460990584600F088FEBB
:10178800524602903946204600F09EFEC268054641
:1017980009F130090146002A40F0CF81584600F08F
:1017A80077FE29460890204600F014FC089A32B9C2
:1017B800229B23B90A9B002B00F02483229A029BC8
:1017C800002BC0F2198205D1229B1BB90A9B002B62
:1017D80000F01282002A08F1010500F32182069B1D
:1017E80088F80090434500F02C82594600230A22CD
:1017F800204600F00BFC5645834631464FF0000367
:101808004FF00A02204600F0928100F0FFFB51469B
:10181800064600230A22204600F0F8FBA846824626
:10182800A4E73946584600F033FE002881DA059DC2
:10183800594600230A222046013D059500F0E6FBA3
:10184800099B8346002B40F0EE82149B002B40F34B
:10185800F98208934D46DDF8208008E00000244016
:10186800594600230A22204600F0D0FB8346394619
:101878005846FFF749FB303005F8010BA5EB090284
:101888004245EDDB002203460292594601222046DA
:10189800089300F0A1FD3946834600F0F9FD0028C1
:1018A80015F8012C089B11DC05D1DB070ED402E0EA
:1018B80015F8022C1D46302A05F1FF33F8D00BE04D
:1018C800994500F04C811D4613F8012C392A05F181
:1018D800FF33F5D001321A703946204600F07AFB02
:1018E80056B1029921B1B14202D0204600F072FBF4
:1018F8003146204600F06EFB5946204600F06AFB50
:101908000022059B2A70249A01331360269B002B22
:101918003FF4CAAB48461D6019B0BDE8F08F1C20E3
:10192800EBE60146204600F0FBFC229B0746012B14
:1019380000F3E780029B002B40F0E380DDE9021210
:10194800C2F31303002B40F0CF8122F000431B0D9C
:101958001B052BB1069B0AF1010A013306930123EB
:101968000C9A0C93002A3FF4BBAE3B6907EB830348
:10197800186900F0D5FBC0F12000B2E6C3F12006DB
:10198800029B03FA06F0FFF7B1BB0D90FFF7F5BB1A
:1019980000230993059B239A13445D1C012D14937E
:1019A8002B46B8BF01239C4608950021676ABCF105
:1019B800170F79607FF66BAC012204235B0003F1FB
:1019C80014006045114602F10102F7D979605EE41E
:1019D80000230993239B002B40F3F1809C461D466E
:1019E80014930893E1E701230993F3E7424631464C
:1019F800204600F095FC5A4601460646204600F06F
:101A0800E9FB80465946204600F0E4FAC346002F19
:101A18003FF459AE51E631461A46204600F0DCFC48
:101A2800064692E60A9A002A00F06081069A03F2B6
:101A380033430A921A449A440692DDF82C80F2E560
:101A4800089B002B3FF73CAD40F0F981DDE906012A
:101A58000022B64B01F006FADDE9022301F088FC0A
:101A6800089F3E46002875D13123059A89F8003031
:101A78000132059209F101053946204600F0AAFA1B
:101A8800002E7FF435AF37E700F04981DDE90E011C
:101A9800059B5D42A64B05F00F0203EBC203D3E999
:101AA800002301F0DFF92D11CDE9020100F0CF810B
:101AB800002302279F4EEA0705D5D6E9002301F047
:101AC800D1F901231F446D1006F10806F3D1002B4C
:101AD8003FF426ACCDE9020122E47168204600F00B
:101AE80045FA0546336906F10C0102339A000C30B9
:101AF800FEF7DEFB29460122204600F06DFC8246F7
:101B080028E600230C9330E70025666A29467560AD
:101B1800204600F02BFA636A30604FF0FF32D3F8AA
:101B2800009001230892239514920993B5E400F0DC
:101B38006DFAA8460646824618E6204600F04AFA9C
:101B480001223CE6229B022B7FF7F7AD089B002B76
:101B580000F0D780239B4D46DB4305938CE7312368
:101B6800059A89F8003001320592B5E6384601F049
:101B78000FF9DDE9022301F075F900226E4B00F040
:101B8800BBFF0546A1F15076DDE902010022674B53
:101B980000F0B0FF2A463346CDE9020101F0F2FB1E
:101BA8000746002853D1DDE902012A4606F1004321
:101BB80001F0CAFB00283FF46CAC3E46CAE7012599
:101BC80023950895FFF75EBB59460B9A204600F00F
:101BD800A7FB834677E501230993DBE6DDF808B028
:101BE8008AE60B9B0C9AA8EB03031A44CDF82C80C9
:101BF8000C924FF000080DE5002A4B4608F101054C
:101C0800DDF82C9000F3C580029688F8003056461F
:101C180062E6DDE90E230227CDE91023FFF767BB53
:101C28004B46392BDDF82C9000F0C5800133029625
:101C380088F8003056464FE6069B089A9B1A0A9386
:101C4800F1E44B460296DDF82C9056461DE6002737
:101C58003E4609E7DDE91223DDE9020101F002F958
:101C6800109BCDE90201012B89F8008021D0109B3F
:101C7800CDF840A04B449A460022304B30463946B6
:101C880001F0F0F80F46064601F09CFB804601F093
:101C98007FF802460B463046394600F02BFF08F124
:101CA800300805F8018B554506460F46E4D1DDF8A6
:101CB80040A00022DDE90201214B00F01DFF324661
:101CC8003B4601F041FB00287BD0159B059315F896
:101CD800018C85E4302389F80030059B15F8018CC8
:101CE800013305934B4680E4002339E6169B069A98
:101CF800C3F136030A921A449A440692DDF82C80FE
:101D080091E439460522204600F080F9014607464D
:101D1800584600F0BDFB00283FF7A6AE1AE7DDE9FC
:101D28000E230227CDE90223FFF7FABA0000144078
:101D3800B0800008A081000800001C40000024407A
:101D48000000E03F089B002B3FF410AF149B002BD2
:101D58007FF79FABDDE902010022474B01F082F8D3
:101D680005460E46781CCDE9025601F011F82A46C0
:101D7800334601F077F80022404B00F0BDFE059A8B
:101D8800149B013A05461592A1F150761093FFF77E
:101D9800E8BA594601222046029300F01DFB394655
:101DA800834600F075FB0028029B36DD392B02D0F4
:101DB800099B313328E73922029688F800205646D5
:101DC80084E5DDE9022300202D4900F093FE324628
:101DD8003B4601F0D7FA10B9FFF75BBB154615F87B
:101DE800013C6A1E302BF9D0159B059384E54346C8
:101DF800A0461C46DDF840B0DDF80890159B059319
:101E0800FFF7EEBB4B46392BDDF82C9008F10105A6
:101E1800D1D0029A002ACBDCF6E67FF4F5AEDA07D9
:101E28007FF5F2AEC2E7314600230A22204600F0D1
:101E3800EDF8149B0646002B0CDD089381E400277F
:101E48003E4687E6229B022B09DC149B01E502270C
:101E5800FFF766BA229B022B01DC149BEDE7149B6B
:101E6800089373E63FF450ACC0F13C0045E4029B94
:101E7800002B3FF463AD33E40000244000001C4015
:101E88000000E03FF0307047044A054B1268106AC2
:101E9800002808BF1846F030704700BF0000002037
:101EA80064000020044A054B1268106A002808BF25
:101EB8001846F030704700BF000000206400002082
:101EC800024B0146186800F051BD00BF0000002019
:101ED800024B0146186800F0F5BC00BF0000002066
:101EE800830770B4CDB23DD0541E0AB30378AB4219
:101EF8001FD0431C05E014F1FF3419D30278AA421D
:101F080017D013F0030F184603F10103F3D1032C84
:101F180011D84CB30378AB420BD00444431C02E005
:101F28000278AA4205D09C42184603F10103F7D172
:101F3800002070BC704706460A0292B22A4342EA61
:101F48000242336830465340A3F1013121EA0303CA
:101F580013F0803F06F10406DCD1043C032C304624
:101F6800EFD8D6E71446D2E72046E2E770B5446AD0
:101F780006460D465CB1E3689BB153F82500E0B115
:101F8800026843F825200023C0E9033370BD102000
:101F9800FFF796FF002304467062C0E9013303602F
:101FA800C36021220421304600F07EFC736AE060A1
:101FB800DB68002BE1D1002070BD012101FA05F496
:101FC800621D3046920000F06FFC0028F3D0C0E993
:101FD8000154D8E730B5456A83B0044655B139B1E4
:101FE800636A4A68DB6853F82200086043F82210E5
:101FF80003B030BD10200191FFF762FF01996062C4
:10200800C0E901550560C560E9E700BFF0B54FF0CC
:10201800000C0C4605460E6983B001F114073868B8
:102028000CF1010C81B202FB0133010C180C02FB0C
:1020380001019BB203EB0143664547F8043B4FEAB5
:102048001143ECDC3BB1A268B24207DD04EB860227
:10205800013653612661204603B0F0BD6168284609
:1020680001310193FFF782FF0746226904F10C0151
:10207800023292000C30FEF71BF921462846FFF782
:10208800A9FF3C46019BE1E72DE9F843234C1E4696
:10209800083384FB034CDB17C3EB6C0CBCF1010F5A
:1020A80007460C469046089D35DD012300215B005C
:1020B8009C4501F10101FADC3846FFF757FF01237F
:1020C800B8F1090FC0E9043521DD04F109094D46CD
:1020D800444415F8013B0146303B0A223846FFF7D5
:1020E80095FFAC42F5D109EB0804083C46450CDDE8
:1020F800A6EB0806264414F8013B0146303B0A22A9
:102108003846FFF783FFA642F5D1BDE8F8834FF0C4
:1021180009080A34EAE70021CEE700BF398EE33820
:10212800020C12040346C2B90304102013F07F4FB7
:1021380004BF1B02083013F0704F04BF1B010430AA
:1021480013F0404F04BF9B000230002B04DB5B0000
:1021580001D501307047202070470020E6E700BF16
:102168000368014613F0070207D0DA071FD498075F
:102178001FD55B080B600120704798B2A0B11046CC
:1021880013F0FF0F04BF1B0A08301A0704BF1B090E
:1021980004309A0704BF9B080230DA0702D45B08B0
:1021A8000BD001300B6070471B0C1020E8E70020B3
:1021B80070479B080B60022070472020704700BFC3
:1021C80010B50C460121FFF7D1FE0122C0E9042415
:1021D80010BD00BF2DE9F04F0D69146985B0A54207
:1021E8000E46914604DA2A464E4625468946144646
:1021F800B36805EB040871684345B8BF0131FFF7C0
:10220800B5FE00F1140B0BEB880AD345019005D2FB
:102218005B46002243F8042B9A45FBD809F11403C6
:1022280003EB840406F11402A34202EB850E62D28A
:10223800A4EB0904153C24F003042344CDE902A8C7
:1022480009F1100990469A4605E0090C2CD1CA45B7
:102258000BF1040B4DD059F8041F1FFA81FCBCF197
:10226800000FF2D047465E46002100E006463046A1
:1022780057F8042B346893B2A5B2120C0CFB035325
:10228800240C0CFB02420B4402EB13419BB243EAC1
:102298000143BE454FEA114140F8043BE6D871605E
:1022A800D9F80010090CD2D0DBF8003040461E46A1
:1022B8005D46002200E025462C460788360C01FBC7
:1022C80007669BB2324443EA024344F8043B50F8A1
:1022D800043B6E681B0CB7B201FB0373864503EB26
:1022E80012434FEA1342E6D8CA456B600BF1040B60
:1022F800B1D1DDE902A8B8F1000F0BDD5AF8043CB2
:10230800AAF1040A1BB105E05AF8043D13B9B8F163
:102318000108F9D10198C0F8108005B0BDE8F08F28
:102328002DE9F04112F0030382B0144607462DD17F
:102338000E46A4101CD07B6A8BB39D68002D38D044
:10234800E3074FF0000806D4641011D0286898B14C
:102358000546E307F8D531462A463846FFF73AFFDF
:102368000346314638461E46FFF734FE6410EDD169
:10237800304602B0BDE8F0812A4629463846FFF7C4
:1023880029FF2860C0F800800546E2E7114A013BB2
:1023980052F823200023FFF739FE0646C9E710202C
:1023A800FFF78EFD002203467862C0E90122026031
:1023B800C260012138460193FFF7D8FD0121054687
:1023C800002240F27120019BC5E904109D602A603B
:1023D800B6E700BFA08000080B692DE9F0474FEA77
:1023E800621A0AEB03088B6808F101049C420D4647
:1023F80091460746496804DD5B009C4201F10101F2
:10240800FADC3846FFF7B2FDBAF1000F064600F1D4
:1024180014033ADD002203EB8A0143F8042B8B42B4
:10242800FBD1286905F1140319F01F0903EB800C8F
:1024380023D0C9F120024FF0000A00E071468E4611
:10244800186800FA09F040EA0A004EF8040B53F83D
:10245800040B9C4520FA02FAF0D8C1F804A0BAF19E
:10246800000F01D008F10204013C384634612946C6
:10247800FFF7B0FD3046BDE8F087043953F8042B68
:102488009C4541F8042FF9D8EEE71946C9E700BF83
:1024980030B40B6905460069C01A0FD19B0014358A
:1024A800143119442B4401E09D4207D253F8044DDE
:1024B80051F8042D9442F7D002D3012030BC704764
:1024C8004FF0FF30FAE700BF2DE9F84F0C691369A8
:1024D8008946E41A002C924601F1140702F1140B04
:1024E80014D19B00FA185B4401E0BA4262D952F851
:1024F800045D53F8041D8D42F7D009D23A464B4685
:102508005F46D14693469A46012401E0F6DB002453
:10251800D9F80410FFF72AFD5E464FF00008D9F8F5
:1025280010C0DAF810303D46C4600BEB830E07EBA1
:102538008C0700F1140455F8049B56F8042B1FFA75
:1025480089F343441FFA82F8120CA3EB0803C2EB89
:10255800194202EB23429BB243EA0243B64544F8D0
:10256800043B4FEA2248E6D8AF4217D9A6462E4682
:1025780056F8043B99B241440A1402EB134289B25B
:1025880041EA0243B7424EF8043B4FEA2248EFD8EB
:10259800ED432F4427F0030704373C44043C2BB990
:1025A80054F8043D0CF1FF3C002BF9D0C0F810C0E2
:1025B800BDE8F88F0021FFF7D9FC01220023C0E90C
:1025C8000423BDE8F88F00BF0F4B0B40A3F15073F5
:1025D800002B02DD0020194670475B421B15132BA8
:1025E8000BDD143B1E2BD7BF01220123C3F11F03B0
:1025F80002FA03F30021184670474FF40022002026
:1026080042FA03F1704700BF0000F07F2DE9F04166
:10261800076900F1140606EB870757F8048C404653
:10262800FFF77EFDC0F120030A280B60A7F1040222
:1026380018DC96422CBF002257F8082CC0F10B0377
:1026480028FA03F138BFDA4000F1150341F07F554D
:1026580008FA03F345F4401543EA020420462946E4
:10266800BDE8F0819642A0F10B031DD257F8080C83
:10267800E3B108FA03F848F07F58C3F12001A7F145
:10268800080220FA01FC48F44018964200FA03F0C8
:1026980048EA0C0503D257F80C3CCB4018430446D3
:1026A80020462946BDE8F08133B9184648F07F55E1
:1026B80045F440150446F3E7002008FA03F343F015
:1026C8007F5545F440150446EAE700BF2DE9F0417F
:1026D8001C4682B00121DDE908659046FFF746FCFB
:1026E8002346C4F30A540746C3F313030CB143F457
:1026F8008013B8F1000201931ED002A840F8082DFB
:10270800FFF72EFD70BBDDE900237A61002B0CBFBB
:1027180001210221BB613961CCB907EB8103A0F229
:10272800324030601869FFF7FBFCC0EB41102860AD
:10273800384602B0BDE8F08101A8FFF711FD01227B
:10274800019B11462030C7E90423002CE5D0A4F2F0
:1027580033430344C0F1350033602860384602B083
:10276800BDE8F081019BC0F12002009903FA02F252
:102778000A43C34001937A61C8E700BF2DE9F043DB
:1027880083B00F4669460646FFF740FF04460D46EC
:10279800384601A9FFF73AFF36693A698946DDE903
:1027A8000013B61ACB1A03EB4613002B80460BDD39
:1027B80005EB03573D4642464B462046294600F066
:1027C8007BFC03B0BDE8F083C3EB033309EB035193
:1027D8008946F0E71728D0B504460ADD0020002610
:1027E8000749084F32463B4600F03CFB013CF9D113
:1027F800D0BD054B03EBC004D4E90401D0BD00BF34
:102808000000F03F00002440A080000870B4146964
:102818004D1E02F1140303EB84016D1101358B4247
:1028280000EB85040CD2051F53F8046B994245F858
:10283800046FF9D88B1A153B23F0030304331844AB
:10284800844204D9002340F8043B8442FBD870BC7E
:10285800704700BF036910B44C11A34200F1140281
:102868000FDA02EB83039A421CD253F8040C043BA0
:1028780018B114E053F8041D89B99A42FAD310BC70
:10288800704702EB8403EEDD11F01F01EBD052F824
:10289800244024FA01F000FA01F18C42E3D001202F
:1028A80010BC70470020EAE738B502FB01F4214666
:1028B80000F05CF8054618B122460021FDF76EFDD0
:1028C800284638BD002934D038B551F8043C0C1FCF
:1028D800002BB8BFE418054600F0E6F8224B1A684A
:1028E8002AB1A2420DD921686018824235D06260AF
:1028F80028461C60BDE8384000F0D8B8A34203D889
:102908001A465368002BF9D111685018A04218D004
:1029180010D821686018834203BFD3E9000309185F
:10292800C4E90013636054602846BDE8384000F0ED
:10293800BDB870470C2328462B60BDE8384000F02E
:10294800B5B820680144501883421160ECD1D3E92E
:1029580000030144C2E90013E6E7D2E9000201449A
:10296800C4E90012C4E700BFF4010020F8B5CD1C8B
:1029780025F0030508350C2D38BF0C25002D06461B
:102988003ADBA94238D82A4F00F08EF83A6852B19B
:1029980013685B1B04D433E023685B1B25D52246F0
:1029A8005468002CF8D1796800293BD02946304674
:1029B80000F040F8431C2AD0C41C24F00304A042B1
:1029C80005D0211A304600F035F801301FD02560B7
:1029D800304600F06BF804F10B0020F00700231DCF
:1029E800C31A01D05A42E250F8BD0B2B0BD8A242B1
:1029F80015D063685360EBE70C2300203360F8BD03
:102A08000B2B0BD9144623601C442560E0E70C23EC
:102A18003046336000F04AF80020F8BD54683C6046
:102A28001446D5E7304600F005F87860BEE700BFE9
:102A3800F401002038B50023064C054608462360FB
:102A480000F0E8FC431C00D038BD2368002BFBD005
:102A58002B6038BDBC0C002030B4064C064D2468F1
:102A6800246A002C08BF2C46D4F8E440A44630BCA5
:102A7800604700BF000000206400002082B049B118
:102A88005AB16BB113780B601278101C18BF012073
:102A980002B0704701A9002AF3D1104602B070476E
:102AA8006FF00100F4E700BF704700BF704700BF38
:102AB80030B4064C064D2468246A002C08BF2C4606
:102AC800D4F8E040A44630BC604700BF00000020B6
:102AD8006400002019B1FF2A03D80A7001210846B2
:102AE80070478A234FF0FF310360F8E781F0004117
:102AF80002E000BF83F0004330B54FEA41044FEADB
:102B0800430594EA050F08BF90EA020F1FBF54EA75
:102B1800000C55EA020C7FEA645C7FEA655C00F011
:102B2800E2804FEA5454D4EB5555B8BF6D420CDDE2
:102B38002C4480EA020281EA030382EA000083EA65
:102B4800010180EA020281EA0303362D88BF30BD05
:102B580011F0004F4FEA01314FF4801C4CEA11315B
:102B680002D0404261EB410113F0004F4FEA0333BA
:102B78004CEA133302D0524263EB430394EA050F45
:102B880000F0A780A4F10104D5F1200E0DDB02FAB4
:102B98000EFC22FA05F2801841F1000103FA0EF248
:102BA800801843FA05F359410EE0A5F120050EF10E
:102BB800200E012A03FA0EFC28BF4CF0020C43FA3F
:102BC80005F3C01851EBE37101F0004507D54FF04C
:102BD800000EDCF1000C7EEB00006EEB0101B1F59C
:102BE800801F1BD3B1F5001F0CD349085FEA3000E2
:102BF8004FEA3C0C04F101044FEA445212F5800FED
:102C080080F09A80BCF1004F08BF5FEA500C50F189
:102C1800000041EB045141EA050130BD5FEA4C0C6C
:102C2800404141EB010111F4801FA4F10104E9D1F5
:102C380091F0000F04BF01460020B1FA81F308BFEC
:102C48002033A3F10B03B3F120020CDA0C3208DDB8
:102C580002F1140CC2F10C0201FA0CF021FA02F193
:102C68000CE002F11402D8BFC2F1200C01FA02F103
:102C780020FA0CFCDCBF41EA0C019040E41AA2BF28
:102C880001EB0451294330BD6FEA04041F3C1CDAF0
:102C98000C340EDC04F11404C4F1200220FA04F010
:102CA80001FA02F340EA030021FA04F345EA0301BA
:102CB80030BDC4F10C04C4F1200220FA02F001FA7C
:102CC80004F340EA0300294630BD21FA04F02946FE
:102CD80030BD94F0000F83F4801306BF81F4801197
:102CE8000134013D4EE77FEA645C18BF7FEA655C0A
:102CF80029D094EA050F08BF90EA020F05D054EADC
:102D0800000C04BF1946104630BD91EA030F1EBFE0
:102D18000021002030BD5FEA545C05D140004941E4
:102D280028BF41F0004130BD14F580043CBF01F5D7
:102D3800801130BD01F0004545F0FE4141F47001BD
:102D48004FF0000030BD7FEA645C1ABF1946104698
:102D58007FEA655C1CBF0B46024650EA013406BF99
:102D680052EA033591EA030F41F4002130BD00BF58
:102D780090F0000F04BF0021704730B54FF4806415
:102D880004F132044FF000054FF0000150E700BF96
:102D980090F0000F04BF0021704730B54FF48064F5
:102DA80004F1320410F0004548BF40424FF00001E2
:102DB8003EE700BF42004FEAE2014FEA31014FEA25
:102DC80002701FBF12F07F4393F07F4F81F0605174
:102DD800704732F07F4208BF704793F07F4F04BFBF
:102DE80041F40021704730B54FF4607401F000459C
:102DF80021F000411CE700BF50EA010208BF7047FC
:102E080030B54FF000050AE050EA010208BF7047EC
:102E180030B511F0004502D5404261EB41014FF455
:102E2800806404F132045FEA915C3FF4D8AE4FF05D
:102E380003025FEADC0C18BF03325FEADC0C18BF40
:102E4800033202EBDC02C2F1200300FA03FC20FA91
:102E580002F001FA03FE40EA0E0021FA02F11444DE
:102E6800BDE600BF70B54FF0FF0C4CF4E06C1CEAF7
:102E780011541DBF1CEA135594EA0C0F95EA0C0F68
:102E880000F0DEF82C4481EA030621EA4C5123EADB
:102E98004C5350EA013518BF52EA033541F480110A
:102EA80043F4801338D0A0FB02CE4FF00005E1FBBD
:102EB80002E506F00042E0FB03E54FF00006E1FB07
:102EC80003569CF0000F18BF4EF0010EA4F1FF044A
:102ED800B6F5007F64F5407404D25FEA4E0E6D418A
:102EE80046EB060642EAC62141EA55514FEAC5209B
:102EF80040EA5E504FEACE2EB4F1FD0C88BFBCF517
:102F0800E06F1ED8BEF1004F08BF5FEA500E50F1C7
:102F1800000041EB045170BD06F0004646EA01018D
:102F280040EA020081EA0301B4EB5C04C2BFD4EBBF
:102F38000C0541EA045170BD41F480114FF0000EB8
:102F4800013C00F3AB8014F1360FDEBF002001F026
:102F5800004170BDC4F10004203C35DA0C341BDCA0
:102F680004F11404C4F1200500FA05F320FA04F072
:102F780001FA05F240EA020001F0004221F00041A6
:102F880010EBD37021FA04F642EB06015EEA430E19
:102F980008BF20EAD37070BDC4F10C04C4F1200549
:102FA80000FA04F320FA05F001FA04F240EA0200FC
:102FB80001F0004110EBD37041F100015EEA430ECD
:102FC80008BF20EAD37070BDC4F1200500FA05F2ED
:102FD8004EEA020E20FA04F301FA05F243EA02036C
:102FE80021FA04F001F0004121FA04F220EA02007B
:102FF80000EBD3705EEA430E08BF20EAD37070BDC1
:1030080094F0000F0FD101F00046400041EB0101A0
:1030180011F4801F08BF013CF7D041EA060195F082
:10302800000F18BF704703F00046520043EB03033C
:1030380013F4801F08BF013DF7D043EA0603704729
:1030480094EA0C0F0CEA135518BF95EA0C0F0CD034
:1030580050EA410618BF52EA4306D1D181EA03017A
:1030680001F000414FF0000070BD50EA410606BF74
:103078001046194652EA430619D094EA0C0F02D1B9
:1030880050EA013613D195EA0C0F05D152EA0336FE
:103098001CBF104619460AD181EA030101F000411C
:1030A80041F0FE4141F470014FF0000070BD41F065
:1030B800FE4141F4780170BD70B54FF0FF0C4CF43F
:1030C800E06C1CEA11541DBF1CEA135594EA0C0F5E
:1030D80095EA0C0F00F0A7F8A4EB050481EA030EAB
:1030E80052EA03354FEA013100F088804FEA033392
:1030F8004FF0805545EA131343EA12634FEA022260
:1031080045EA111545EA10654FEA00260EF0004120
:103118009D4208BF964244F1FD0404F5407402D272
:103128005B084FEA3202B61A65EB03055B084FEA03
:1031380032024FF480104FF4002CB6EB020E75EB00
:10314800030E22BFB61A754640EA0C005B084FEA28
:103158003202B6EB020E75EB030E22BFB61A7546A5
:1031680040EA5C005B084FEA3202B6EB020E75EBF0
:10317800030E22BFB61A754640EA9C005B084FEA68
:103188003202B6EB020E75EB030E22BFB61A754675
:1031980040EADC0055EA060E18D04FEA051545EA64
:1031A80016754FEA06164FEAC30343EA52734FEA0D
:1031B800C2025FEA1C1CC0D111F4801F0BD141EA86
:1031C80000014FF000004FF0004CB6E711F4801FEB
:1031D80004BF01430020B4F1FD0C88BFBCF5E06FCB
:1031E8003FF6AFAEB5EB030C04BFB6EB020C5FEADB
:1031F800500C50F1000041EB045170BD0EF0004E30
:103208004EEA113114EB5C04C2BFD4EB0C0541EA61
:10321800045170BD41F480114FF0000E013C90E65E
:1032280045EA060E8DE60CEA135594EA0C0F08BF22
:1032380095EA0C0F3FF43BAF94EA0C0F0AD150EA21
:1032480001347FF434AF95EA0C0F7FF425AF1046B4
:1032580019462CE795EA0C0F06D152EA03353FF4DC
:10326800FDAE1046194622E750EA410618BF52EA59
:1032780043067FF4C5AE50EA41047FF40DAF52EA2D
:1032880043057FF4EBAE12E74FF0FF3C06E000BFCA
:103298004FF0010C02E000BF4FF0010C4DF804CDD7
:1032A8004FEA410C7FEA6C5C4FEA430C18BF7FEA97
:1032B8006C5C1BD001B050EA410C0CBF52EA430CC5
:1032C80091EA030F02BF90EA020F0020704710F145
:1032D800000F91EA030F58BF994208BF90422CBFD4
:1032E800D8176FEAE37040F0010070474FEA410CCD
:1032F8007FEA6C5C02D150EA013C07D14FEA430CEB
:103308007FEA6C5CD6D152EA033CD3D05DF8040B5B
:10331800704700BF8446104662468C46194663468D
:1033280000E000BF01B5FFF7B7FF002848BF10F164
:10333800000F01BD4DF808EDFFF7F4FF0CBF0120A9
:1033480000205DF808FB00BF4DF808EDFFF7EAFF25
:1033580034BF012000205DF808FB00BF4DF808EDE0
:10336800FFF7E0FF94BF012000205DF808FB00BFD5
:103378004DF808EDFFF7CEFF94BF012000205DF85F
:1033880008FB00BF4DF808EDFFF7C4FF34BF01206C
:1033980000205DF808FB00BF4FEA410C7FEA6C5C37
:1033A80002D150EA013C0AD14FEA430C7FEA6C5C37
:1033B80002D152EA033C02D14FF0000070474FF0AF
:1033C800010070474FEA410212F5001215D211D5DB
:1033D8006FF47873B3EB625212D94FEAC12343F00A
:1033E800004343EA505311F0004F23FA02F018BF8C
:1033F800404270474FF00000704750EA013005D155
:1034080011F0004008BF6FF0004070474FF0000017
:10341800704700BF044A05491368002B08BF0B46D4
:103428001844106018467047FC010020C00C0020AA
:103438000023034A5070137093701846704700BFFA
:103448003C0C00204FF6FF7330B50025064C83B0C6
:1034580000010093207022460223982103486570DA
:1034680003F086FE03B030BD000200208009002072
:1034780003681B68DB0600D47047002330B5104C86
:1034880083B00193236820461A6801925B68019310
:10349800019B02F009FA0B4B626B194610681A7807
:1034A800456842F0010201F8042B20464FF40072EF
:1034B800C5F500755D8003B0BDE8304002F0A8B9DD
:1034C800740B002034060020094810B504684FF436
:1034D8000072E368074943F01003E36002F098F9CB
:1034E80000220221044802F043FD002010BD00BF65
:1034F800740B00203806002000100140094810B560
:1035080004684FF40072E368074943F01003E3606E
:1035180002F07EF900220421044802F029FD00206F
:1035280010BD00BFB40B002034040020001001407F
:1035380070B505460E460B4C01222046022102F0CA
:1035480017FD324629464FF6FF73074802F0D6F8B2
:10355800054600222046022102F00AFD281C18BF59
:10356800012070BD00100140740B002000220A21C8
:10357800024B10469980DA60704700BF240C002087
:1035880000224FF40071014802F0F2BC000C014027
:1035980010B5144B1C789CB901224FF40051124805
:1035A80002F0E6FC22464FF480510F4802F0E0FC9E
:1035B800BDE8104001224FF400510C4802F0D8BC7D
:1035C8004FF40051084802F0D7FC4FF480510648E8
:1035D80002F0D2FCBDE810404FF40051034802F05D
:1035E800CBBC00BFAC0C0020000C01400010014017
:1035F800012130B4064B040E064A050C1C70040A5F
:10360800D8705D709C701170002030BC704700BF8E
:1036180004020020020200200121054B054A10B4D3
:10362800040A58711C711170002010BC704700BF4B
:10363800040200200202002001220349034B887182
:103648001A700020704700BF040200200202002008
:1036580001220349034B88721A700020704700BF8B
:10366800040200200202002001220349034B0873D0
:103678001A700020704700BF0402002002020020D8
:1036880001220349034B48731A700020704700BF9A
:103698000402002002020020F0B5204C89B02078F6
:1036A800002839D018235D251D4E8DF804300FCE23
:1036B800CDF80910CDF80D20CDF80500CDF8113062
:1036C80003CE039ECDF81500DDE90172049B7A4014
:1036D800CDF8191072400598069953409DF81C20A2
:1036E80043404B4082F0D302C3F307215A404A407B
:1036F80082EA134202F0FF020A4E82EA13631F2194
:103708004FF6FF7268468DF81D308DF81E500096F2
:10371800FFF70EFF0023237009B0F0BD020200205E
:10372800040200205BD2010010B5104C01224FF4B6
:1037380000410F4802F01CFC20460122402102F003
:1037480017FC20468021012202F012FC4FF48072FF
:103758000024084B64205A809C725C729C74DC7252
:10376800DC7301F0FBFB204610BD00BF00100140D8
:10377800000C0140480C002010B5094C01222046DD
:10378800802102F0F5FB01224FF40041054802F0C8
:10379800EFFB20460122402102F0EAFB002010BD89
:1037A80000100140000C014070B53A4C6378227853
:1037B8003BBB82B1384B1B780BBB384BDB79F3B979
:1037C800227C02B12374637C012B47D04FF48073B1
:1037D8000020238270BD25888DB9A378002B32D0B4
:1037E800E678012E07D06388B3F5807F07D10123DF
:1037F8000020237270BD294BDB79002B35D10020C6
:1038080070BD72B9237C2BB9637C002BE3D00020F8
:10381800208270BDE0780028F6D1012360742372FD
:1038280070BD012280211E4802F0A2FB01224FF444
:1038380000411C4802F09CFB01224021184802F07C
:1038480097FB012070BD227C002ACCD001224FF4C6
:103858008071E3702182A2742272C4E7A378002BDE
:10386800B4D1E378012BCAD1C1E7324680210C4894
:1038780002F07EFB32464FF400410A4802F078FB22
:1038880032464021064802F073FBA5702674A674E0
:10389800284670BD480C0020830C0020240C002012
:1038A80000100140000C014070B5184C237A1BB180
:1038B800A5781DB100232372002070BD0123E6788E
:1038C800A37096B1012EF5D12A468021104802F046
:1038D8004FFB32464FF400410E4802F049FB2A469E
:1038E80040210B4802F044FBE4E7324680210848B7
:1038F80002F03EFB32464FF40041064802F038FB26
:1039080032464021024802F033FBD3E7480C00203E
:1039180000100140000C0140AF490B78DA0740F174
:103928003D811A462DE9F04F4B796FF3000203F001
:10393800F000A0288DB00A7000F03281A74E96F8EA
:1039480009A0BAF1000F40F02581307AB6F804805A
:10395800404580F04B81002800F048814A88002AC1
:1039680000F0188108F104039BB2012B0B9302F1BC
:10397800FF3908F1030398BF01234C1D1FFA89F989
:10398800A1444FF6FC74B278023B0192F2889FB2D0
:103998000592F268A8F1060C089207EA040202925E
:1039A80047F0030208F107030A921FFA8CF2069205
:1039B8009AB2CDF80CA0CDF810A0894D0997043122
:1039C8004FEA970B0792DDF82CA002E0894500F03A
:1039D8004F81441C2B1811F8012BE0B280455A7115
:1039E800F4D14B780A785D2B019240F071814FF643
:1039F800F572079B6F780593069B934200F26681E8
:103A080000238C461A46AC7895F803E084EA0E0E3B
:103A1800734C87EA0E0E013354F8041F9FB2BB455E
:103A280082EA0102F7D8C2F307278EEA020E8EEA6D
:103A3800070EC2F307478EEA070E8EEA126E029B44
:103A4800099A614693425FFA8EF73ED00A9BEA18BC
:103A580054785A1C92B2524587EA040735D22A4450
:103A680092F801E09C1CA4B287EA0E0E54455FFA56
:103A78008EF72AD22C44DA1C647892B2524587EA2F
:103A8800040722D22A4454781A1D92B2524587EA72
:103A980004071AD22A4454785A1D92B2524587EA2A
:103AA800040712D22A4454789A1D92B2524587EAE2
:103AB80004070AD22A44073352789BB2534587EA4F
:103AC800020702D22B445B785F40019BBB4240F067
:103AD80061810122049203929DF804202B185A71E7
:103AE8004FF05D023E4D9A7108956FE73072CDF840
:103AF8000CC03C4A805C5D2800F0F5800398A2F178
:103B0800060C4FF4E0274FF0000E10F80CB04FF001
:103B180004090220897986F802B05940053A77608D
:103B280086F808E0471C12F800C0BFB24F4581EA8A
:103B38000C011AD212F807C0871CBFB281EA0C0127
:103B48004F45C9B211D212F807C0C71CBFB24F45C2
:103B580081EA0C0109D2043080B2D75D484538BFEC
:103B6800125C81EA070138BF5140594540F0AB80EB
:103B78005B275D2201206B709DF804302C44AB70EC
:103B88009DF8083085F804A0EB70039B2F707072C5
:103B9800E954A27000200DB0BDE8F08F00207047F6
:103BA8001148027D052AF5D80C795B2CF2D14C7AA4
:103BB8005D2CEFD18E79CD790F7A83EA060484EAF9
:103BC80005018F42E6D10124811883542244CC7325
:103BD8004E718D720275DDE734060020A8080020BA
:103BE8001C0200203E060020F4080020F288002A6B
:103BF800D0D10C795B2CCDD18F79CD7991F808A0F3
:103C0800019702950AEB05279DF80450BFB233705F
:103C1800B7807570002F3BD0B1F80290B9F1050F4D
:103C2800B8D90130C0B2644D4C7A874230726C7199
:103C380000F0A480DFF8888105F1050E06240BE06A
:103C480018F8012F5FFA8BF087420EF8012F4FF01A
:103C580001023FF44BAF64461FFA84FCE14500F1D2
:103C6800010B04F1010CEBD8002A93D0307291E7D4
:103C7800DDE9033A002BF9D0BDF814303072F38037
:103C88009DF8043086F809A0B370089BF36081E7BB
:103C9800887A5D287FF47EAF0727019A4D7A0299CA
:103CA8005A405140444A8AEA010153709DF8043051
:103CB8008D4293709DF80830B570F7801470D370FA
:103CC80082F804A053D00023F38063E70123BEE603
:103CD800DDE9033A002B55D19DF80430B370002379
:103CE8003372736056E70398911F07F1040910F8BF
:103CF80001B01FFA89F9F91DB9F1010F86F802B070
:103D0800F18039D9B91C89B2033705291FFA87FE12
:103D18004DD900210846043A4FEA9E08013152F86D
:103D280004CB8FB2B8458CEA0000F7D8C0F307225D
:103D3800424083EA02072EF00301C0F307427A40AB
:103D48008FB282EA106207F1010C7745D1B21FFAEF
:103D58008CFC3FF40AAF194A0CF1010012F80C7000
:103D680080B2814581EA07017FF6FFAEDAE60123DA
:103D78005571907173720DE71946F6E6062205240F
:103D88000392B6E69DF8043086F809A0B370089B44
:103D9800F360A4E79DF80430DDF810A0B370039B2E
:103DA800002B9CD0089B86F809A0F36097E719467A
:103DB8004FF0010CCFE700BF1C020020390600209D
:103DC8003D060020924A507A002800F02081914B4D
:103DD800187800283CD05978002900F0CB809978D1
:103DE800002900F0E280D978002900F0E1801979F3
:103DF800002900F0E0805979002900F0DF809979E6
:103E0800002900F0DE80D979002900F0DD80197AD8
:103E1800002900F0DC80597A002900F0E980997ABD
:103E2800002900F0E880D97A002900F0E780197BA2
:103E3800002900F0B780597B002900F0E280997BC7
:103E4800002900F0E180D97B09B1002070470F20DC
:103E58008446F0B4147804F0F001D02959D031D850
:103E6800B0296FD0C0296BD1AC206B49C12C01F8A7
:103E78000C0040F0828001251C7C01EB0C002C44D6
:103E88001C7403F80C5005740120614481F850003B
:103E9800624900200C78012C2FD191F801C05E49AD
:103EA8005F4C257875BB012613F80C70E570394412
:103EB8005C4F81F82050267226823E70022103F85A
:103EC8000C101AE0E02922D0F02939D1AF240125BD
:103ED800FF2600200227504903F80C7001F80C4017
:103EE8001C7C61442C440E7481F8505081F82000E9
:103EF8001C744A490C78012CCFD0002353601381DD
:103F0800F0BC70470124614481F82040D6E7AE2414
:103F1800DDE7AD204049D02C01F80C00B4D10025D4
:103F2800507801EB0C040128257458D0022851D18F
:103F38001D7C84F820006C1C03F80C001C74A3E79B
:103F48000420D6E7AB2615883349B5F5D97F01F8A3
:103F58000C6016D0AC2001F80C00C32C94D10325BA
:103F680001201C7C03F80C00044401EB0C001C74B9
:103F7800057489E7012084466BE7C22CEDD1022540
:103F8800EEE7012402271D7C244E25441D7401EB15
:103F98000C0570702F7485F8504003F80C4034708D
:103FA80000207DE70C20844653E70220844650E732
:103FB800032084464DE7042084464AE705208446CA
:103FC80047E70620844644E70720844641E708205F
:103FD80084463EE7032802D004287FF455AF022622
:103FE8001D7C84F82000681C187403F80C604BE7EB
:103FF800092084462DE70A2084462AE70B208446B8
:1040080027E70D20844624E70E20844621E77047E1
:10401800A80800201C04002038080020B808002048
:10402800480C0020AC0C00202DE9F041244F82B050
:104038003B7CB3B35B225D234FF00008214D8DF824
:1040480000208DF805307C1E07F10F0603E0A6421C
:1040580005F1010525D014F8013F022BF7D1002303
:104068002978287C61F3070395F82020414060F304
:104078000F2362F317434A4095F8501062F31F6309
:104088000129CDF8013010D084F800803B7C02294A
:1040980008BF85F85080013BA6423B7405F1010535
:1040A800D9D1002002B0BDE8F08106214FF6FF7299
:1040B800684685F85080FFF73BFA95F85010E3E71B
:1040C8001C04002038080020424B2DE9F0419A6971
:1040D80088B042F010029A619A693F4F02F01002CC
:1040E8000092009A002299693C4D41F020019961A3
:1040F8009C69384604F020040194019C9C6942F2B2
:10410800C60144F004049C619C694FF0010804F066
:1041180004040294029C9C69022644F008049C61F1
:1041280014469B6903F008030393039B01F020FFE7
:10413800224628464FF4324101F01AFF42F2C603E4
:10414800384604A9CDE90438079601F0FFFD4FF47D
:10415800887304A93846CDE90434CDF8188001F0F5
:10416800F5FD892304A928460493CDE9054801F003
:10417800EDFD4FF4324304A928460493CDF814808A
:10418800079601F0E3FD4FF4804304A92846049301
:10419800CDE9054401F0DAFD4FF40073384604A96F
:1041A8000493CDE9054601F0D1FD042304A90C4888
:1041B8000493CDE9054401F0C9FD102328460DEB11
:1041C8000301CDE90546049301F0C0FD08B0BDE840
:1041D800F08100BF0010024000100140000C0140B7
:1041E8000014014070B500224FF4807601254FF489
:1041F80060240221184B194884B0186018469E6044
:10420800DD60DC61C3E904125A6000F0B9FEF0B960
:104218000D240122072301A90F48CDE90142039388
:1042280001F0F6F870B91022022301A90A48CDE975
:10423800012301F0EDF818B15821094800F02EFECD
:1042480004B070BD4F21064800F028FEEBE7452179
:10425800034800F023FEDBE70C090020002401409E
:10426800CC8200081C4B02689A4200D07047F0B517
:1042780005460820032403F56C439A6987B042F485
:1042880000729A619B690DEB000103F400730290C0
:1042980001931248019B039401F058FD80200023EC
:1042A8004FF400764FF4006120220D4C0D4FE06072
:1042B8002046C4E90133E3612760C4E90461A261CF
:1042C80002F042FC18B92C62656207B0F0BD7C218F
:1042D800054800F0E3FDF6E7002401400010014026
:1042E8003C09002008000240CC820008064B82B03E
:1042F8005A6942F001025A615B6903F001030193B4
:10430800019B02B0704700BF0010024000224FF42A
:10431800804138B50B4B0C4D0C4C1846C3E90222B2
:10432800C3E90522C3E90722C3E90054196102F071
:10433800ABFE00B938BD4221BDE83840044800F062
:10434800ADBD00BF8009002000580040A0860100D4
:10435800D882000802680E4B9A4200D0704710B508
:10436800122203234FF4406486B002A90948CDE91C
:104378000242059301F0EAFC074BDA6942F4800235
:10438800DA61DB6903F480030193019B06B010BD79
:1043980000580040000C0140001002404FF400603B
:1043A800F8B500224FF482774FF4007508240A21EB
:1043B8000C4B0D4ED8601846C3E90067C3E9065494
:1043C800D9629A60C3E90422C3E908229A6201F01B
:1043D8007FFC00B9F8BD4521BDE8F840034800F06E
:1043E8005DBD00BFD409002000300140E482000810
:1043F8000268174B9A4200D07047A02130B50225B9
:10440800032403F560439A6987B042F480529A61A5
:104418009B69104803F480530291019302A9019B00
:1044280005940395002401F091FC402302A9094852
:10443800CDE90234049401F089FC22462146232068
:1044480002F016F9232002F049F907B030BD00BF89
:10445800003001400008014030B5002247253121D5
:10446800164B174C87B01846C3E90045C3E902212B
:104478001A619A6102F068F9D8B94FF4805306A915
:1044880041F8103D0D4802F0C1F968B900236946AA
:104498000A48CDE9003302F02DFB18B14E21094836
:1044A80000F0FCFC07B030BD4721064800F0F6FCE0
:1044B800ECE74121034800F0F1FCDEE72C0A00207C
:1044C80000080040F082000830B50022472540F27D
:1044D800E731174B174C87B01846C3E90045C3E9C5
:1044E80002211A619A6102F02FF9D8B94FF480536A
:1044F80006A941F8103D0E4802F088F968B9002372
:1045080069460B48CDE9003302F0F4FA18B16D2181
:10451800094800F0C3FC07B030BD6621064800F02A
:10452800BDFCECE76021044800F0B8FCDEE700BF02
:104538006C0A0020000C0040F082000830B5002210
:1045480040F2CF2540F2F3110F4B104C83B01846C0
:10455800C3E90045C3E902219A6102F0F5F868B998
:10456800002369460848CDE9003302F0C3FA18B1C0
:104578008421074800F092FC03B030BD7D21044837
:1045880000F08CFCECE700BFAC0A002000100040F3
:10459800F082000810B503681C4A84B0934207D023
:1045A8001B4A934225D01B4A93420DD004B010BD3C
:1045B800194BDA6942F00402DA61DB6903F004039B
:1045C8000193019B04B010BD0022134B1146DC6916
:1045D800362044F01004DC61DB6903F01003039318
:1045E800039B02F045F8362004B0BDE8104002F005
:1045F80075B8094BDA6942F00802DA61DB6903F041
:1046080008030293029B04B010BD00BF00080040DD
:10461800000C0040001000400010024038B5002295
:104628004FF4E1350C210A4B0A4C1846C3E9004502
:104638005961C3E902221A61C3E9062200F07AFF30
:1046480000B938BD4621BDE83840034800F026BC13
:10465800740B002000380140FC82000838B50022A5
:104668004FF4E1350C210A4B0A4C1846C3E90045C2
:104678005961C3E902221A61C3E9062200F05AFF10
:1046880000B938BD5921BDE83840034800F006BCE0
:10469800B40B002000440040FC82000870B53C4A7E
:1046A800036886B09342044604D03A4A93423BD00A
:1046B80006B070BD4FF4007002260325364B02A9E0
:1046C8009A6942F480429A619B69029003F480439C
:1046D80000F18040009300F58330009B0396059518
:1046E800002601F033FB4FF4806201232B4802A916
:1046F800CDE90226049301F029FB8023284D294A9D
:104708002846C5E90166C5E90466C5E906662A6062
:10471800EB6002F019FA18B18421234800F0BEFBBF
:1047280065636C6206B070BD0420022603251A4B2F
:1047380002A9DA6942F40032DA61DB69029003F413
:10474800003301931548019B0396059501F0FEFA85
:104758000822002601230DEB02011048CDE90226AC
:10476800049301F0F3FA8023104D114A2846C5E955
:104778000166C5E90466C5E906662A60EB6002F0D1
:10478800E3F90028CCD0AF21074800F087FBC7E742
:104798000038014000440040001002400008014079
:1047A800300B002058000240FC820008EC0A002070
:1047B8006C000240704700BFFEE700BFFEE700BF85
:1047C800FEE700BFFEE700BF704700BF704700BFAD
:1047D800704700BF08B500F0B3FBBDE8084001F022
:1047E800AFBF00BF014802F0F9BA00BF3C09002082
:1047F800014802F0F3BA00BF300B0020014802F074
:10480800EDBA00BFEC0A0020014800F075BD00BFFA
:104818000C090020014802F0C3B800BF2C0A002090
:10482800014802F025BE00BF80090020014803F0BE
:10483800AFBA00BF80090020014801F0CFB900BF1E
:10484800D409002010B5044C2046FEF711FE20467E
:10485800BDE8104001F0F4B8740B002010B5044C0A
:104868002046FEF705FE2046BDE8104001F0E8B8F6
:10487800B40B0020014802F093B800BF6C0A002076
:10488800014802F08DB800BFAC0A0020224B00B5E9
:104898009A6983B042F001029A619B69032003F090
:1048A80001030193019B01F0D1FE00226FF00B0080
:1048B800114601F0DDFE00226FF00A00114601F0FA
:1048C800D7FE00226FF00900114601F0D1FE002248
:1048D8006FF00400114601F0CBFE00226FF00300D8
:1048E800114601F0C5FE00226FF00100114601F0EB
:1048F800BFFE00224FF0FF30114601F0B9FE074B12
:104908005A6822F0E0625A605A6842F000725A60AF
:1049180003B05DF804FB00BF001002400000014036
:1049280030B501224FF48033002502244FF4E01102
:1049380097B00CA80C9210920D9314930E951394A3
:10494800159101F01DFB00B1FEE703460F254FF45A
:104958008062214601A8CDE902430593019504929E
:1049680001F0F6FC00B1FEE74FF4004306A80694F8
:10497800089301F0E9FD044600B1FEE701F0BEFD31
:104988004FF47A73B0FBF3F001F0B4FE042001F0A9
:10499800C9FE224621464FF0FF3001F069FE17B0EC
:1049A80030BD00BF2DE9F84F00F0B8FAFFF7B8FFA7
:1049B800FFF78AFBFFF79AFCFFF714FCFFF7A6FC4A
:1049C800FFF7ECFCFFF748FDFFF77EFDFFF726FE3B
:1049D800FFF744FEFFF7B2FD00222520114601F043
:1049E80047FE252001F07AFE00222620114601F01C
:1049F8003FFE262001F072FE00223220114601F00F
:104A080037FE322001F06AFE00221E20114601F016
:104A18002FFE1E2001F062FE00220B20114601F03D
:104A280027FE0B2001F05AFE00220F20114601F04C
:104A38001FFE0F2001F052FE00221020114601F047
:104A480017FE102001F04AFE00221220114601F044
:104A58000FFE122001F042FE00222120114601F033
:104A680007FE212001F03AFE00222220114601F023
:104A7800FFFD222001F032FE694801F0BBFE6948C3
:104A880001F0B8FE684801F0B5FE0A226749684897
:104A980000F042FBFEF748FEFEF772FD0520FEF728
:104AA800C7FCFEF763FD6348FEF7A2FDFEF70CFDA9
:104AB800FEF724FD0020FEF7C5FC00275E4DDFF859
:104AC800ACA15E4CDFF8A8915D4EDFF86081DFF89D
:104AD800A4B1FEF721FFFFF775F9FFF7A5FAFEF776
:104AE80063FEFEF7E1FE2B78002B49D12378002BDB
:104AF80033D13378002BECD0DBF80020D8F8003025
:104B0800D8F808101344D8F810200B44D8F8181017
:104B18001344D8F820200B4413444A4A99F8031048
:104B2800A2FB032348489A0801294FEA93233770C8
:104B3800CBF80020427003702AD00029C9D199F817
:104B48000230002BC5D041490B889A42C1D992B294
:104B580010460A80FEF760FDBBE799F80200FEF7F1
:104B680077FD3B4BD879FEF77FFD3A4B9878FEF7F7
:104B780087FDFEF791FD33782770002BA9D0BBE79E
:104B8800FEF706FD9AF80000FEF756FD2F70ADE718
:104B980099F80230002B9CD02F4B1B78002B2ED07D
:104BA8002E492F48098892B20088A2EB010C84454F
:104BB80028DC891A884225DB0133DBB229480A2B15
:104BC80040F8232018D9D0E9003281681344C2681C
:104BD8000B440169134442690B4481691344C26957
:104BE8000B44016A1344426A0B441344154AA2FB5E
:104BF80003231A4ADB081380174B1F7069E7174B0A
:104C08001A8066E7184A13780133DBB2642B01D89F
:104C180013705EE70123144A89F81330177058E7B8
:104C28002C0A00206C0A0020AC0A0020840C00200A
:104C38000C090020040302017C0C0020820C0020D7
:104C48007E0C0020CDCCCCCC440C0020360C0020AF
:104C5800240C00203C0C00207D0C0020460C002079
:104C6800D0010020FC0B0020F80B0020AC0C002029
:104C7800480C0020780C00202DE9F041724A0368A6
:104C8800126882B09A42044664D0704A12689A4206
:104C980009D06F4A12689A4202D101226D4B1A70EC
:104CA80002B0BDE8F08110216B4801F05BF96B4B55
:104CB80018701A88002A40F0AC80D97979B99A78A6
:104CC8009D880132D2B295429A7008D2012240F2F0
:104CD80001169970624D6349DE802A730A70624A30
:104CE80058701378002B00F0918046F2A8105F49A5
:104CF8000B68013383420B6000F2A2804FF48041BD
:104D08005B4801F02FF95B4BD87018B91A79002A63
:104D180000F089800121002299701A7042F2107106
:104D2800554A1871136801338B42136004D9012165
:104D38000020524B10601970514A138801339BB2FE
:104D4800C82B138004D9012100204E4B1080197004
:104D580023689EE70821464801F004F9DFF8388106
:104D6800102188F80000424801F0FCF8464998F8FC
:104D7800007006460870454BE7B91A78D2B9384D25
:104D8800AA7A0132D2B20A2AAA7217D90120EA787D
:104D9800AF728242687011D16F80CDE90013AF8283
:104DA800FEF7EAFC3A4A009917800E7898F80070E6
:104DB800019B03E000222A4D6A70AA721F70354FCA
:104DC800F6B93B78E3B96B7A0133DBB20A2B6B7225
:104DD80019D94FF00108EB786E7285F8008093B905
:104DE8004FF480736B800091AE82FEF7C5FC284AB1
:104DF8001D4B00996E82168083F800800E7802E0C1
:104E080000232B706B723E7023683EE7174A1360CD
:104E180074E70022012512499A700A731149DA8051
:104E28001D720A705BE79A78002A7FF477AF1A78C8
:104E380059780132D2B291421A70BFF46FAF69E764
:104E4800002313700B6059E72C0A00206C0A00201D
:104E5800AC0A00207E0C002000100140240C002029
:104E6800480C0020AC0C0020830C0020F40B002020
:104E7800000C01403C0C0020B00C0020820C0020EB
:104E8800800C00207C0C0020380C0020AD0C002089
:104E9800360C0020340C0020350C0020FEE700BF43
:104EA80030B44FF41F054FF000640E4B0E4A1968DA
:104EB8000E4841F00101196059680A405A601A68A1
:104EC80022F0847222F480321A601A6822F4802256
:104ED8001A605A6822F4FE025A609D60846030BCF1
:104EE800704700BF001002400000FFF800ED00E02E
:104EF80010B50446074A084B1068A3FB0030800928
:104F080001F0F8FB214600224FF0FF3001F0B0FB22
:104F1800002010BDD4010020D34D6210074A08B507
:104F28001368032043F01003136001F08FFB002087
:104F3800FFF7DEFFFFF7AAFC002008BD00200240B3
:104F4800024A136801331360704700BFB80C002091
:104F5800014B1868704700BFB80C002030B583B00B
:104F68000190FFF7F5FF0546019C631C18BF01344B
:104F7800FFF7EEFF401BA042FAD303B030BD00BFDD
:104F8800002875D0836A70B50446002B66D0236864
:104F98009A68D0074DD4A26AD20644D4A26A5B4963
:104FA80022F4885222F0020242F002028B42A262EC
:104FB800E069626878D0D4E9021542EA4502B1F5A1
:104FC800807F42EA000260695DD0012900F08D808F
:104FD800012800F0988058684D4920F469405860CD
:104FE80000209D68294011439960D96A494D21F4F0
:104FF80070010143D9629B681D40AA423AD0012042
:10500800A36A23F0120343F01003A362E36A034385
:10501800E36270BDA36A43F01003A362E36A43F03E
:105028000103E362A36AA36A012043F01003A362A9
:1050380070BD9A6822F001029A60FFF789FF054661
:1050480004E0FFF785FF401B0228E3D823689A682D
:10505800D107F6D4A26AD206E5D49FE7C36280F8E6
:105068002430FFF7FFF823689A68D007E1D492E765
:10507800012070470020E062A36A23F0030343F095
:105088000103A36270BD012814D05868204920F498
:10509800694040F4807058609868014011439960F5
:1050A800216901390805A0E7B0F5402F08BF4FF482
:1050B800002080E70E46EDB9A069451E46EA453551
:1050C80045F400665D68124825F4694535435D601E
:1050D8009D68B1F5807F00EA050040EA020098600B
:1050E800DED00129DCD000207FE70128CDD14FF4A4
:1050F8008076E0E7A06A40F02000A062E06A40F015
:105108000100E062DEE70026D5E700BF003C014071
:10511800FDF7E1FFFE0E1FFF2DE9F043554B056833
:1051280083B09D427ED003F580639D427AD090F88B
:105138002430012B00F08D8000239046012201933A
:10514800AB680F46D907044680F8242021D44A4B7F
:105158004A491B68AA68A1FB031342F001029B0C91
:10516800AA600193019B2BB1019B013B0193019B19
:10517800002BF9D1FFF7ECFE814605E0FFF7E8FECA
:10518800A0EB0900022857D82568AE6816F001067A
:10519800F4D0A36A3A4A23F4706323F0010343F47A
:1051A80080739542A36258D0A36A23F48013A36244
:1051B8006B685A0505D5A36A23F4405343F480531A
:1051C800A36200266FF00202A36A206A13F48053D8
:1051D80018BFE36A2B4918BF23F00603E3622A4B82
:1051E80084F82460C0E90A132849434601632A6009
:1051F800A9683A4641F48071A96005F14C0101F0B3
:10520800EFFC304623689A6802F46022B2F5602FFA
:105218009A680CBF42F4A00242F480129A6003B06C
:10522800BDE8F083134B5B6813F4702F3FF47FAF36
:10523800012003B0BDE8F0830120A36A84F824604C
:1052480043F01003A362E36A0343E36203B0BDE8DB
:10525800F083022003B0BDE8F083064B5A6812F4CD
:10526800702FA1D0A26A42F48012A2625B685B052B
:10527800A7D5A0E700240140D401002083DE1B430A
:10528800002801409D520008F1520008FD53000813
:10529800704700BF436A9A6A12F0500F02D01B6A27
:1052A8001B6B18479A6A196842F4007210B59A6223
:1052B8008A6802F46022B2F5602F03D01846FFF71F
:1052C800E7FF10BDDA68002AF8D19A6A22F48072E2
:1052D8009A629A6AD204F1D49A6A42F001029A62F6
:1052E800ECE700BF704700BF08B5406AFFF7FAFF58
:1052F80008BD00BF704700BF036810B55A68044670
:10530800900602D51A6891072AD45A68100602D561
:105318001A68510706D45A68520602D51B68DB077B
:1053280033D410BDA26AD20603D4A26A42F4005252
:10533800A2629A6802F4E042B2F5E04F34D05A68AB
:10534800500505D49A6802F46022B2F5602F28D07F
:10535800204600F0EDF86FF00C0223681A60DAE7D7
:10536800A26AD20603D4A26A42F40072A2629A68C0
:1053780002F46022B2F5602F26D02046FFF788FF9E
:105388006FF0120223681A60BFE7A36A204643F44D
:105398008033A362FFF7AEFF6FF0010223681A6043
:1053A80010BDE268002AD3D15A6822F080025A6000
:1053B800A36A23F48053A362A36AD905C8D4A36A55
:1053C80043F00103A362C3E7E268002AD5D15A6813
:1053D80022F020025A60A36A23F48073A362A36AAE
:1053E800DB04CAD4A36A43F00103A362C5E700BF84
:1053F800704700BF08B5436A9A6A184642F04002EF
:105408009A62DA6A42F00402DA62FFF7F1FF08BD35
:10541800002270B490F8243083B0012B01925FD041
:1054280001234D680468062D80F824300A6805EBCE
:1054380085034FF01F0625D90C2D47D8233B256B34
:105448009E4025EA060502FA03F32B432363092A43
:105458008B684FF0070602EB420123D91E39E56835
:105468008E408B4025EA06010B43E360A2F110034E
:10547800012B22D90023002280F82420184603B0EB
:1054880070BC7047053B656B9E4025EA060502FA2D
:1054980003F32B43092A63634FF007068B6802EB7B
:1054A8004201DBD825698E408B4025EA06010B4373
:1054B8002361A2F11003012BDCD81A4B9C4214D0B3
:1054C800826A012342F020028262D4E7413BE56A06
:1054D8009E4025EA060502FA03F32B43E362B6E78A
:1054E8000223184603B070BC7047A3681B02C1D4DE
:1054F800A368102A43F40003A360BBD10A4B0B4AEC
:105508001B68A2FB03239B0C03EB83035B00019343
:10551800019B002BAED0019B013B0193019B002B0B
:10552800F9D1A7E700240140D401002083DE1B4302
:10553800704700BF002800F09C802DE9F84390F8E0
:105548003930044603F0FF02002B00F08D8024223E
:10555800236884F83920DA68E06822F40052DA60B7
:105568001969A26821F4405101431961D968D4E945
:10557800045021F4B0512A4321F00C0102430A439C
:10558800DA605A69A0695B4922F4407202438B428F
:105598005A6170D000F0B8FF636800EB800000EB40
:1055A80080009B00B0FBF3F3534F4FF06408A7FB58
:1055B80003235B091D0100F0A7FF666800EB80006C
:1055C80000EB8000B600B0FBF6F600F09DFF6268C5
:1055D80000EB8000930000EB8000B0FBF3F3A7FB27
:1055E80003235B0908FB13631B013233A7FB032367
:1055F8005B0903F0F00600F087FF626800EB8000AB
:1056080000EB80009300B0FBF3F900F07DFF6268C7
:1056180000EB8000930000EB8000B0FBF3F3A7FBE6
:1056280003235B0908FB13931B013233A7FB0323F6
:10563800C3F3431333432B44202100252268284613
:105648009360136923F490431361536923F02A0389
:105658005361D36843F40053D360E56384F8391089
:1056680084F83A10BDE8F88380F83820FFF716F878
:105678006DE70120704700F057FF636800EB80007A
:1056880000EB80009B00B0FBF3F31B4F4FF0640866
:10569800A7FB03235B091D0100F046FF666800EBCA
:1056A800800000EB8000B600B0FBF6F600F03CFF8F
:1056B800626800EB8000930000EB8000B0FBF3F31E
:1056C800A7FB03235B0908FB13631B013233A7FB0A
:1056D80003235B0903F0F00600F026FF626800EB85
:1056E8008000930000EB8000B0FBF3F900F01CFF92
:1056F8008DE700BF003801401F85EB51F0B5044627
:1057080090F8390083B020282DD10E4600292DD0DD
:1057180001925AB31F4694F83830012B23D0002049
:1057280001212123E06384F8381084F83930FFF729
:105738000FFC0546019AA284E2842268E38C9BB29E
:10574800002B39D0E08CA168013880B2B1F5805FB8
:10575800E08419D0781C3BD110680106FCD5337859
:1057680001365360EAE7022003B0F0BD012003B020
:10577800F0BD13681B060CD4002F33D0FFF7E8FBED
:10578800401B874222682DD3781CF2D1106801068D
:10579800FCD533882169C3F308035360002934D149
:1057A8000236CBE713685B060BD4DFB1FFF7D0FBFB
:1057B800401B8742226815D3781CF3D11368590619
:1057C800FCD52023002084F8393084F83800CBE752
:1057D80013681B06C3D42FB1FFF7BAFB401B8742DF
:1057E8002268B7D2202100250320D36823F4D07380
:1057F800D360536923F00103536184F8391084F8A6
:10580800385084F83A1003B0F0BD013696E700BF6F
:1058180070B590F83A4082B0202C38D1002939D0A0
:10582800002A37D090F83830012B30D004460025B4
:10583800134601260A462221406BE56384F8386046
:1058480084F83A10154E1649A262A3858662C16291
:10585800144E216845630663043101F0C1F92846F6
:10586800236801951A6801925A6884F838500192A1
:10587800019ADA6842F48072DA605A6942F00102E9
:105888005A615A6942F040025A6102B070BD022062
:1058980002B070BD012002B070BD00BF2D590008D4
:1058A800D5590008E5590008036810B5596990F8FA
:1058B80039200446212A1ED0596994F83A20222A10
:1058C80001D0002010BD4A06FBD55A69606B22F052
:1058D80040025A6110B101F0C7F923682021DA6843
:1058E800002022F49072DA605A6922F001025A61AB
:1058F80084F83A1010BD0906DED55A69006B22F00B
:1059080080025A6110B101F0AFF923682021DA68EA
:1059180022F0C002DA6084F83910CDE7704700BF82
:10592800704700BF08B50368406A1B6813F020037E
:1059380010D120210268C385D36823F48073D36013
:10594800536923F001035361536923F04003536102
:1059580080F83A10FFF7E4FF08BD00BF10B584686F
:105968000169B4F5805F836A026820D05C1C5268C4
:105978008462C9B91A70C38D013B9BB2C3858BB9C8
:1059880020240268D16821F02001D160D16821F477
:105998008071D160516921F00101516180F83A406C
:1059A800FFF7BEFF002010BD02F07F02E2E7526859
:1059B80029B9C2F3080223F8022B8362DBE7D2B2CB
:1059C80023F8012B8362D6E7704700BF08B5406A09
:1059D800FFF7FAFF08BD00BF704700BF08B5436A6C
:1059E8001A68506993F8391021291CD0506993F826
:1059F8003A10222907D0DA6B184642F01002DA630F
:105A0800FFF7EAFF08BD4106F5D500212020D9851A
:105A1800D16821F49071D160516921F0010151617F
:105A280083F83A00E7E70006E0D500212020D98472
:105A3800D16821F0C001D16083F83900D6E700BFF2
:105A4800036870B51A6804461607DD6859694AD0B4
:105A580011F0010150D0D60705D5E80503D5E06B54
:105A680040F00100E063560702F0020076D561B10C
:105A7800E16B02F0080641F00201E163002872D1EF
:105A88001EB1E16B41F00801E163E16B002932D0FE
:105A9800960601D5A80674D45D69E16B090702D49E
:105AA80015F040057AD02021DA6822F49072DA6085
:105AB8005A6922F001025A6184F83A105A6952066A
:105AC8005BD55A69616B22F040025A61002954D0B3
