:020000040800F2
:10000000A80F0020754600086144000863440008FA
:1000100065440008674400086944000800000000C7
:100020000000000000000000000000006B44000819
:100030006D440008000000006F440008714400088F
:10004000994600089D460008A1460008A5460008FC
:10005000A9460008AD460008B1460008B5460008AC
:10006000B9460008BD460008C14600087F440008A4
:10007000C5460008C9460008CD460008854400086A
:100080008B440008D146000891440008D54600087A
:10009000D9460008DD460008E1460008E5460008AC
:1000A000E9460008ED460008F1460008F54600085C
:1000B000F9460008FD46000897440008014700087B
:1000C000054700089D440008A3440008A94400080F
:1000D00009470008AF440008B54400080D47000870
:1000E0001147000815470008194700081D47000878
:1000F0002147000825470008294700082D47000828
:100100003147000835470008C9440008394700084E
:100110003D47000841470008CF4400084547000814
:10012000494700084D470008514700085547000857
:10013000F8B5040001D10120F2BD04F13C05687856
:1001400020B900212970204600F078FF00F054F813
:1001500001F0FBF90146DFF8C801DFF8C831B1FB57
:10016000F0F2206842606068984206D34FF49670BF
:1001700042434FF47A76B2FBF6F22768521C3A6299
:1001800066689E4208D27600B1FBF6F0C0F30B0120
:10019000042913D2042011E0A06820B906EB46061A
:1001A000B1FBF6F005E019225643B1FBF6F040F43E
:1001B000804001050CBF012040F400402168C86167
:1001C000E269206A0243206802602169E068014315
:1001D000206881606169A06901432068C16020686E
:1001E000016841F001010160002068602020687012
:1001F00000202063A870F2BD242068702068016888
:1002000049084900016070472DE9FC4700F0ACF84F
:1002100000F080F843D100F09FF800283FD13878F3
:1002200001283CD000F05CF8212000F047F800F0F5
:1002300081FD40B17868042802D1002139702AE09C
:100240000020387029E000F05DF8308D002829D0BA
:1002500000F06FF8C8B900F071F800F079F8308D4F
:10026000401E308531684A69530706D580B220B1F7
:10027000706A421C726200F018F800F055F800280D
:10028000E3D07868042808D102E07868042804D113
:10029000306800F07DF8012002E0032000E0022039
:1002A000BDE8F68700F066F8FAE700780861708D1F
:1002B000411E7185308D411E3185704778702A4608
:1002C0001020B870414600207860C6F82490A6F847
:1002D0002AA0DFF8B800F062708D30853046704794
:1002E0000121397030680168CA0703D4026842F0FE
:1002F00001020260234630680A9D016821F4006112
:1003000001607047009030684169009180690090F9
:100310000099704706F13C0704467878202870471A
:1003200040420F00A186010022462946304600F0D7
:1003300026BE22462946304600F007BE706A411CA0
:1003400071623168007808617047308D411E3185D7
:10035000708D411E71857047009419230122DFF8CA
:100360005014304600F07ABD0646884691469A46BB
:1003700001F01EB93068016841F40071016020206D
:1003800078700020B8703870704700000000FFFFE0
:10039000016841F4007101607047DFF81008E06205
:1003A00070472068016841F48071016070472DE951
:1003B000F84F044604F13D022168DFF8108AD1F8B5
:1003C00018904E694F685078DFF87C55DFF800AA26
:1003D000DFF820BADFF820CA102818BF40286ED1F5
:1003E00016F0011F04F144032ED0B8053ED5507815
:1003F000402809D1D86818B91A6802F0FE0221E035
:10040000186840F0010026E02069B0F5804F0BD15C
:100410001278212A03D1186800F0FE001CE01A6847
:1004200042F00102D2B20DE0D86820B900F0C6F85F
:1004300042F0F00206E0D868012817D100F0BEF8BB
:1004400042F0F1020A6111E0DFF8B009064205D07E
:10045000BA050BD51868C0B2086107E016EA0C0FA0
:1004600004D0B80544BF204600F080FA19EA0B0F0B
:1004700012D016EA0A0F07D0780505D52E4203D10F
:100480002046BDE8F24F0BE12E4245D0B8055CD5C1
:100490002046BDE8F24F67E116EA080F07D078055D
:1004A00005D52E4203D12046BDE8F24FA9E12E42E8
:1004B00032D0B80549D52046BDE8F24FFBE116EA37
:1004C0000C0F12D0B8051AD58A6989690020530724
:1004D00058BF01200A060146204654BFE268A269BF
:1004E000BDE8F84F92B201F069B8DFF8140906428E
:1004F00005D0BB0503D52046BDE8F24FEAE219EA74
:100500000B0F2CD016EA0A0F1CD078051AD52E42F4
:1005100018D11378608D00284ED0606A451C656242
:100520000078086100F050F808BF292B44D100F092
:1005300051F821202063282010702046BDE8F24F9A
:1005400001F03DB82E4237D0B80535D5608D002872
:1005500032D0606A421C62620078086129E016EAC3
:10056000080F1BD0780519D52E4217D11378608D4E
:1005700010B3606A451C65620969017000F024F8D7
:1005800008BF2A2B18D100F025F82220206328204C
:1005900010702046BDE8F24F01F012B82E420BD089
:1005A000B80509D5608D38B1606A421C626209697C
:1005B0000170608D411E6185BDE8F18F1A681204DB
:1005C000D20D02F006027047608D411E6185608D7C
:1005D000002870472068416821F4806141607047BD
:1005E000F8B50446DFF81C182068456946680D42D6
:1005F0000DD0F20518D5216C41F0010121646FF492
:10060000807242612068016841F40041016015F484
:10061000813F09D0F0053CD5206C40F002002064F9
:100620006FF400712068416115F4823F24D0F00519
:100630002FD504F13D004778618D0278236B202F80
:1006400008BF00290BD1212A18BF292A03D0282A44
:1006500008BF212B03D1204600F0AAFA0CE0216C40
:1006600041F0040121644078102801D100F0B6FB6C
:100670006FF480602268506115F4843F09D0F00562
:1006800007D5206C40F0080020646FF400612268F8
:100690005161206C18B12046BDE8F240C4E2F1BDC2
:1006A00038B500F13D0213785478C56A018D0029F0
:1006B00008BF212B16D1042D1EBF082DDFF84817C7
:1006C0008D4202D000F080F809E000F089F804D1F2
:1006D0000023537000F075FF44E00021517000F0DA
:1006E00071FF3FE0212B03D0402C08BF222B39D1D2
:1006F000418D11B900F0D3F834E0517840292FD161
:1007000000F14803996889B900685968012905D141
:100710001A68D2B202619868801C05E01968090461
:10072000090E01619868401C98601BE099680129D6
:1007300007D11A680068D2B202619968491C9960B1
:1007400010E0996802290DD11378222B05D1006899
:10075000016841F48071016004E01278212A01D11E
:1007600000F028F8002032BD10B5C36A00F13D0248
:100770001478212C1AD1418D11B100F01BF815E02D
:10078000042B1EBF082BDFF880168B4202D000F02E
:100790001BF809E000F024F804D10023537000F0A6
:1007A00010FF03E00021517000F00CFF002010BD8D
:1007B00002001000416A4A1C426202680978116115
:1007C000418D4A1E4285704701684B6823F4E063FF
:1007D0004B6011210163002151702021117070477D
:1007E00001684B6823F4E0634B6001680B6843F4D5
:1007F00000730B60002101632021117051784029A2
:10080000704710B500F13D010A78222A45D1428D8A
:10081000042A02D300F09AF83FE0022A18BF032A04
:1008200013D10168C26A0B68022A08D023F48063DE
:100830000B6001680A6842F400620A6002E043F457
:1008400080630B6000F02BF827E00268C36A022B7C
:1008500004D0146824F48064146003E0136843F443
:100860008063136000F021F8426A531C43620368FE
:100870001C691470428D531E4385002220230B7087
:1008800002634A78402A04D100234B7000F09BFE9B
:1008900003E000224A7000F097FE002010BD0068BF
:1008A000416821F48061416070470268536823F415
:1008B000E0635360704780B5C16A438DDFF8482517
:1008C000032B07D104291CBF0829914237D100F01E
:1008D000F2F834E0438D022B31D104291CBF0829E2
:1008E00091420ED00268022904D0116821F480617F
:1008F000116003E0136843F48063136000F030F884
:1009000006E000F02DF801680A6842F400720A60FF
:1009100000F01CF800F01AF800F13D0120220A70E6
:10092000002202634A78402A04D100234B7000F071
:100930004AFE06E000224A7000F046FE01E000F0A8
:1009400005F8002002BD000004000100416A4A1CB5
:100950004262026813690B70418D4A1E42857047DE
:1009600001684A6822F440724A60704738B500F165
:100970003D014A78C36A046B0D78222D40F08580D2
:10098000016D002908BF402A02D1002200927EE0BA
:10099000016D002904BF0269B2F5404F07D100F094
:1009A00081F842F480720A60016D491C6BE0418D50
:1009B00011B9002200922BE0418D012933D1DFF8DB
:1009C000482493420DD100F076F801684A68130577
:1009D00010D4002200924B6900938A690092009B18
:1009E0001CE0042B1CBF082B122C0DD00168C26A1E
:1009F000022A04D00B6823F480630B6040E00A688D
:100A000042F480620A603BE000F055F8002100915A
:100A100001684A6900928B690093009A0A6842F45F
:100A200000720A602EE00168428D022A1CD1C36A5E
:100A3000022B0AD00A6842F400620A60002100F02A
:100A400031F822F480620A6005E00B6843F48063A9
:100A50000B6000F036F801684A68130512D54A6841
:100A600042F480524A600DE00B6843F480630B60EF
:100A700001684A68130503D54A6842F480524A6007
:100A800000F01FF80021016504E0002100910068DA
:100A900000F002F8002032BD4169009180690090A9
:100AA00000997047009101684A6900928B69009330
:100AB000009A0A68704701680A6822F480620A6036
:100AC00070470021009101684A690092896900918C
:100AD000009A70477CB500F13D02137801684C68BC
:100AE00024F4E0644C600021009101684C6900949A
:100AF0000D6845F001050D60009901680C6824F44B
:100B000080640C60046861680D050DD51578222D90
:100B10001CBF11782A2903D1856B29684E6802E031
:100B2000416B0D686E684685418DD1B16569690775
:100B300007D5416A4D1C456224690C70418D4C1EDD
:100B4000448501684C69650607D5446A651C4562A1
:100B500009692170418D4C1E4485016C41F00401EE
:100B60000164016C11B100F05FF81CE0282B1CBF80
:100B70002A2B292B0BD1DFF89012C16200210163CF
:100B8000202111700021517000F01FFD0BE0016B5E
:100B9000222918BF222B06D10023036320211170C4
:100BA000537000F00DFD002076BD00000000FFFF37
:100BB00038B500F13D016FF480620B78C46ADFF84C
:100BC0004852042C14BF082C282B15D1C562036889
:100BD0005C6824F4E0645C6003685A61026814682D
:100BE00024F4806414600022026320220A70002230
:100BF0004A7000F0EAFC15E0212B11D1C5620363B5
:100C000020230B7000234B7001684B6823F4E063D2
:100C10004B6001684A61FFF74EFF00F0D0FC01E035
:100C200000684261002032BD38B5044604F13D053C
:100C30002878292818BF2A2804D1002020632820DA
:100C400028700BE02878602805D0216848680105E5
:100C50005CBF2021297000202063687000F05CF8E0
:100C6000206841680A0523D5416821F4006141608C
:100C7000606B0FF2991190F82120012A09D041638D
:100C8000606B00F039FD002829D000F04BF8606B54
:100C90000BE0A06B4163A06B00F02EFDF8B1206863
:100CA00000F031F800F03EF8A06B416B884716E089
:100CB000297860290ED120222A700022226400F0B7
:100CC00022F820680168490849000160204600F0C8
:100CD0008EFE04E000F017F8204600F089FE287828
:100CE00028280FD1216C48070CD5FFF756FB0020B0
:100CF000206320202870002068702046BDE8324024
:100D000000F063BC31BD41694A0604D5616A4A1CE2
:100D100062620069087070472068016821F4006110
:100D2000016070472068016849084900016020207F
:100D300028707047F8B504460D46E06A04281EBFC7
:100D400001283149884216461F4602D1FFF729FB88
:100D500003E0206B122800F031F80097334600F0D2
:100D600028F810BB2069B0F5804F04D1216805F048
:100D7000FE050D610EE0E809216800F0060040F074
:100D8000F00008613B4632461C4900F030F838B9A3
:100D900000F020F83B463246174900F028F828B109
:100DA000206C042801D10120F2BD0320F2BD009681
:100DB000534600224FF0011120464FE004D1206835
:100DC000036843F480730360704700004000010033
:100DD000800001002068EDB205617047206801685D
:100DE00041F400710160704733464A46414620464F
:100DF0006AE0000004001000020001000800010089
:100E000010000100000101000000FFFF406A0168BE
:100E10000A6822F480620A6000214185426B5163B6
:100E2000826B516300F13D010B78602B0BD12022C6
:100E30000A7000224A70026401680A68520852006F
:100E40000A6000F0D4BD20230B7000224A700168B4
:100E50000A68520852000A6000F0CABD2DE9F84342
:100E60000F46089C3D020646904699462D0E306876
:100E7000012D1ED14069384080B2B9B288421ED0DF
:100E8000002040451DD119F1010FF0D0B9F1000F3C
:100E900004D000F08DFB001B8145E8D200203063B8
:100EA000202106F13C004170002181700170032077
:100EB00008E08069384080B2B9B28842E0D10120B0
:100EC000DFE70020BDE8F2832DE9FC410F463E023A
:100ED000054614469846360E2868012E18D14169F9
:100EE000394089B2BAB2914218D041694A0517D542
:100EF000026842F4007202606FF480602968486101
:100F000005F13C0004224260002100F05FF81AE085
:100F10008169394089B2BAB29142E6D1002012E02B
:100F200014F1010FD8D02CB100F042FBA0EB080067
:100F30008442D1D200202863202105F13C00417079
:100F4000002101700320BDE8F68170B505460C460E
:100F500016462868416908060FD4284600F03DF877
:100F600008B1012070BD14F1010FF2D024B100F0DE
:100F70001FFB801B8442ECD21BE0002070BD70B5CB
:100F800005460C4616462868416948070FD428468E
:100F900000F023F808B1012070BD14F1010FF2D068
:100FA00024B100F005FB801B8442ECD201E000205C
:100FB00070BD05F13C000022416841F02001416014
:100FC0002A63202141700270032070BD2963202113
:100FD0004170002101700120704701684A69530582
:100FE0000DD56FF480634B6100F13C0104224A602F
:100FF00000220263202048700A7001207047002000
:101000007047000080B51C481C4901601C494160C4
:1010100000218160C1604FF4804101610021416184
:101020008161C1610162FFF783F830B1BDE804401E
:101030005FF0420115A000F097BF01BD00680F49A5
:10104000884200D07047F8B54FF4406100911220FB
:1010500003210190039169460A4800F087FF0A487E
:10106000016841F480010160006800F48000009094
:10107000009805B000BD0000300900200058004075
:10108000A0860100000C01401C100240453A5C554E
:10109000736572735C626572747A5C446F63756DBC
:1010A000656E74735C4769744875625C56535F4241
:1010B000535076322E305C425350322E305C4253C5
:1010C0005076322E305C5372635C6932632E63005B
:1010D0002DE9F8430646DFF898543078C1074AD521
:1010E000686800F00C00042807D0686800F00C0065
:1010F00008280BD16868C10308D5296888033AD548
:101100007068002840F0C080012069E17068B0F587
:10111000803F0FD038B9296821F4803129602868D0
:1011200020F4802009E0B0F5A02F296807D141F410
:1011300080212960286840F48030286006E021F48E
:10114000803129602A6822F480222A60706868B1A0
:1011500000F02EFA04462968880300F1958000F01B
:1011600027FA001B6528F6D3032039E100F020FAA6
:1011700004462868810340F1878000F019FA001BBB
:101180006528F6D3F0E700F013FA001B022840F2BE
:10119000AA80E9E7306970B10121396000F008FAEE
:1011A00004462868810700F1DC8000F001FA001B8A
:1011B0000228F6D9D8E7386000F0FAF90446286822
:1011C000810765D500F0F4F9001B0228F7D9CBE7B9
:1011D000086000F0EDF90446686A810777D500F0F1
:1011E000E7F9001B0228F7D9BEE708B9286A09E029
:1011F0000528286A06D140F004002862286A40F0D9
:10120000010005E0400840002862286A20F0040040
:10121000286241F28938F06868B100F0C9F9814666
:10122000286A810700F1AA8000F0C2F9A0EB09004A
:101230004045F5D398E700F0BBF98146286A81075D
:1012400040F19C8000F0B4F9A0EB09004045F5D3D3
:101250008AE700F0ADF9001B022840F2A28083E784
:1012600000F0A6F9001B022840F2B5807CE700F0F0
:10127000B9F804462868810140F1B18000F098F97E
:10128000001B0228F6D96FE73078DFF8F07281078B
:101290001BD5686810F00C0F09D0686800F00C00CE
:1012A00008287FF477AF6868C1033FF573AF2968FA
:1012B000880703D5306901287FF426AF2968706953
:1012C00021F0F80141EAC0012960317808071DD5F5
:1012D000B069DFF8AC1200283FF47AAF01220A604F
:1012E00000F066F90446686A81077FF54CAFDFF8C5
:1012F00084120868C0084FF47A72B0FBF2F20092D0
:1013000000BF0098411E00280091F9D130784107B4
:1013100039D5E8690024C10009D4E86940F080505B
:10132000E8610124E86900F0805000900098DFF83F
:101330005482D8F80010C8051BD4D8F8000040F437
:101340008070C8F8000000F033F98146D8F800102A
:10135000C8050ED400F02CF9A0EB09006528F5D3E0
:1013600002E72868716920F0F80040EAC1002860AF
:10137000ABE7F06801287FF438AF3FE71CB1E869BC
:1013800020F08050E861F06948B3696801F00C0111
:1013900008293FF4B9AE02287FF469AF00F022F8C3
:1013A0000446286881013FF554AF306AB0F5803FAC
:1013B00005D16968B06821F400310143696069684A
:1013C000306A21F474110143706A0143696001209D
:1013D00000F009F80446286881017FF541AF00203C
:1013E000BDE8F2830020386600F0E2B82DE9F8434A
:1013F000654F05463868894600F00700484502D227
:1014000000F07AF86CD12978594C880705D56168C5
:10141000A86821F0F001014361602878C10757D521
:101420006868012802D121688A0303E0022803D1F9
:1014300021688A0103D453E02268910750D561687E
:10144000890840EA8100606041F2893800F0B0F814
:101450000646686801280BD1606800F00C0004287B
:1014600036D000F0A5F8801B4045F5D303202DE0D1
:10147000022837D1606800F00C00082828D000F05E
:1014800097F8801B4045F5D3F0E72878410705D54C
:101490006168E86821F4E061014361602878010730
:1014A00006D56068296920F4605040EAC100606098
:1014B00000F02CF862683549C2F30312895C2D4AAA
:1014C000C8401060002000F04BFE0020BDE8F28311
:1014D000386800F007008145D7D200F00DF8D4D06D
:1014E0000120F3E7606810F00C0FF1D000F060F815
:1014F000801B4045F6D3B9E73968C90849EAC101FC
:101500003960386800F007004845704720490A688C
:1015100002F00C00082813D120A3C2F38340D203A9
:10152000185C0AD5096800BF20A3134AC1F34041E3
:10153000595CB2FBF1F14843704716494843704784
:101540000D4870470B48006870470A48104A006809
:1015500013681149C3F3022206E006480C4A0068EA
:1015600013680D49C3F3C222895CC840704700006C
:1015700000100240A801002000127A000000424240
:101580008004424200700040002002405C45000898
:101590000410024000093D009046000802030405C3
:1015A000060708090A0B0C0D0E0F101001020000AF
:1015B00001480068704700BFA40B002070477047C7
:1015C00070477047704770477047704730B508B92B
:1015D000012030BD0268DFF8B0138A4200F1280311
:1015E00006D2DFF8A81300F02DF8DFF8A41305E009
:1015F000DFF8A01300F026F8DFF89C1359610221F0
:1016000080F82110146841686FF30D140C43816851
:101610000C43C1680C4301690C4341690C43816967
:101620000C43C1690C431460002119605960996032
:10163000D9601961012180F82110002180F8201063
:10164000002030BD8C181425B4FBF5F4A4009C6177
:101650007047F8B50446002594F82000012801D110
:101660000220F2BD94F821000126012884F82060B0
:1016700024D1022684F8216004F12C06F56020684C
:1016800007687F087F000760204600F09FF9216807
:10169000306820B10A6842F00E020A6008E008686B
:1016A00020F0040008602068016841F00A01016030
:1016B0002068026842F00102026002E084F82050D3
:1016C00002252846F2BD10B501680A6822F00E0214
:1016D0000A6000F13C020B685B085B000B600124B0
:1016E00051688C4011684C600122002180F8212053
:1016F00080F82010002010BDF8B590F821200024BB
:10170000022A00F1340103D00420486001245FE084
:101710000268DFF88862136823F00E0313604FF449
:101720008077026815686D086D0015604FF480328F
:101730000368B3424FF4805519D9DFF84C62B342C5
:1017400008BF012210D0DFF85862B34208BF102250
:101750000AD0DFF85062B34208BF3A4604D0DFF83F
:101760004862B34208BF2A46DFF8403227E0DFF87C
:1017700040C263451CD0DFF83CC263451AD0DFF895
:1017800038C2634518D0DFF83472BB420EBF2A4618
:10179000DFF82C52AB4210D0DFF82852AB4208BF22
:1017A0004FF4801209D0B34207D14FF0807204E0A9
:1017B000012202E0102200E03A46DFF80C321A6003
:1017C000012280F8212080F82040096801B1884773
:1017D0002046F2BD2DE9F84F00F128020427516997
:1017E000734BD1F800E004686C4925689669DFF80E
:1017F000BC81DFF8B491DFF8ACA1DFF8A4B1DFF869
:1018000088C1B7401EEA070F4AD06F0748D5256840
:10181000AD0603D4256825F0040525604FF4802427
:1018200007688F424FF480454FF4806611D96745B1
:1018300008BF04240AD05F4508BF402406D057459E
:1018400008BF344602D04F4508BF2C46C8F80040B8
:1018500020E09F4217D0574B9F4216D0564B9F42D5
:1018600015D0564B9F420EBF2C46554B9F420FD072
:10187000544B9F4208BF4FF4800409D08F4207D1D8
:101880004FF0806404E0042402E0402400E0344689
:101890004D490C605168002974D0BDE8F44F0847E9
:1018A0000227B7401EEA070F4FD0AF074DD5256876
:1018B000AD0606D4256825F00A052560012480F8C8
:1018C00021404FF4003407688F424FF400554FF425
:1018D000007611D9674508BF02240AD05F4508BFCA
:1018E000202406D0574508BF344602D04F4508BFD4
:1018F0002C46C8F8004020E09F4217D02D4B9F4255
:1019000016D02D4B9F4215D02C4B9F420EBF2C461C
:101910002B4B9F420FD02B4B9F4208BF4FF400141C
:1019200009D08F4207D14FF0007404E0022402E096
:10193000202400E0344624490C60002180F8201067
:101940001168F9B1BDE8F44F0847082101FA06F61D
:101950001EEA060F16D0290714D5216821F00E01C2
:101960002160012391698B4051694B600123002163
:10197000136180F8201080F82130916811B1BDE822
:10198000F44F0847BDE8F18F08040240F8FFFDBF9F
:1019900000000240F8FBFDBF00040240800002404E
:1019A0001C0402403004024044040240040402408B
:1019B000080002401C000240300002404400024087
:1019C000580002406C0002400400024038B5046C2C
:1019D0000125A540C46B65600468636040681028F9
:1019E00002D1A260E16031BDA160E26031BD70470B
:1019F000704700002DE9F04700F0C6FB00F007F942
:101A000000F0D4FB00F05CFC00F06AFCFFF7FAFA8F
:101A100000F004FD00F080FD00F09EFD00F056FE99
:101A200000F05FFE00F0D2FD00220021252000F032
:101A30003DFF252000F057FF00220021262000F066
:101A400035FF262000F04FFF00220021322000F059
:101A50002DFF322000F047FF002200211E2000F061
:101A600025FF1E2000F03FFF002200210B2000F088
:101A70001DFF0B2000F037FF002200210F2000F097
:101A800015FF0F2000F02FFF00220021102000F092
:101A90000DFF102000F027FF00220021122000F08F
:101AA00005FF122000F01FFF00220021212000F07E
:101AB000FDFE212000F017FF00220021222000F06F
:101AC000F5FE222000F00FFFDFF87004DFF87084CD
:101AD000DFF870A4DFF87044DFF8706400F04BFFAB
:101AE000DFF86C0400F047FFDFF8680400F043FF04
:101AF0000A2208F59A71DFF8600401F077F901F025
:101B000089FB01F07FFC052001F0B6FC01F0BCFC74
:101B1000DFF8480401F0C2FC01F047FD01F04FFD81
:101B2000002001F089FDC821002001F091FD08F599
:101B3000987540F22B192EE0288000207076307EB8
:101B400048B30021317600202A1DC3B2E96A52F859
:101B50002320801C5118C2B20A2AE962F4DB052056
:101B6000B1FBF0F7EF62380A88F8000088F80170DE
:101B7000E178012904D1A07868B1B8B200F080F909
:101B8000E17841B9A07830B1318CB94203D23784C1
:101B9000308C01F08FFC01F057FE01F05CFE01F08B
:101BA000FAFE01F09FFB01F0EAFBB07E30B101F0DC
:101BB00030FCB07C01F086FC0020B07600F093F998
:101BC000307F68B1A07801F080FC9AF8070001F03E
:101BD0007FFCB07801F07FFC01F085FC00203077BD
:101BE000717E0029ABD0707C0028A5D02A8808F12E
:101BF00004010020895C01F02BFD2888401C28800E
:101C000080B2B0F5967F98DBA5F8009095E700B517
:101C1000002195B001200D910B90022112914FF4FB
:101C200080300C90012213904FF4E0110F92149128
:101C30000BA8FFF74DFA00B1FEE70F21022000913B
:101C4000019000214FF48060029103900491684656
:101C50000221FFF7CBFB00B1FEE7022005904FF415
:101C60000041079105A801F0E3FE00B1FEE7FFF790
:101C700069FC4FF47A71B0FBF1F000F03EFE0420F5
:101C800000F04FFE002200214FF0FF3000F00EFE6A
:101C900015B000BDF8B50446A84822680168AA4EF0
:101CA000AA4DAF4F914266D1202100F0E6F8AB7B00
:101CB000EA8B01460B43697315D1287BA8B1287ABA
:101CC000521C002890B207D115280EDB01222A727F
:101CD000AA7200222A7308E0152806DB0020287269
:101CE000A872002200E001202873A973EA8308216A
:101CF00000F0C3F8E874102100F0BFF86875E97CC3
:101D0000287D014312D1B07A401CB072C0B20A28BB
:101D10000FDD012070700020B072F078012808D12A
:101D2000002000F0A5F80020288402E00020707058
:101D3000B072E87C697D2875A87D014316D1707A60
:101D4000401C7072C0B20A2813DD012030700020E0
:101D50007072F07868B9012100F08AF800202884B8
:101D600070820120E8760020687402E00020307064
:101D70007072687DA875764822680168914267D1C3
:101D80001021784800F0BDF96E4A1070002804BF99
:101D90005178002910D1D079E0B990789188401C11
:101DA0009070C0B2814215D20120907100209070D5
:101DB0000120D07130730CE0D07918B100210120DE
:101DC000E976287400203073D08090700120107262
:101DD0000020A87410785070E87E48B1686A401CF2
:101DE00046F2A911884203D300200121E876E97365
:101DF00068624FF4804100F040F8E870002804BFAA
:101E00002A79002A0CD1A97869B929786A78491CFD
:101E10002970C9B28A4206D20121A970002101E0CD
:101E20000021A9702970287142F21171A86A401C22
:101E3000884202D3012028770020A862688C401CC9
:101E4000688480B2C92803DB0120A876002068845A
:101E5000404923680A68E87D9A4207D1401C012264
:101E6000C1B22A760229A4BF6A760020E875F1BDC6
:101E7000F170B070B08201F026BA384600F041B976
:101E8000F8B5314A117E09B95083F1BD558B968B57
:101E9000537E471BBE42A4BF2D1AAE4207DA5B1C1D
:101EA000D8B265281DDB01200023D07419E0491C3D
:101EB000117602F12005C9B245F821000A290EDD8C
:101EC000002002F12001C5B251F825100C19401C68
:101ED000C1B20A29F5DB0A20B4FBF0F050830020E0
:101EE00010765376F1BD1CB55B208DF80000E3221F
:101EF00000208DF803008DF804005D208DF80600A9
:101F00008DF801204FF6FF72104B187C38B1002479
:101F1000E3208DF802408DF805001C7409E0D87BA1
:101F200058B1E2208DF80500012400208DF8024010
:101F3000D8730721684601F058FB13BDC80900207B
:101F400048000020940B002000000020380B0020E7
:101F5000080A0020480A0020080B002004030201A0
:101F6000000C014000100140FEE700002DE9F84F91
:101F700083460F46002080466A496B4A6B4B4FF000
:101F80000F094FF0010A3C680AFA08F606EA040E47
:101F9000B64540F0AE807C683CB3012C1AD0022CD0
:101FA0001DD0032C2ED0112C16D0122C1AD0604D1F
:101FB000AC421CBF5F4DAC4217D05F4DAC421CBF62
:101FC0005E4DAC4211D05E4DAC421CBF5D4DAC428B
:101FD0000BD018E0F86816E0F868001D13E0F86808
:101FE000083010E0F8680C300DE0B86808B904203B
:101FF00009E0012819BF0820CBF814600820CBF8AD
:10200000106000E00020BEF5807F03D2DC464FEA7E
:10201000880404E0A8F108040BF1040CA400DCF827
:10202000005009FA04F6B54300FA04F42C43CCF846
:1020300000407C68E4005CD51C6844F001041C602E
:102040004FEA980C1D6805F001050095009C52F8B8
:102050002C604FEA880404F00C0409FA04F526EA1F
:102060000505394EB34508BF002618D0374EB34595
:1020700008BF012613D0364EB34508BF02260ED046
:10208000344EB34508BF032609D0334EB34508BFCD
:10209000042604D0314EB3450CBF0526062606FAA9
:1020A00004F42C4342F82C406FEA0E067C68E503EA
:1020B00004D50D684EEA05050D6002E00C68344059
:1020C0000C607C68A5034C684CBF4EEA04043440A5
:1020D0004C607C68E5028C684CBF4EEA04043440D6
:1020E0008C607C68A502CC684CBF4EEA0404344086
:1020F000CC6008F10108B8F10F0F7FF644AFBDE8DE
:10210000F18F8068084018BF0120C0B2704781B0CD
:1021100002B90904016101B07047C2685140C16051
:102120007047000000040140080001401810024000
:1021300000001110000012100000211000002210F9
:10214000000031100000321000080140000C014076
:10215000001001400014014000180140001C014023
:1021600010B508490A6804464FF47A70B2FBF0F0E3
:1021700000F0C3FB002221464FF0FF3000F096FB39
:10218000002010BDA801002080B50748016841F07B
:1021900010010160032000F07CFB0020FFF7E0FF4E
:1021A00001F0BAFC002002BD0020024078B53A4898
:1021B0003A4C3B4D85B0016841F01001016042F29C
:1021C000C606026802F0100204920499016841F008
:1021D00020010160026802F0200204920499016863
:1021E00041F004010160026802F00402049200223E
:1021F0000499016841F0080101603146006800F06F
:102200000800049004982046FFF781FF00224FF455
:1022100032412846FFF77BFF012002210190039104
:10222000009600F049F84FF48870009000210120DA
:1022300000F040F8892000900021012000F034F8DF
:102240004FF432400090012102200191039000F0F0
:102250002DF844F26000002100900191029128467F
:102260006946FFF783FE4FF40070009000210220C2
:1022700000F020F8042000210090019102916946AD
:102280000848FFF773FE102000900021022000F0A4
:102290000BF806B070BD000018100240001001409D
:1022A000000C01400014014001910290694628464B
:1022B000FFF75CBE0191029069462046FFF756BECB
:1022C000064881B0016841F001010160006800F03A
:1022D00001000090009801B0704700BF1410024048
:1022E0003EB5374C374800BF3BA520604FF48070A7
:1022F000A0600020E06060614FF46020E061002099
:10230000606002202061204600F0DEFC18B145210B
:102310002846FFF729FE0D2000900121072001919A
:1023200002906946204600F056FE18B14F2128461B
:10233000FFF71AFE10200221009001912046694605
:1023400000F049FE18B158212846FFF70DFE37BDB1
:1023500030B5044685B020681A4988422DD11A4804
:102360001A4D016841F4007101600821006800F411
:10237000007000900322009815480191029201A973
:10238000FFF7F4FD00206860A8608020E8604FF44B
:10239000007028614FF4006068612020A86100206F
:1023A0000C49E86129602846FFF710F918B17C2133
:1023B00009A0FFF7D9FD25626C6205B030BD0000B1
:1023C000080B00200024014018100240840900205E
:1023D0000010014008000240453A5C557365727375
:1023E0005C626572747A5C446F63756D656E74735C
:1023F0005C4769744875625C56535F42535076324D
:102400002E305C425350322E305C42535076322E86
:10241000305C5372635C6164632E630080B529484D
:10242000294901604FF482714160002181604FF4BD
:102430000061C1600021016141614FF4007181615F
:102440000821C16100210162416281620A21C162E9
:1024500001F0A8FB28B1BDE8044045211DA0FFF70D
:1024600083BD01BD00681849884200D0704718B587
:102470001648174C85B0016841F480510160A021D5
:10248000006800F48050009002220098019103201F
:102490000490029201A92046FFF768FD4020002128
:1024A000019002910391204601A9FFF75FFD0022F0
:1024B0000021232000F0FAF9232000F014FA06B0DE
:1024C00010BD0000D8080020003001401810024064
:1024D00000080140453A5C55736572735C62657231
:1024E000747A5C446F63756D656E74735C47697470
:1024F0004875625C56535F42535076322E305C42D0
:102500005350322E305C42535076322E305C537230
:10251000635C7370692E6300544838B5544C00BF37
:1025200059A5206086B0472060600020A06031205F
:1025300000F03AF810B1412100F03DF800F02DF81C
:1025400010B1472100F037F800F038F810B14E21F3
:1025500000F031F807B030BD464838B5464C00BFF2
:1025600049A5206086B0472060600020A06040F24E
:10257000E73000F019F810B1602100F01CF800F00D
:102580000CF810B1662100F016F800F017F810B141
:102590006D2100F010F807B030BD4FF4805002906C
:1025A00002A9204600F0A8BAE06000202061A061E6
:1025B000204600F0D3B92846FFF7D6BC0020009093
:1025C00001906946204601F02FBB00003EB52B4C20
:1025D0002B4800BF2CA5206040F2671060600020EF
:1025E000A06040F2CB10E0600020A061204600F027
:1025F000B5F910B17D21FFF7DEFFFFF7DFFF10B166
:102600008421FFF7D8FF37BD80B50068174A1D4900
:10261000904207D1086840F004000860096801F0A2
:10262000040109E0134A904209D1086840F008000B
:102630000860096801F008010091009801BD104A86
:10264000904212D1086840F010000860002209682A
:1026500001F01001009100210098362000F026F9C9
:10266000BDE80240362000F03EB901BD0008004040
:10267000C8090020000C0040080A0020480A002079
:10268000001000401C100240453A5C55736572739F
:102690005C626572747A5C446F63756D656E7473A9
:1026A0005C4769744875625C56535F42535076329A
:1026B0002E305C425350322E305C42535076322ED4
:1026C000305C5372635C74696D2E630080B54F4853
:1026D0004F4900F011F818B1BDE8044046211BE055
:1026E00001BD80B54B484C4900F006F818B1BDE873
:1026F0000440592110E001BD01604FF4E131416017
:1027000000218160C16001610C2141610021816172
:10271000C16101F0AFBA000044A0FFF725BC000082
:102720002DE9F841044685B02068394A3FA53B4E63
:102730003B4FDFF8F0803C49904226D1086840F4D6
:10274000804008600222096801F4804104914FF43E
:10275000007100F052F84FF4806000F045F800205E
:102760007060B06037608020F06000203061706180
:10277000B061F0613046FEF729FF18B18421284688
:10278000FFF7F2FB666374622BE0234A904228D184
:10279000486840F4003048600222486800F4003085
:1027A0000490042100F029F8082000F01DF807F13A
:1027B000140070640020B064F06480203065002054
:1027C0007065B065F065306606F14400FEF7FEFE08
:1027D00018B1AF212846FFF7C7FB06F1440060633C
:1027E000B46606B0BDE8F08100900021012001919F
:1027F000029069464046FFF7B9BB04980091032058
:102800000390019269464046FFF7B0BB880A00205A
:1028100000380140C80A002000440040E0070020C2
:10282000580002400008014018100240453A5C552B
:10283000736572735C626572747A5C446F63756D04
:10284000656E74735C4769744875625C56535F4289
:10285000535076322E305C425350322E305C42530D
:102860005076322E305C5372635C75736172742ED5
:10287000630000000901020081B006D52F4A00F074
:102880000F00104400F8041C01E02D4B195401B056
:1028900070472C4A13684FF6FF0100020B4000F40A
:1028A000E0601843284908431060704738B5254B4D
:1028B0001C68C4F30223C3F10704052C28BF0424B9
:1028C0001D1D072D34BF0023DB1E012505FA04F46E
:1028D000641E2140994005FA03F35B1E1A40114320
:1028E000BDE83440C6E7012200F01F01174BFFE7A7
:1028F0008A40400943F82020704710B5401EB0F1CF
:10290000807F01D3012010BD114C60600F214FF07A
:10291000FF30FFF7AFFF0022A260072020600020F9
:1029200010BD04280A4904D1086840F0040008607A
:1029300070470A6822F004020A60704718ED00E050
:1029400000E400E00CED00E00000FA0500E100E02A
:1029500010E000E000F000B87047000038B5040057
:1029600001D1012032BD00F01FF818B900F018F8AD
:10297000FFF74AFE0AE00068C16841F00101C1604A
:10298000026842F001020260002070470220687075
:10299000211D206800F01BF901206870002032BD65
:1029A000002129702046704704F13C056878704783
:1029B00010B50446206801698A0715D5C1688A07E1
:1029C00012D56FF00202026101212177806910F0B7
:1029D000030F204602D001F059FC03E001F057FC40
:1029E00000F087F800202077206801694A0715D594
:1029F000C1684A0712D56FF00402026102212177F3
:102A0000806910F4407F204602D001F03FFC03E0D3
:102A100001F03DFC00F06DF800202077206801698E
:102A20000A0715D5C1680A0712D56FF008020261BE
:102A300004212177C06910F0030F204602D001F075
:102A400025FC03E001F023FC00F053F80020207780
:102A500020680169CA0615D5C168CA0612D56FF08B
:102A60001002026108212177C06910F4407F2046DE
:102A700002D001F00BFC03E001F009FC00F039F892
:102A80000020207720680169CA0708D5C168CA07F5
:102A900005D56FF0010202612046FFF7FBF82068C0
:102AA00001690A0608D5C1680A0605D56FF08002DB
:102AB0000261204601F0ECFB206801694A0608D556
:102AC000C1684A0605D56FF040020261204601F058
:102AD000E0FB206801698A060AD5C1688A0607D525
:102AE0006FF0200202612046BDE8104001F0D2BB29
:102AF00010BD204601F0CFBB38B500F05DF801D124
:102B0000022032BD01222270022060702A68DFF8A4
:102B100034019368034093600868002837D0102878
:102B200037D0202837D0302837D040282BD0502815
:102B30001ED0602820D070280BD0B0F5805F03D065
:102B4000B0F5005F0CD02CE028688168C908C90086
:102B50000CE000F028F82868816841F0770105E072
:102B600000F021F82868816841F48041816018E014
:102B700000F01EF8502111E0CA684968286800F08A
:102B80007CF860210AE000F013F8402106E0002103
:102B900004E0102102E0202100E03021286800F04C
:102BA0007EF80FE00000CB684A68896828687EE0FC
:102BB000CA684968286851E0054605F13C04207858
:102BC00001287047012060700020207032BDF0B5F0
:102BD000DFF874C01D4F03681D4C1E4D1E4E60452E
:102BE00018BFB84208D0B0F1804F18BFB04203D030
:102BF000A84218BFA0420DD14A6823F070031343C6
:102C0000604518BFB84207D0B0F1804F1CBFB0423A
:102C1000A84201D0A04203D1CA6823F440731343F1
:102C20004A6923F080031343036060458A68C262E7
:102C30000A68826212BFB8420969016301214161D9
:102C4000F0BD00008800FFFF002C0140003401406F
:102C5000000C0040000800400004004010B5036A6A
:102C6000046A64086400046223F00A03846924F09F
:102C7000F00444EA0214846123E010B5036A23F0EF
:102C8000100303628369046A23F4704343EA023346
:102C900024F0A004836144EA0114046210BD826838
:102CA00022F07002114341F007018160704710B5B6
:102CB000846824F47F442143114341EA0321816065
:102CC00010BD1943016210BDF8B504460027002667
:102CD000002C7AD004F12405686820B9AE60287011
:102CE0002046FFF735FB204600F03EFA6968CA0629
:102CF0006CD401006AD1696821F4885141F0020165
:102D000069602368DFF83814E269D4F804C08B42A4
:102D100004BFB2F5402F4FF40022E16842EA0C02F2
:102D2000D4F808C0BCF5807F14BFBCF1010F4FF48C
:102D30008077D4F814C0BCF1010F42EA41020FD1F0
:102D400031B9A169491E490341F400610F4307E00D
:102D5000696841F020016960A96841F00101A9603A
:102D6000596821F469410F435F602368DFF8D41389
:102D70009F680F4017439F60A168B1F5807F18BF1F
:102D8000012902D12669761E36052168CB6A23F413
:102D900070031E43CE622468DFF8AC13A3680B40B7
:102DA000934208D10021A960696821F0020141F035
:102DB00001016960F2BD686820F0020040F0100077
:102DC0006860A86840F00100A86003E0686840F00F
:102DD000100068600120F2BD044604F12405287843
:102DE0000128704701212970204672E12DE9FC4736
:102DF000044689462068DFF86413DFF85883DFF85B
:102E00005873884218BF4045924603D1386810F481
:102E1000702F64D1FFF7E1FF08BF022061D0FFF7F8
:102E2000E1FF0028064657D16968DFF82403014016
:102E300041F4807169602068404518D1396811F407
:102E4000702F14D0686840F48010686039684805B5
:102E500005D5686820F4005040F4805068606868C8
:102E6000C10446BFA86820F00600002006E069689B
:102E700021F48011696040684105E9E7A860534684
:102E800000202870216A0FF225308862216A0FF233
:102E90006530C862216A0FF2653008636FF0020086
:102EA000226810604A462068816841F48071816020
:102EB000206800F14C01206AFEF7CBFB2068816896
:102EC00001F46021B1F5602F81680CBF41F4A001CD
:102ED00041F48011816003E00020287000E00126A9
:102EE0003046BDE8F68710B504462168486882067A
:102EF00022D50A6890071FD5A06AC20603D4A06A2B
:102F000040F40070A06200F05AF804BFE0680028A6
:102F10000BD14A6822F020024A60A06A20F4807037
:102F2000A062A06AC10400F050F8204601F0B4F994
:102F300021686FF0120008602168486802062BD5EE
:102F40000A68500728D5A06AC20603D4A06A40F4D4
:102F50000050A062886800F4E040B0F5E04F08D06F
:102F60004868420511D400F02AF804BFE068002840
:102F70000BD14A6822F080024A60A06A20F4805097
:102F8000A062A06AC10500F020F8204601F086F991
:102F900021686FF00C000860206841684A060DD572
:102FA0000068C1070AD5A06A40F48030A0622046BC
:102FB00001F075F921686FF00100086010BD8868A4
:102FC00000F46020B0F5602F704703D4A06A40F091
:102FD0000100A0627047F8B50A46002100F1240301
:102FE00000911C78012C01D10220F2BD01251D7039
:102FF0001F27546815680668072C08D2641E04EB66
:103000008404D6F834C000F05EF8756312E00D2C2D
:1030100008D2E41F04EB8404D6F830C000F053F863
:10302000356307E00D3C04EB8404D6F82CC000F0B7
:103030004AF8F56207271668946805680A2E08D3CF
:103040000A3E06EB4606D5F80CC000F036F8EC60F8
:1030500006E006EB4606D5F810C000F02EF82C610D
:103060001468102C18BF112C23D100683B4CA042CF
:103070001AD13B48046825021BD4056845F40005B5
:1030800005601068102814D1304C36482568B5FB0F
:10309000F0F00A2250430090009800281EBF009ACA
:1030A000521E0092F8D104E00121586840F020003F
:1030B0005860002018700846F2BDB7402CEA070798
:1030C000B4403C437047A7402CEA0707A5403D4366
:1030D000704738B504460020009020688168CA0710
:1030E0002AD481681F4A41F00101816017480168B4
:1030F000B1FBF2F2009202E00098401E00900098AE
:103100000028F9D1FEF754FA054621688868C107FE
:1031100012D4FEF74DFA401B0328F6D304F1240025
:103120000022416841F010014160816841F00101D5
:1031300081600270012032BD002032BD000000001D
:10314000003C0140FDF7E1FFFE0E1FFFA80100203B
:10315000FEF1FFFF0028014004240140002401404B
:103160000824014040420F0038B5044620688168B9
:10317000CA0719D58168490849008160FEF718FA25
:10318000054620688168C8070ED5FEF711FA401B76
:103190000328F6D3A06A40F01000A062E06A40F075
:1031A0000100E062012032BD002032BD416A8A6A1E
:1031B00012F0500F1BD1886A40F4007088620A68D0
:1031C000906800F46020B0F5602F04BFC868002844
:1031D0000AD18A6A22F480728A62886AC20403D49D
:1031E000886A40F001008862084601F055B8096A13
:1031F0000A6B1047406A01F053B80000406A816AC8
:1032000041F040018162C16A41F00401C16201F0F4
:1032100048B8000010B501224FF400417048714CCD
:10322000FEF775FF012240212046FEF770FF0122C4
:1032300000F011F86C48002181700121C17000215B
:10324000418141728174C173642001F02BF8002028
:1032500010BD644C002280212046FEF758BF00F0CC
:103260003CF8002240212046FEF751FF002010BD0F
:1032700070B5044620005A4D5A4E0AD196210020BE
:1032800000F0E6F900F015F8002200F017F800F061
:103290000BF8012C06D100F00CF8012200F00EF81A
:1032A00000F002F8002070BD002240213046FEF7F9
:1032B0002EBF002280213046FEF729BF4FF4004187
:1032C0002846FEF724BF10B5464C0122FFF7C3FF86
:1032D000012200F002F80122C4E74FF40041404807
:1032E000FEF715BF10B5404C2078617809B1B8B130
:1032F00071E03E4AF8B13E480178002904BFD07918
:1033000000283AD100F059F804BFA078002804D171
:10331000E178012932D1012028E000F054F82CE0B6
:10332000217C29B1E07818B901212172607410BDA7
:10333000607C10B34CE0A07888B1E17801291CD101
:10334000D079002802BF2B498878002815D0FFF7D4
:10335000BAFF00210120A1702074A0740DE0207C30
:1033600030B10120A074E17000F02DF8207204E06B
:10337000E078012804BF01212172002010BD10B5A2
:10338000194C217AB9B1A07810B10021217212E054
:1033900000F034F8E178002904BFA07C002802D1B5
:1033A000154B01221A70012903D17821002000F069
:1033B0004FF900202072002010BD207C00B1217444
:1033C000617C0129704700202074012060747047DF
:1033D0000020208210BDFFF776FF012010BD000005
:1033E000000C01400010014000000020940B002060
:1033F000530B0020380B0020490B00200120A07047
:10340000E07835E70022FFE74FF400711748FEF738
:103410007EBE38B5174A164C1078144D80B14FF463
:1034200000512846FEF779FE4FF480512846FEF7FA
:1034300074FE2046BDE834404FF40051FEF76DBEE7
:1034400001224FF400512846FEF761FE00224FF49E
:1034500080512846FEF75BFE2046BDE83840012239
:103460004FF40051FEF753BE00000000000C014075
:10347000001001404A0B00200249487000200870EB
:1034800088707047380B002003480A218180002192
:10349000C1600020704700BF940B00202D49020E30
:1034A0000A70C870020C4A70020A012008768A70FD
:1034B0000020704727494871020A012008760A71E6
:1034C000002070472349887109E02249887206E08C
:1034D0002049087303E01F49487300E01D4901209B
:1034E00008760020704710B51A4C207E88B068B36B
:1034F0005B21D2208DF800108DF801000021012001
:103500008DF802008DF8031018205D218DF804005D
:103510008DF81E10182221460DF1050000F0D2FE94
:103520009DF8010001210DF101028BB2491CD25C12
:1035300050408AB21C2AF6D38DF81D004FF6FF7258
:103540001F21684600F051F80021217608B010BD17
:1035500000000000640B00201CB500680168CA066A
:1035600009D5002000902E4C00F006F8606B016831
:1035700048682C4909E013BD206801680091406843
:1035800000902046009900F053BCC0F500704880C0
:1035900002B0087840F0010001F8040B4FF400720B
:1035A0002046BDE8104000F0FABB80B51C4800F092
:1035B00014F81E4900F0F3FB0022022108E080B558
:1035C000194800F00AF81A4900F0E9FB002204212A
:1035D0001848FEF79CFD002002BD0168CA6842F051
:1035E0001002CA604FF40072704770B504460D4671
:1035F000104E012202213046FEF789FD4FF6FF737F
:103600002A462146064800F071FB044600220221AA
:103610003046FEF77CFD200018BF0124204670BD17
:10362000880A0020D8030020C80A0020DC030020FC
:10363000E00500200010014080B50E4A0001107026
:1036400002230020507098214FF6FF7000900CE08C
:1036500080B5084A0B0943EA0013137009014FF6BD
:10366000FF7351700093982102230348FCF7CCFDAF
:1036700002BD00007E0B00203009002010B502467C
:103680000123107802E0145D60405B1C9CB28C4208
:10369000F9D3C0B210BDF8B51546044628780F46D8
:1036A000C1071E462AD500F0FE002870687900F098
:1036B000F000A02823D1387D06281FDA28795B285E
:1036C00004BF6A7A5D2A19D10321681DFFF7D6FF6E
:1036D000297A884212D1397D68797854791D3A7DEA
:1036E000A879885407F10A013A7DE87988540120C5
:1036F000397D3944C873387D401C387599E0607A4B
:103700000028FBD1207AA28890422ED268B30027ED
:1037100068888742F2DA281D227AC05D711D8854BC
:10372000217AA088491C2172C9B288421AD1691D28
:10373000C95DA170A91DC95D5D2976D1C01DE0805C
:10374000C11E89B2701CFFF799FFA17881426CD12C
:10375000227A711D8854B11D227A5D208854E6605A
:10376000012060727F1CBFB2D2E7E088002860D1E0
:1037700029795B295ED168792070A8796070297AEF
:10378000E87901EB0021A180A088A8B9A97A5D2978
:1037900050D1687AA07004210720E0805B2030704F
:1037A00000F049F8701CFFF769FFA17881422CD125
:1037B0005D20B071717135E0052701E07F1CBFB25B
:1037C0006888874235DA281DC05DF055A188207AC7
:1037D000401CC2B291422072F0D105F10A01C0B280
:1037E000085C5D2803D00021A1802172E180681D62
:1037F000C05DA070A088C01DE080C11E89B2681D98
:10380000FFF73CFFA178814202D00020E080F2BDAA
:103810005B203070711C00F00EF8A078C855B11C08
:103820005D20C8550120607203E000202072A08056
:10383000EBE70020F2BD207870706078B070E87916
:10384000F070287A307170477348744A00F12C0385
:1038500000F114011FE7F8B56F49487A00220028EB
:1038600000F0918000256E4BE8B2185C002800F053
:103870008C806D1CE8B21028F6DB8AE00E78694C6B
:103880006019FF2706F0F00CBCF1B00F0CD0BCF1B2
:10389000C00F1FD0BCF1D00F2DD0BCF1E00F46D02F
:1038A000BCF1F00F45D052E0AB27B22E077011D11A
:1038B0004E78012E02D0AC25057034E00227077443
:1038C00080F85060012008744D745855187C401CD5
:1038D000187440E0AC27C12E077002D1012606748F
:1038E0001DE0C22E01D1022602E0C32E1BD1032609
:1038F0000674012613E0AD27D02E077013D1027491
:103900004E78012E08D0022E08BF80F8206006D025
:10391000032E18BF042E06D180F8206002265E55C3
:103920001D7C6D1C1D74012680F8506010E0AE26D1
:1039300000E0AF2606700774012680F8202080F88A
:10394000506002205855187C401C187400E0042276
:10395000087C012814D1344E4D7C307858B90127A9
:103960000020377237747074F07020342F4E377027
:103970005E5DA05502E020340120605502205855BC
:103980000020088148601046F2BDEDB2FF2D7FF4A3
:1039900075AF0020F2BDFEB5214D287C002839D03E
:1039A0005B215D208DF800108DF8050000274FF693
:1039B000FF76E85D02282AD11A49CC1921788DF8C2
:1039C00001100321207C8DF8020094F820008DF86E
:1039D00003000DF10100FFF751FE8DF8040094F88B
:1039E0005000012807D1002184F8501032460621EA
:1039F0006846FFF7FAFD94F85000022804BF002142
:103A000084F850100020E855287C411E29747F1C42
:103A1000102FCEDB0020FEBDAC010020D80300201B
:103A2000800B002068080020000000204A0B0020C6
:103A30002DE9FC410646354D3078C10750D5A869BF
:103A40000024C10009D4A86940F08050A861012475
:103A5000A86900F08050009000982D4F3968C80583
:103A600017D4386840F480703860FDF7A1FD8046B7
:103A70003968C8050DD4FDF79BFDA0EB080065284B
:103A8000F6D303203FE0FDF793FDC01B404519D35B
:103A9000F7E7E86910F440701EBF716801F44071E7
:103AA000884212D01B49E86901220A6020F4407064
:103AB00000220A60E861C00707D5FDF779FD0746D7
:103AC00041F28938E8698107DDD5E969706821F438
:103AD00040710143E9611CB1A86920F08050A861E0
:103AE0003178880705D52A68B06822F4404202433D
:103AF0002A603078C10605D52968706921F48001F3
:103B0000014329600020BDE8F68100000410024056
:103B1000007000404004424280B52048016841F0F6
:103B200001010160006800F001000090009803208E
:103B3000FEF7AFFE002200216FF00B00FEF7B6FE8D
:103B4000002200216FF00A00FEF7B0FE00220021E3
:103B50006FF00900FEF7AAFE002200216FF00400BA
:103B6000FEF7A4FE002200216FF00300FEF79EFE88
:103B7000002200216FF00100FEF798FE00220021D4
:103B80004FF0FF30FEF792FE0548016821F0E0613A
:103B90000160026842F00072026001BD181002402C
:103BA0000400014010B5040001D1012010BD002027
:103BB000A06294F8510010B92046FEF753FC022190
:103BC00084F851102068016821F0400101606268AA
:103BD000A068A1690243E06802432069024360696A
:103BE000024301F40071E0690A430243206A024380
:103BF000A06A024320680260A169606A090C01F0B2
:103C000004010143206841602068E16A0161206885
:103C1000C16921F40061C16100206065012084F860
:103C20005100002010BD000030B500F13C031A78AF
:103C3000012A01D1022030BD01241C7002225A70D9
:103C40000268546824F070045460046865680A6867
:103C5000154365600268946824F0800494600268EB
:103C600094684868044394600120587000201870DC
:103C700030BD000038B5040001D1012032BD00F094
:103C800022F808B900F023F800F013F800F024F847
:103C9000FFE7416100F001F832BD2068C16841F4DE
:103CA0000051C1600020686020206870A87000206A
:103CB0007047242068702068C16821F40051C160F9
:103CC000204600F06EBA04F138056878704700218C
:103CD00029702046FEF724BD2068016921F4904137
:103CE00001612068416921F02A0170472DE9F843FC
:103CF000054605F138070C46787820281646984680
:103D00003CD1002C14BF002E012038D03878012877
:103D100034D0012139702120002179607870FDF7BD
:103D200047FCAE848146EE8403E0296814F8010B59
:103D30004860E88C28B3E98C481EE8844B46A868A4
:103D4000CDF80080B0F5805F0DD100F024F870B997
:103D500020882968C0F3080048602869002814BF3B
:103D6000641CA41CE5E700F016F80028DDD0032051
:103D700005E0202078700020387000E00220BDE8C7
:103D8000F283CDF800804B460022402100F005F878
:103D90000028EED0EBE700228021284667E138B505
:103DA000044604F138051346A87820283ED109B10D
:103DB000180001D1012032BD2878012836D0012217
:103DC0002A70A162A385002068602220A870626B1F
:103DD0000FF211209062626B0FF24120D062626B91
:103DE0000FF2412010630020626B50630A46206886
:103DF000011D606BFDF72DFC00200090206801681C
:103E0000009142680092002200992A70C26842F430
:103E10008072C2602068416941F0010141612068FF
:103E2000416941F040014161002032BD022032BDB4
:103E300038B5044604F13905206841692A78212AF9
:103E400009D1090607D500F017F808B1FDF73BFCCA
:103E5000204600F03EF9206841696A78222A09D19B
:103E6000490607D500F00EF808B1FDF72CFC2046F6
:103E700000F038F9002032BD416921F08001416134
:103E8000206B7047416921F040014161606B7047D0
:103E900038B5044625682968EA686B6911F00F0097
:103EA00007D188065DD590065BD52046BDE8324037
:103EB0002CE1D80702D412F4907F52D0C80705D560
:103EC000D00503D5E06B40F00100E063480705D55D
:103ED000D80703D5E06B40F00200E063880705D502
:103EE000D80703D5E06B40F00400E063080705D570
:103EF000D80703D5E06B40F00800E063E06B0028D2
:103F00006ED0890604D5900644BF204600F0FEF826
:103F100020684069E16B0A0701D440061BD52046A2
:103F200000F0E0F8206841694A060FD5FFF7AAFFC4
:103F300060B10FF2CD114163606BFDF7DDFB00282E
:103F40004ED0606B416BBDE8344008472046BDE869
:103F5000324000F00ABA204600F007FA0020E06381
:103F600031BD08062CD510062AD594F83900212831
:103F700036D1A168206AB1F5805F0DD10188C1F307
:103F800008016960206918B9216A881C206207E06D
:103F9000206A411C216203E0411C216200786860B4
:103FA000E08C401EE08480B2D0B92068C16821F066
:103FB0008001C1602068C16841F04001C16031BD2D
:103FC00048060DD550060BD5E86820F04000E860A3
:103FD000202184F839102046BDE8324000F0C6B9EF
:103FE00031BD0000416A00680268930613D40020C6
:103FF000C8850868C26822F48072C2600868426995
:104000005208520042610868426922F0400242614F
:10401000202081F83A00084600F0A9B9406A00F073
:10402000A7B9000038B5446A2068406904F1390531
:104030002978212906D1000604D50020E0842046F5
:1040400000F047F8206840696978222906D14006C7
:1040500004D50020E085204600F044F8E06B40F0F5
:104060001000E0632046BDE8324000F07EB92DE943
:10407000F041069C05460E4690461F46286801689A
:104080003140B1420CBF01200020404517D114F14E
:10409000010FF3D024B1FDF78BFAC01B8442EDD29F
:1040A0002868C16821F4D07100F00CF805F13800DF
:1040B00020214170817000210170032000E0002068
:1040C000BDE8F081C1602868416949084900416143
:1040D00070470168CA6822F0C002CA60202180F8D7
:1040E000391070470168CA6822F49072CA6001688A
:1040F0004A69520852004A61202180F83A107047FC
:10410000406A0021C185C18400F02FB980B590F8C4
:104110003A10222943D18268B2F5805F14D1826AB5
:10412000016941B903685968C1F308011180826AC5
:10413000911C816218E001684B6803F0FF03138053
:10414000816A4A1C82620FE001690029816A04D1F8
:104150004A1C82620268536805E04A1C8262026857
:10416000536803F07F030B70C18D491EC18589B26E
:1041700099B90168CA6822F02002CA600168CA6859
:1041800022F48072CA6001684A69520852004A618A
:10419000202180F83A1000F0EAF8002002BD022049
:1041A00002BD2DE9F0470446642521680A69E068EC
:1041B00022F4405202430A611926CA68314802407B
:1041C000A06802432069024360690243CA604A69E9
:1041D000A06922F4407202432B484A6181420ED109
:1041E000FDF7BBF90746FDF7B8F98046FDF7B5F9CD
:1041F0008146FDF7B2F98246FDF7AFF90DE0FDF714
:10420000A4F90746FDF7A1F98046FDF79EF981461E
:10421000FDF79BF98246FDF798F906FB09F96168FD
:1042200089007743B7FBF1F206FB08F7B7FBF1F320
:10423000B9FBF1F7B7FBF5F705FB17331B01323379
:10424000B3FBF5F3B2FBF5F203F0F00303EB02135B
:1042500006FB0AF74643B7FBF1F2B6FBF1F0642127
:10426000B0FBF1F005FB10252D0132356420B5FBC4
:10427000F0F0216800F00F00C3188B60BDE8F087F4
:1042800000000000F3E9FFFF00380140704770476D
:10429000704770477047704770470000704770471D
:1042A0007047704731B5FDF783F9009D15F1010F97
:1042B000044618BF6D1CFDF77BF9001BA842FAD31A
:1042C00031BD000062B38B0708D0521E11F8013BCC
:1042D00000F8013B00F024808B07F6D1830740F003
:1042E000208000BF103A07D330B4B1E83810103A3C
:1042F000A0E83810F9D230BC530724BFB1E8081049
:10430000A0E8081044BF51F8043B40F8043BD20732
:1043100024BF31F8022B20F8022B44BF0B78037026
:104320007047121F17D35B0009D151F8043B20F8E6
:10433000023B1B0C121F20F8023BF6D20BE051F897
:10434000043B00F8013B1B0A20F8023B1B0C121F28
:1043500000F8013BF3D238BF121D521E24BF11F8E2
:10436000013B00F8013BF8D8704770477047704731
:104370007047000038B5044620684168826802F042
:104380004103012B06D14D0604D5216C2046BDE822
:1043900034400847930706D50B0604D5616C2046C8
:1043A000BDE83440084712F0600F50D08B064ED560
:1043B00053060ED594F85130032B3BD0656D45F074
:1043C0000405656500230093C56800958368009324
:1043D000009D92060CD5626D42F0010262650023D9
:1043E000009382680092036823F040030360009802
:1043F000606D60B32068426822F0E00242600120F4
:1044000011F0030F84F851001CD020680FF2410511
:104410004168890889004160E06C18B14563E06C2F
:10442000FDF76AF9A06C90B14563A06CBDE832401D
:10443000FDF762B900210091C26800928068009087
:10444000009931BD2046BDE8324000F007B831BDCB
:10445000406A0021C187C18600F000B870470000A3
:104460007047FEE7FEE7FEE7FEE7704770477047DC
:1044700080B500F045F8BDE80140FEF76BBA15487D
:10448000FDF7A8B91448FDF7A5B91448FDF7A2B97E
:104490001348FEF728BD1348FEF78ABA1248FBF707
:1044A00086BF1148FCF79CB81048FFF763BF10B5F2
:1044B0000F4C01E010B50F4C2046FFF74DF8204699
:1044C000BDE81040FFF7E4BC0B48FEF771BA0B489B
:1044D000FEF76EBA84090020E007002024080020BF
:1044E000080B0020C809002030090020D80800204F
:1044F000880A0020C80A0020080A0020480A002074
:1045000002480168491C0160704700BFA40B0020ED
:104510000E49086840F0010008604A680C480240F3
:104520004A600B680B4803400B60086820F4802049
:1045300008604FF41F004A6822F4FE024A60886057
:104540004FF000600449086070470000001002400E
:104550000000FFF8FFFFF6FE08ED00E0000000009D
:1045600000000000010203040607080919E050F8E2
:10457000042BD30744BFA9F101039A18091F002394
:10458000042942F8043BF9D25FEA817C134604D542
:104590004FF0000CA2F800C09B1CC90744BF0021CB
:1045A000197050F8041B0029E1D1704730B501683B
:1045B00084684218416802EB5103C9070BD54C448B
:1045C00009E012F9011B12F8015B002904F8015BF4
:1045D00005D5491CF9D19A42F3D10C3030BD491EA2
:1045E000F1D5F8E710B5074979441831064C7C44F9
:1045F000163404E00A68081D114488470146A142A8
:10460000F8D110BD080000002400000061FFFFFF8A
:10461000FC090000AC0100200000000091FFFFFF3A
:1046200038010000760200000000002000F00DF8C4
:10463000002801D0FFF7D6FFAFF300800020AFF3D2
:104640000080FDF7D7F900F002F80120704700F074
:1046500001B800000746384600F002F8FBE700000A
:1046600080B5AFF30080024A11001820ABBEFBE713
:104670002600020001488047014800471145000814
:1046800085460008AFF30080AFF30080FFF7CEFF50
:104690000000000001020304FFF7FEBFFFF7FEBFAA
:1046A000FFF7FEBFFFF7FEBFFFF7FEBFFFF7FEBF3E
:1046B000FFF7FEBFFFF7FEBFFFF7FEBFFFF7FEBF2E
:1046C000FFF7FEBFFFF7FEBFFFF7FEBFFFF7FEBF1E
:1046D000FFF7FEBFFFF7FEBFFFF7FEBFFFF7FEBF0E
:1046E000FFF7FEBFFFF7FEBFFFF7FEBFFFF7FEBFFE
:1046F000FFF7FEBFFFF7FEBFFFF7FEBFFFF7FEBFEE
:10470000FFF7FEBFFFF7FEBFFFF7FEBFFFF7FEBFDD
:10471000FFF7FEBFFFF7FEBFFFF7FEBFFFF7FEBFCD
:10472000FFF7FEBFFFF7FEBFFFF7FEBFFFF7FEBFBD
:10473000FFF7FEBFFFF7FEBFFFF7FEBFFFF7FEBFAD
:10474000FFF7FEBFFFF7FEBFFFF7FEBFFFF7FEBF9D
:10475000FFF7FEBFFFF7FEBFE40000FFD1007E2F92
:1047600034383B3E40434547494B4D4F50525355DB
:104770005658595B5C5D5E60616263646667686938
:104780006A6B6C6D6E6F7071727374757676777814
:10479000797A7B7C7C7D7E7F808181828384848525
:1047A00086878788898A8A8B8C8D8D8E8F8F909152
:1047B000919293939495959697979899999A9A9B95
:1047C0009C9C9D9E9E9F9FA0A1A1A2A2A3A4A4A5E4
:1047D000A5A6A6A7A8A8A9A9AAAAABABACAD14ADDB
:1047E000AEAEAFAFB0B0B1B1B2B2B3B3B4B4B5B5B1
:1047F000B6B6B7B7FDB87EB7B7B6B6B5B5B4B4B34D
:10480000B3B2B2B1B1B0B0AFAFAEAEADADACABABB9
:10481000AAAAA9A9A8A8A7A6A6A5A5A4A4A3A2A236
:10482000A1A1A09F9F9E9E9D9C9C9B9A9A999998BE
:104830009797969595949393929191908F8F8E8D53
:104840008D8C8B8A8A8988878786858484838281F8
:1048500081807F7E7D7C7C7B7A79787776767574B3
:10486000737271706F6E6D6C6B6A69686766646392
:104870006261605E5D5C155B595856555352504FEE
:104880004D4B49474543403E3B38342F23CF000230
:03489000A24A0435
:040000050800468524
:00000001FF
