:020000040800F2
:1000000000C00020ED840008953C0008A13C0008D9
:10001000A73C0008AD3C0008B33C0008000000000D
:10002000000000000000000000000000B93C0008D3
:10003000C53C000800000000D13C0008DD3C000881
:1000400035850008358500083585000835850008A8
:100050003585000835850008358500083585000898
:10006000358500083585000835850008ED3C000819
:10007000358500083585000835850008013D0008F4
:10008000153D000835850008293D00083585000824
:100090003585000835850008358500083585000858
:1000A0003585000835850008358500083585000848
:1000B00035850008358500083D3D00083585000878
:1000C00035850008513D0008653D0008793D000870
:1000D000358500088D3D0008A13D000835850008E4
:1000E0003585000835850008358500083585000808
:1000F00035850008358500083585000835850008F8
:100100003585000835850008B53D000835850008AF
:1001100035850008358500083585000835850008D7
:1001200035850008358500083585000835850008C7
:1001300000000000000000000000000000000000BF
:1001400000000000000000000000000000000000AF
:10015000000000000000000000000000000000009F
:10016000000000000000000000000000000000008F
:10017000000000000000000000000000000000007F
:10018000000000000000000000000000000000006F
:10019000000000000000000000000000000000005F
:1001A000000000000000000000000000000000004F
:1001B000000000000000000000000000000000003F
:1001C000000000000000000000000000000000002F
:1001D000000000000000000000000000000000001F
:0401E0005FF8E0F1F3
:1001E8000348044B834202D0034B03B118477047BE
:1001F800D4010020D4010020000000000548064971
:10020800091A891001EBD171491002D0034B03B1CF
:1002180018477047D4010020D401002000000000D6
:1002280010B5064C237843B9FFF7DAFF044B13B136
:100238000448AFF300800123237010BDD4010020CF
:10024800000000005088000808B5044B1BB10449A1
:100258000448AFF30080BDE80840CFE70000000085
:10026800D80100205088000870B50D4E0D4D761B42
:10027800B61006D00024013455F8043B9847A6422E
:10028800F9D1094E094D08F0D3FA761BB61006D0FD
:100298000024013455F8043B9847A642F9D170BDB3
:1002A80050880008508800085488000850880008C2
:1002B800F0B4860743D0541E002A3ED0CAB2034683
:1002C80002E014F1FF3438D303F8012B9D07F8D16D
:1002D800032C2BD9CDB245EA05250F2C45EA054557
:1002E80016D9A4F110073F0903F1200606EB0716FB
:1002F80003F1100242E9045542E902551032B242B4
:10030800F8D104F00F040137032C03EB07130DD9C0
:100318001E462246043A032A46F8045BFAD8221FEE
:1003280022F003020432134404F003042CB1C9B2CE
:100338001C4403F8011B9C42FBD1F0BC70471446D7
:100348000346C5E72DE9F047002B88B01E46DDE9D6
:1003580013A49046109D51DB0023129A1370662C4B
:100368001BD0462C19D0022124F02003452B08BFAE
:10037800013507AFCDE9001506A9CDE903174246B7
:100388003346CDF808A000F0DDFD672C074649D1BB
:10039800119BDB072ED53D4414E0032107AF0091E4
:1003A80006A93346CDE903174246CDE9015A00F0C4
:1003B800C9FD07463B7800EB0509302B25D0DAF854
:1003C80000504D44404631460022002302F0B4FF5D
:1003D80090B9079B9D4206D930215A1C0792197083
:1003E800079BAB42F9D33846159ADB1B136008B05C
:1003F800BDE8F087079BF6E72B46F4E72D2103F1CC
:1004080000431E46129B1970A9E740463146002258
:10041800002302F091FF0028D1D1C5F10105CAF8E7
:100428000050CEE7472CB3D03D44CBE70029F0B4C9
:10043800B4BF2D232B230546B8BF4942092905F827
:10044800022B82B043702BDD0DF107063446194F9D
:1004580000E01C46A7FB0132D20802EB8203A1EBA5
:1004680043033033092A04F8013C114604F1FF33F1
:10047800EFDC3031023CC9B2A64203F8011C0BD9AB
:100488001A462C4601E012F8011B964204F8011B9B
:10049800F9D102AAD31A1D44281A02B0F0BC704739
:1004A8003023051D1944C1708370281A02B0F0BCAE
:1004B800704700BFCDCCCCCC2DE9F04F91B00C46A5
:1004C800DDF868B016461F46054601F069FC03686A
:1004D80018460A9300F074FC0023DBF80010226829
:1004E80007310B9009920E9321F00701D1F8008093
:1004F800D1F8049042464B46083194F818A0CBF83E
:10050800001029F0004BC4E91223404659464FF029
:10051800FF32B44B02F042FF002854D140465946FE
:100528004FF0FF32AF4B02F01BFF00284BD1404683
:1005380049460022002302F009FF002840F092807B
:10054800099BA94A23F004032360A84B0321BAF1AD
:10055800470F8CBF904698464FF0000921610097DD
:1005680033460FAA2146284600F05AFA013025D012
:100578002368580500F1D28042462369314628464F
:10058800B84701301AD0226892070F98E36863D5FC
:100598001A1A002A60DD4FF0000804F1190904E076
:1005A800E3680F981A1A424556DD01234A46314638
:1005B8002846B847013008F10108F1D14FF0FF3063
:1005C80011B0BDE8F08F424640464B46494602F01E
:1005D800E5FE002876D1099B606843F48061431CDE
:1005E80000F09980BAF1670F40D0BAF1470F3DD0BB
:1005F8004FF0000C216042460DF1380E01910DF1CB
:1006080034080DF133014B460090CDE90218CDF8BE
:1006180010A0CDE905EC2846FFF794FE80460D9B17
:10062800BAF1650F65D9BAF1660F00F0B0800E9A7D
:100638009A4200F3B68022682361D20701D55A1C7A
:1006480022614FF00009A3659DF83330002B86D056
:100658002D2384F8433082E79842B8BF184611B07A
:10066800BDE8F08F2D2384F8433069E7002840F077
:10067800A0800123184663604FF0000C21604246B9
:100688000DF1380E01910DF134080DF133014B468F
:100698000090CDE90218CDF810A0CDE905EC284668
:1006A800FFF750FEBAF1670F80460D9B02D0BAF1F2
:1006B800470FB5D1D91C15DB62689A4212DB4FF09F
:1006C800670AB4E70321099B494A23F0040323601E
:1006D800484B2161BAF1470F8CBF904698464FF0BE
:1006E80000093CE7AAF1020A5FFA8AFABAF1650F33
:1006F80099D8013B1946524604F150000D93FFF773
:1007080095FE0E9A81461318012A236140F3A980A9
:100718000133236198E706206060ADE7BAF1650F01
:100728006CD9D4E912010022002302F005FE00284A
:1007380000F0A4800123304A31462846B8470130EA
:100748003FF43CAFDDE90D239A4280F2D980DDE920
:100758000A2331462846B84701303FF42FAF0E9B95
:10076800012B7FF710AF4FF0000804F11A0904E0DD
:100778000E9B013B43457FF706AF01234A463146AE
:100788002846B847013008F10108F1D116E7002BD7
:1007980062686BDD2361002A5ED001321A4422614F
:1007A8004FE7002BCCBF0121C3F102010A442261AB
:1007B80047E74FF0000C216042460DF1380E0191D9
:1007C8000DF134080DF133014B460090CDE90218C4
:1007D800CDF810A0CDE905EC2846FFF7B3FD0D9B39
:1007E800804667E7FFFFEF7FE0870008DC870008A7
:1007F800E8870008E4870008EC8700080E9A012AB9
:1008080040F383800123424631462846B8470130E9
:100818003FF4D4AEDDE90A2331462846B847013013
:1008280008F101083FF4CAAED4E91201DDF838A096
:10083800002200230AF1FF3B02F07EFD002849D187
:100848005B46424631462846B84701303FF4B6AECB
:100858004B4604F1500291E62168C8077FF5F1AED6
:100868009BE72268D2077FF5EFAE51E722B92168EE
:10087800C90701D401229AE7023298E70D9B002BA1
:100888004CDC0123654A31462846B84701303FF41D
:1008980095AE0D9B002B70D0DDE90A233146284622
:1008A800B84701303FF48AAE0D9B002B33DA4FF086
:1008B800000904F11A0A03E00D9B5B424B452ADD4F
:1008C8000123524631462846B847013009F101094B
:1008D800F2D173E6BAF1010FBADD4FF0000804F166
:1008E8001A0A03E00E9B013B4345B1DD0123524642
:1008F80031462846B847013008F10108F2D15DE6D3
:100908002268D1077FF540AE21E7D9073FF57AAFD6
:100918004246012396E742460E9B2FE60E9AA36DA8
:100928009A42A8BF1A46002A924608DD1346314665
:1009380042462846B84701303FF440AEA36D2AEA44
:10094800EA7211469A1A002A994621DD04F11A0B17
:10095800C1464FF0000AA0460C4604E0D8F85830CB
:100968001A1B524511DD01235A4631462846B8471D
:1009780001300AF1010AF1D120E60E9B002B8BD140
:100988002268D3077FF500AE86E74446C8469946F5
:10099800DDE90D239A42C8443BDADDE90A233146F2
:1009A8002846B84701303FF409AEDDE90D23A3EB33
:1009B8000909991A8945A8BF8946B9F1000F09DDC7
:1009C80042464B4631462846B84701303FF4F6AD1B
:1009D800DDE90D2329EAE9789B1AA3EB0803002B2C
:1009E8007FF7D1AD4FF0000904F11A0A07E0DDE9FD
:1009F8000D239B1AA3EB08034B457FF7C4AD0123D6
:100A0800524631462846B847013009F10109EED16E
:100A1800D4E52168C807C0D4C9E700BFEC8700083F
:100A28002DE9F0470C460969A56891468D42B8BF83
:100A38000D46156094F8431006461F46DDF82080E1
:100A480011B16A1CC9F80020236899065FD5D9F846
:100A580000200232C9F80020236813F0060F194657
:100A68001DD1E1688A1A002AD8BF194617DD00256A
:100A780004F1190A05E0E368D9F800209B1AAB4293
:100A88000CDD0123524639463046C047013005F196
:100A98000105F0D14FF0FF30BDE8F087216894F8E8
:100AA8004330003318BF01238A060AD53021E218E3
:100AB80082F8431094F845105A1C224482F84310D7
:100AC800023304F1430239463046C0470130E1D0D1
:100AD800D4E902202368D9F8005003F00603042B58
:100AE80021691AD08A421FDD4FF00009521A914439
:100AF80000251A3401E04D4516D001232246394617
:100B08003046C047013005F10105F4D1C2E713F0C2
:100B1800060F0CD1D9F80020A3E7401B8A4220EA2F
:100B2800E079E3DC0028E3DC0020BDE8F08794F8F6
:100B38004330003318BF0123C3E700BF2DE9F0435A
:100B48000C46097E85B06E2906461746984604F17C
:100B5800430C0C9D4AD00FD8632900F0FE8000F2A8
:100B6800BE8000294ED0582940F0E08084F8451016
:100B78002268DFF844E212E0732900F0C5807AD8D1
:100B88006F2900F0DA80702940F0D080206840F0AA
:100B9800200222607823DFF824E284F845302B68AD
:100BA800191D1B682960150602D4500648BF9BB260
:100BB800D10744BF42F020022260002B6CD1D4E957
:100BC800001284F84330002A21F020032360A26039
:100BD8007DDB21F0240121601021002A78D16546AF
:100BE80008294ED0ACEB050323610EE02B68226880
:100BF800181D6169286015061B6802D4500600F1AB
:100C0800C6801960002365462361CDF800803B4605
:100C180003AA21463046FFF703FF013020D02A46B9
:100C2800236939463046C047013019D022680398F5
:100C38009207E36819D51A1A002A16DD002504F16F
:100C4800190904E0E36803981A1AAA420DDD012382
:100C58004A4639463046C047013005F10105F1D111
:100C68004FF0FF3005B0BDE8F0839842B8BF184692
:100C780005B0BDE8F08375295FD0782956D1226880
:100C880088E72368DB07ADD5626823699A42A9DC47
:100C98003023013D2B70A5E71021002284F8432062
:100CA8006268002AA2602CDB206820F00400206023
:100CB800002B92D06546B3FBF1F201FB12331EF80C
:100CC8000300134605F8010D002AF4D188E7102126
:100CD8009EF8003004F1420584F8423080E7642928
:100CE80001D0692922D120682B68010603F104028A
:100CF80045D51B682A60002B4BDB0A21DFF8B8E0DA
:100D0800CEE7002BD6D1E3E72B686268191D29606E
:100D18001D680021284601F06FF8002845D0401BC7
:100D280060602061002384F843306EE7012384F873
:100D38004210236104F14205F4E720682B6810F0A3
:100D4800800F03F1040213D01B682A606F290CBFBF
:100D580008210A21DFF860E09FE701222B68191DAE
:100D68001B68296004F1420584F842302261D9E702
:100D7800400653BF1B682A601B882A60E6E74106C5
:100D880053BF1B682A60B3F900302A60B3E71980A3
:100D980038E72D2162685B42002A84F84310A2607C
:100DA80005DB0A21DFF810E07FE76068B9E7DFF8C4
:100DB80008E00A217EE700BFF087000804880008E1
:100DC80020F0030110F00300C0F1000051F8043BCB
:100DD80000F1040C4FEACC0C6FF000021CBF22FAA1
:100DE8000CF213434FF0010C4CEA0C2C4CEA0C4C5F
:100DF800A3EB0C0222EA030212EACC1204BF51F858
:100E0800043B0430F4D0C2F1000102EA0102B2FA54
:100E180082F2C2F11F0200EBD2007047000000000E
:100E28002DE9F04F03690E6983B0B342C0F28680A2
:100E3800013E01F1140800F1140958F8263059F858
:100E480026700133B7FBF3F7B300009308EB030AEE
:100E58004B440193002F3BD00023C6461C46CC468A
:100E68005EF8042BDCF800501FFA82FB07FB0B33FB
:100E7800120C4FEA134B07FB02BB9AB2A21AABB291
:100E88001FFA8BF41A44C4EB154404EB224492B2C3
:100E980042EA0442F2454CF8042B4FEA24444FEA54
:100EA8001B43DDD2009B59F803308BB9019A131FFD
:100EB80099450CD252F8043C4BB9A2F1080302E060
:100EC8001A68043B1AB9994506F1FF36F8D306614A
:100ED800044601F0DFFA00282CDB4D4600230137D9
:100EE80058F8041B28688AB29A1A0B0C81B20A4473
:100EF800C3EB104303EB224392B242EA0342C245DA
:100F080045F8042B4FEA2343EAD259F8262009EB87
:100F180086037AB91A1F91450BD253F8042C42B9AB
:100F2800083B02E01A68043B1AB9994506F1FF36F6
:100F3800F8D32661384603B0BDE8F08F002003B02F
:100F4800BDE8F08F2DE9F04F16461F46456A99B067
:100F58000446CDE90267002D00F0EF802B6853B1FD
:100F680001226D681946AA40C3E9015201F034F81C
:100F78000022636A1A603E1EB4BF01230023259A2B
:100F8800B8BF26F000461360794BB8BF0396B34349
:100F980000F0A680DDE90289002200234046494688
:100FA80002F0CAF9074678B10123249A1360269BF8
:100FB800002B00F0CB806F4B269A03F1FF391360AA
:100FC800484619B0BDE8F08F16AA17ABCDE9003234
:100FD800204642464B4601F07BFB350D834640F0E8
:100FE8009F80DDE91685454405F23243202B40F306
:100FF8005184C3F140039E40029B05F2124023FA3C
:1010080000F0304301F0B6FE0122013D0A92A1F141
:10101800F8710022584B01F06FFD4FA3D3E900236C
:1010280001F022FF4EA3D3E9002301F067FD064635
:1010380028460F4601F0AEFE4BA3D3E9002301F08A
:1010480013FF02460B463046394601F057FD064667
:101058000F4602F0B9F900220590002330463946C0
:1010680002F074F9002840F08282059E162E00F2E4
:101078006C82DDE90223414901EBC601D1E9000197
:1010880002F082F9002800F00C84731E05930023F7
:101098000D93A8EB0505B5F1010A00F16282002362
:1010A8000693059B002BC0F253829A440C930023AD
:1010B8000B93229B092B69D8052BC4BF043B2293B1
:1010C800229BC8BF0026A3F10203D8BF0126032B29
:1010D80000F2A684DFE813F00804E80313040B0504
:1010E80042F20F73249A1360029B83B9C6F3130666
:1010F8006EB9269BDFF88890002B3FF461AF09F1A9
:1011080008034846269A136019B0BDE8F08F269B5D
:10111800DFF87090002B3FF453AF09F10303F0E7B9
:10112800C9F3130343F07F514046A5F2FF350A97F0
:1011380041F44011DDF858806BE7102000F04CFEB8
:101148006062C0E901550560C56014E7DFF83890B2
:10115800484619B0BDE8F08F61436F63A787D23F57
:10116800B3C8608B288AC63FFB799F501344D33F8E
:101178000000F07FED8700080000F83FA885000810
:101188001888000824880008EC8700084FF0FF350D
:1011980001260023CDE908562293239300231946FC
:1011A800676A14957B60204600F0E2FE636A0E2DA4
:1011B8003860D3F8009000F2FC80002E00F0F9802F
:1011C800DDE9022316461F460599CDE90E67002979
:1011D80040F3E6839A4B01F00F020D1103EBC203B3
:1011E800D3E90012CDE90212EA0640F19E84954B3C
:1011F8003946D3E90823304601F060FF0327CDE9DB
:10120800100105F00F057DB1DDE902018D4EEB07F8
:1012180004D5D6E9002301F027FE01376D1006F149
:101228000806F4D1CDE90201DDE90223DDE9100168
:1012380001F044FFCDE902010D9B43B1DDE9020154
:101248000022814B02F082F8002840F007853846DA
:1012580001F0A0FDDDE9022301F006FE7B4B002230
:1012680001F04CFC089B0546A1F15076002B00F0DC
:101278001784059B1593089B1093DDE9020102F082
:10128800A3F8109A6E4B00F1300803EBC20353E940
:101298000212CDE9121201F07DFD0B460246DDE98E
:1012A8000201CDE9025601F027FC099B5FFA88F894
:1012B80006460F4609F10105002B00F05784DDE9C9
:1012C80012230020624901F0F9FEDDE9022301F052
:1012D80013FC89F8008032463B46CDE9020102F052
:1012E80053F8002840F00C8532463B46002056490A
:1012F80001F002FCDDE9022302F028F8002840F0A2
:101308000985109A012A50D04A44CDF848A0CDF852
:1013180040B0A046DDE902ABCDF8089091460EE05A
:1013280032463B460020484901F0E6FB52465B4600
:1013380002F00CF8002840F0E6844D452ED05046C7
:1013480059460022434B01F08FFD0022414B824653
:101358008B463046394601F087FD0F46064602F0B7
:1013680033F8044601F016FD02460B46304639466E
:1013780001F0C2FB3034E4B205F8014B52465B463B
:1013880006460F4601F0E2FF0028C9D0159BDDF89C
:1013980040B0DDF808904446059339E24446DDF84C
:1013A80048A0DDF840B0DDF80890DDE90E23CDE96E
:1013B8000223179B002BC0F2A980059A0E2A00F37E
:1013C800A5801F4B03EBC203D3E90023CDE9062315
:1013D800239B002BC0F2C082DDE90267DDE906230A
:1013E8003046394601F06AFE01F0EEFF804601F012
:1013F800D1FCDDE9062301F037FD02460B463046F5
:10140800394601F079FB089E08F13005012E89F86C
:10141800005002460B4609F101054CD000220D4B45
:1014280001F022FD0022002306460F4601F084FF4A
:10143800002840F0ED81CDF808B0DDE906AB18E0F2
:10144800A8850008988600080000F03F00001C40AE
:101458000000E03F000024400022C64B01F004FDDC
:101468000022002306460F4601F066FF002840F0E0
:10147800418352465B463046394601F01FFE01F073
:10148800A3FF804601F086FC52465B4601F0ECFC67
:1014980002460B463046394601F02EFB08F130066D
:1014A80005F8016B089FA5EB0906B74202460B46F3
:1014B800D2D1DDF808B01046194601F01FFBDDE96E
:1014C800062306460F4601F05FFF60B9DDE90623F3
:1014D8003046394601F030FF002800F0998118F0B5
:1014E800010F00F0958115F8018C05E0994500F091
:1014F8007D831D4613F8018CB8F1390F05F1FF33D0
:10150800F4D008F1010883F8008081E1099A002AE3
:101518003DD0229A012A40F31182089B03F1FF383B
:101528000B9B4345C0F2E982A3EB0808089B002BFC
:10153800C0F20E83069A9A440A921A44069201212E
:10154800204600F03FFE064626E001230D93A0E565
:1015580000230C93DDE90532D21A5B4206920B9305
:10156800A7E5C5F1010306934FF0000A99E5DDF8F8
:101578001490484601F00EFC32463B4601F0DCFE72
:1015880000287FF472AD09F1FF3305936DE5069BE2
:10159800DDF82C80099E0A930A9900290B460CDD78
:1015A800BAF1000F09DD5145A8BF5346069AAAEBC8
:1015B800030AD21A0692CA1A0A920B9B7BB1099A9D
:1015C800002A00F08D82A3EB0807B8F1000F40F065
:1015D800998159463A46204600F0A4FE83460121E7
:1015E800204600F0EFFD0C9A0746002A40F02581BE
:1015F800229B012B40F3C7830120504410F01F00A9
:1016080000F01981C0F12003042B40F3B783C0F127
:101618001C00069B8244034406930A9B03440A93D6
:10162800069B002B05DD59461A46204600F0D6FEDB
:101638008346BAF1000F05DD39465246204600F0D0
:10164800CDFE07460D9B002B77D1089B002B40F35E
:101658000582099B002B00F089800A9B002B00F370
:1016680066810C9B002B40F0C481B246C846029BA1
:10167800089A03F001030A9309F1FF331A4406920A
:10168800CDF82C9039465846FFF7CAFB31468146BB
:101698000990584600F0FEFE524602903946204610
:1016A80000F014FFC268054609F130090146002A16
:1016B80040F0CF81584600F0EDFE294608902046BC
:1016C80000F08AFC089A32B9229B23B90A9B002BA6
:1016D80000F02483229A029B002BC0F2198205D1C4
:1016E800229B1BB90A9B002B00F01282002A08F1EA
:1016F800010500F32182069B88F80090434500F01D
:101708002C82594600230A22204600F081FC5645C7
:10171800834631464FF000034FF00A02204600F09E
:10172800928100F075FC5146064600230A222046A5
:1017380000F06EFCA8468246A4E73946584600F0F9
:10174800A9FE002881DA059D594600230A22204671
:10175800013D059500F05CFC099B8346002B40F099
:10176800EE82149B002B40F3F98208934D46DDF876
:10177800208008E000002440594600230A22204621
:1017880000F046FC834639465846FFF749FB30309F
:1017980005F8010BA5EB09024245EDDB00220346E3
:1017A8000292594601222046089300F017FE394656
:1017B800834600F06FFE002815F8012C089B11DC09
:1017C80005D1DB070ED402E015F8022C1D46302A9D
:1017D80005F1FF33F8D00BE0994500F04C811D4628
:1017E80013F8012C392A05F1FF33F5D001321A70AC
:1017F8003946204600F0F0FB56B1029921B1B142BA
:1018080002D0204600F0E8FB3146204600F0E4FB19
:101818005946204600F0E0FB0022059B2A70249AD6
:1018280001331360269B002B3FF4CAAB48461D606A
:1018380019B0BDE8F08F1C20EBE60146204600F009
:1018480071FD229B0746012B00F3E780029B002BCA
:1018580040F0E380DDE90212C2F31303002B40F0ED
:10186800CF8122F000431B0D1B052BB1069B0AF10B
:10187800010A0133069301230C9A0C93002A3FF4C2
:10188800BBAE3B6907EB8303186900F04BFCC0F162
:101898002000B2E6C3F12006029B03FA06F0FFF728
:1018A800B1BB0D90FFF7F5BB00230993059B239A65
:1018B80013445D1C012D14932B46B8BF01239C468D
:1018C80008950021676ABCF1170F79607FF66BAC49
:1018D800012204235B0003F114006045114602F164
:1018E8000102F7D979605EE400230993239B002B5A
:1018F80040F3F1809C461D4614930893E1E70123C9
:101908000993F3E742463146204600F00BFD5A465C
:1019180001460646204600F05FFC804659462046B0
:1019280000F05AFBC346002F3FF459AE51E631464A
:101938001A46204600F052FD064692E60A9A002A08
:1019480000F06081069A03F233430A921A449A44DB
:101958000692DDF82C80F2E5089B002B3FF73CADA2
:1019680040F0F981DDE906010022B64B01F07CFA6E
:10197800DDE9022301F0FEFC089F3E46002875D1F0
:101988003123059A89F800300132059209F10105E1
:101998003946204600F020FB002E7FF435AF37E7AC
:1019A80000F04981DDE90E01059B5D42A64B05F07B
:1019B8000F0203EBC203D3E9002301F055FA2D11FE
:1019C800CDE9020100F0CF81002302279F4EEA07EC
:1019D80005D5D6E9002301F047FA01231F446D100D
:1019E80006F10806F3D1002B3FF426ACCDE902013D
:1019F80022E47168204600F0BBFA0546336906F117
:101A08000C0102339A000C3000F03CFA29460122FE
:101A1800204600F0E3FC824628E600230C9330E7DA
:101A28000025666A29467560204600F0A1FA636AB7
:101A380030604FF0FF32D3F80090012308922395CD
:101A480014920993B5E400F0E3FAA84606468246E4
:101A580018E6204600F0C0FA01223CE6229B022B41
:101A68007FF7F7AD089B002B00F0D780239B4D46EE
:101A7800DB4305938CE73123059A89F8003001325E
:101A88000592B5E6384601F085F9DDE9022301F053
:101A9800EBF900226E4B01F031F80546A1F15076C2
:101AA800DDE902010022674B01F026F82A46334699
:101AB800CDE9020101F068FC0746002853D1DDE9B1
:101AC80002012A4606F1004301F040FC00283FF4D9
:101AD8006CAC3E46CAE7012523950895FFF75EBB27
:101AE80059460B9A204600F01DFC834677E50123F2
:101AF8000993DBE6DDF808B08AE60B9B0C9AA8EBA5
:101B080003031A44CDF82C800C924FF000080DE521
:101B1800002A4B4608F10105DDF82C9000F3C5803A
:101B2800029688F80030564662E6DDE90E23022761
:101B3800CDE91023FFF767BB4B46392BDDF82C9016
:101B480000F0C5800133029688F8003056464FE60B
:101B5800069B089A9B1A0A93F1E44B460296DDF815
:101B68002C9056461DE600273E4609E7DDE912237C
:101B7800DDE9020101F078F9109BCDE90201012BA2
:101B880089F8008021D0109BCDF840A04B449A469C
:101B98000022304B3046394601F066F90F460646BA
:101BA80001F012FC804601F0F5F802460B4630467B
:101BB800394600F0A1FF08F1300805F8018B5545BA
:101BC80006460F46E4D1DDF840A00022DDE9020117
:101BD800214B00F093FF32463B4601F0B7FB00284B
:101BE8007BD0159B059315F8018C85E4302389F883
:101BF8000030059B15F8018C013305934B4680E4B2
:101C0800002339E6169B069AC3F136030A921A4452
:101C18009A440692DDF82C8091E439460522204644
:101C280000F0F6F901460746584600F033FC002854
:101C38003FF7A6AE1AE7DDE90E230227CDE9022316
:101C4800FFF7FABA00001440A88500089886000833
:101C580000001C40000024400000E03F089B002BCF
:101C68003FF410AF149B002B7FF79FABDDE9020117
:101C78000022474B01F0F8F805460E46781CCDE9DE
:101C8800025601F087F82A46334601F0EDF80022A3
:101C9800404B00F033FF059A149B013A0546159214
:101CA800A1F150761093FFF7E8BA59460122204671
:101CB800029300F093FB3946834600F0EBFB0028C3
:101CC800029B36DD392B02D0099B313328E73922B4
:101CD800029688F80020564684E5DDE902230020B4
:101CE8002D4900F009FF32463B4601F04DFB10B983
:101CF800FFF75BBB154615F8013C6A1E302BF9D07F
:101D0800159B059384E54346A0461C46DDF840B084
:101D1800DDF80890159B0593FFF7EEBB4B46392B72
:101D2800DDF82C9008F10105D1D0029A002ACBDC0D
:101D3800F6E67FF4F5AEDA077FF5F2AEC2E7314694
:101D480000230A22204600F063F9149B0646002B64
:101D58000CDD089381E400273E4687E6229B022B90
:101D680009DC149B01E50227FFF766BA229B022BC8
:101D780001DC149BEDE7149B089373E63FF450AC29
:101D8800C0F13C0045E4029B002B3FF463AD33E413
:101D98000000244000001C400000E03FF030704785
:101DA800044A054B1268106A002808BF1846F0302C
:101DB800704700BF0000002064000020044A054B63
:101DC8001268106A002808BF1846F030704700BF34
:101DD8000000002064000020024B0146186800F053
:101DE800C7BD00BF00000020024B0146186800F084
:101DF8006BBD00BF00000020830770B4CDB23DD09A
:101E0800541E0AB30378AB421FD0431C05E014F1FB
:101E1800FF3419D30278AA4217D013F0030F1846DB
:101E280003F10103F3D1032C11D84CB30378AB426F
:101E38000BD00444431C02E00278AA4205D09C421D
:101E4800184603F10103F7D1002070BC704706461D
:101E58000A0292B22A4342EA0242336830465340A9
:101E6800A3F1013121EA030313F0803F06F10406D0
:101E7800DCD1043C032C3046EFD8D6E71446D2E731
:101E88002046E2E7844641EA000313F0030349D100
:101E9800403A23D30B6803604B6843608B688360C8
:101EA800CB68C3600B6903614B6943618B698361CC
:101EB800CB69C3610B6A03624B6A43628B6A8362B4
:101EC800CB6AC3620B6B03634B6B43638B6B83639C
:101ED800CB6BC36340304031403ADBD230320BD356
:101EE8000B6803604B6843608B688360CB68C36092
:101EF80010301031103AF3D20C3205D351F8043BAC
:101F080040F8043B043AF9D2043208D0D2071CBF87
:101F180011F8013B00F8013B01D30B8803806046B0
:101F2800704700BF082A13D38B07B1D010F0030302
:101F3800AED0C3F10403D21ADB071CBF11F8013B72
:101F480000F8013BA4D331F8023B20F8023B9FE79D
:101F5800043AD9D3013A11F8013B00F8013BF9D210
:101F68000B7803704B7843708B78837060467047AA
:101F780070B5446A06460D465CB1E3689BB153F8F8
:101F88002500E0B1026843F825200023C0E90333A7
:101F980070BD1020FFF720FF002304467062C0E9DF
:101FA80001330360C36021220421304600F07EFC27
:101FB800736AE060DB68002BE1D1002070BD01216D
:101FC80001FA05F4621D3046920000F06FFC00280B
:101FD800F3D0C0E90154D8E730B5456A83B0044668
:101FE80055B139B1636A4A68DB6853F82200086062
:101FF80043F8221003B030BD10200191FFF7ECFE2A
:1020080001996062C0E901550560C560E9E700BF54
:10201800F0B54FF0000C0C4605460E6983B001F18F
:10202800140738680CF1010C81B202FB0133010C72
:10203800180C02FB01019BB203EB0143664547F80C
:10204800043B4FEA1143ECDC3BB1A268B24207DD26
:1020580004EB8602013653612661204603B0F0BDC9
:102068006168284601310193FFF782FF074622691C
:1020780004F10C01023292000C30FFF703FF2146F5
:102088002846FFF7A9FF3C46019BE1E72DE9F84305
:10209800234C1E46083384FB034CDB17C3EB6C0C44
:1020A800BCF1010F07460C469046089D35DD01231B
:1020B80000215B009C4501F10101FADC3846FFF77D
:1020C80057FF0123B8F1090FC0E9043521DD04F1F8
:1020D80009094D46444415F8013B0146303B0A22A4
:1020E8003846FFF795FFAC42F5D109EB0804083CE8
:1020F80046450CDDA6EB0806264414F8013B0146CC
:10210800303B0A223846FFF783FFA642F5D1BDE8E7
:10211800F8834FF009080A34EAE70021CEE700BF48
:10212800398EE338020C12040346C2B903041020A6
:1021380013F07F4F04BF1B02083013F0704F04BF29
:102148001B01043013F0404F04BF9B000230002BEA
:1021580004DB5B0001D50130704720207047002068
:10216800E6E700BF0368014613F0070207D0DA0765
:102178001FD498071FD55B080B600120704798B2E1
:10218800A0B1104613F0FF0F04BF1B0A08301A074E
:1021980004BF1B0904309A0704BF9B080230DA0702
:1021A80002D45B080BD001300B6070471B0C102069
:1021B800E8E7002070479B080B600220704720204A
:1021C800704700BF10B50C460121FFF7D1FE012270
:1021D800C0E9042410BD00BF2DE9F04F0D69146952
:1021E80085B0A5420E46914604DA2A464E46254653
:1021F80089461446B36805EB040871684345B8BFBF
:102208000131FFF7B5FE00F1140B0BEB880AD3453B
:10221800019005D25B46002243F8042B9A45FBD86F
:1022280009F1140303EB840406F11402A34202EB40
:10223800850E62D2A4EB0904153C24F00304234460
:10224800CDE902A809F1100990469A4605E0090C63
:102258002CD1CA450BF1040B4DD059F8041F1FFAB5
:1022680081FCBCF1000FF2D047465E46002100E039
:102278000646304657F8042B346893B2A5B2120CC0
:102288000CFB0353240C0CFB02420B4402EB1341DE
:102298009BB243EA0143BE454FEA114140F8043B73
:1022A800E6D87160D9F80010090CD2D0DBF80030FC
:1022B80040461E465D46002200E025462C4607881B
:1022C800360C01FB07669BB2324443EA024344F8EA
:1022D800043B50F8043B6E681B0CB7B201FB037358
:1022E800864503EB12434FEA1342E6D8CA456B60B2
:1022F8000BF1040BB1D1DDE902A8B8F1000F0BDD39
:102308005AF8043CAAF1040A1BB105E05AF8043D46
:1023180013B9B8F10108F9D10198C0F8108005B0D7
:10232800BDE8F08F2DE9F04112F0030382B01446A6
:1023380007462DD10E46A4101CD07B6A8BB39D682E
:10234800002D38D0E3074FF0000806D4641011D0F0
:10235800286898B10546E307F8D531462A46384635
:10236800FFF73AFF0346314638461E46FFF734FE6C
:102378006410EDD1304602B0BDE8F0812A46294606
:102388003846FFF729FF2860C0F800800546E2E7D5
:10239800114A013B52F823200023FFF739FE064675
:1023A800C9E71020FFF718FD002203467862C0E94C
:1023B80001220260C260012138460193FFF7D8FD6F
:1023C80001210546002240F27120019BC5E9041055
:1023D8009D602A60B6E700BF988500080B692DE963
:1023E800F0474FEA621A0AEB03088B6808F1010408
:1023F8009C420D4691460746496804DD5B009C42B5
:1024080001F10101FADC3846FFF7B2FDBAF1000F1D
:10241800064600F114033ADD002203EB8A0143F873
:10242800042B8B42FBD1286905F1140319F01F090D
:1024380003EB800C23D0C9F120024FF0000A00E022
:1024480071468E46186800FA09F040EA0A004EF80C
:10245800040B53F8040B9C4520FA02FAF0D8C1F893
:1024680004A0BAF1000F01D008F10204013C38467B
:1024780034612946FFF7B0FD3046BDE8F0870439DE
:1024880053F8042B9C4541F8042FF9D8EEE7194678
:10249800C9E700BF30B40B6905460069C01A0FD1FF
:1024A8009B001435143119442B4401E09D4207D296
:1024B80053F8044D51F8042D9442F7D002D301206B
:1024C80030BC70474FF0FF30FAE700BF2DE9F84FF6
:1024D8000C6913698946E41A002C924601F1140725
:1024E80002F1140B14D19B00FA185B4401E0BA42C4
:1024F80062D952F8045D53F8041D8D42F7D009D211
:102508003A464B465F46D14693469A46012401E037
:10251800F6DB0024D9F80410FFF72AFD5E464FF0D9
:102528000008D9F810C0DAF810303D46C4600BEB4B
:10253800830E07EB8C0700F1140455F8049B56F83A
:10254800042B1FFA89F343441FFA82F8120CA3EBF9
:102558000803C2EB194202EB23429BB243EA02434F
:10256800B64544F8043B4FEA2248E6D8AF4217D9AB
:10257800A6462E4656F8043B99B241440A1402EB8B
:10258800134289B241EA0243B7424EF8043B4FEA8C
:102598002248EFD8ED432F4427F0030704373C4483
:1025A800043C2BB954F8043D0CF1FF3C002BF9D046
:1025B800C0F810C0BDE8F88F0021FFF7D9FC012250
:1025C8000023C0E90423BDE8F88F00BF0F4B0B4080
:1025D800A3F15073002B02DD0020194670475B42BF
:1025E8001B15132B0BDD143B1E2BD7BF0122012318
:1025F800C3F11F0302FA03F30021184670474FF492
:102608000022002042FA03F1704700BF0000F07F6B
:102618002DE9F041076900F1140606EB870757F822
:10262800048C4046FFF77EFDC0F120030A280B60AA
:10263800A7F1040218DC96422CBF002257F8082C98
:10264800C0F10B0328FA03F138BFDA4000F1150393
:1026580041F07F5508FA03F345F4401543EA0204B4
:1026680020462946BDE8F0819642A0F10B031DD211
:1026780057F8080CE3B108FA03F848F07F58C3F19B
:102688002001A7F1080220FA01FC48F440189642FC
:1026980000FA03F048EA0C0503D257F80C3CCB408B
:1026A8001843044620462946BDE8F08133B9184648
:1026B80048F07F5545F440150446F3E7002008FA32
:1026C80003F343F07F5545F440150446EAE700BF9D
:1026D8002DE9F0411C4682B00121DDE908659046EC
:1026E800FFF746FC2346C4F30A540746C3F3130313
:1026F8000CB143F48013B8F1000201931ED002A874
:1027080040F8082DFFF72EFD70BBDDE900237A6144
:10271800002B0CBF01210221BB613961CCB907EB49
:102728008103A0F2324030601869FFF7FBFCC0EB70
:1027380041102860384602B0BDE8F08101A8FFF7D3
:1027480011FD0122019B11462030C7E90423002C0A
:10275800E5D0A4F233430344C0F135003360286068
:10276800384602B0BDE8F081019BC0F12002009913
:1027780003FA02F20A43C34001937A61C8E700BF33
:102788002DE9F04383B00F4669460646FFF740FF40
:1027980004460D46384601A9FFF73AFF36693A69FB
:1027A8008946DDE90013B61ACB1A03EB4613002B52
:1027B80080460BDD05EB03573D4642464B46204617
:1027C800294600F07BFC03B0BDE8F083C3EB03337C
:1027D80009EB03518946F0E71728D0B504460ADD0E
:1027E800002000260749084F32463B4600F03CFBD4
:1027F800013CF9D1D0BD054B03EBC004D4E9040179
:10280800D0BD00BF0000F03F0000244098850008BC
:1028180070B414694D1E02F1140303EB84016D11A9
:1028280001358B4200EB85040CD2051F53F8046B6D
:10283800994245F8046FF9D88B1A153B23F0030326
:1028480004331844844204D9002340F8043B8442EA
:10285800FBD870BC704700BF036910B44C11A34289
:1028680000F114020FDA02EB83039A421CD253F8E8
:10287800040C043B18B114E053F8041D89B99A42BA
:10288800FAD310BC704702EB8403EEDD11F01F0190
:10289800EBD052F8244024FA01F000FA01F18C42FE
:1028A800E3D0012010BC70470020EAE738B502FBEE
:1028B80001F4214600F05CF8054618B122460021D3
:1028C800FDF7F6FC284638BD002934D038B551F854
:1028D800043C0C1F002BB8BFE418054600F0E6F8CE
:1028E800224B1A682AB1A2420DD921686018824287
:1028F80035D0626028461C60BDE8384000F0D8B882
:10290800A34203D81A465368002BF9D1116850180E
:10291800A04218D010D821686018834203BFD3E9B9
:1029280000030918C4E90013636054602846BDE831
:10293800384000F0BDB870470C2328462B60BDE82E
:10294800384000F0B5B8206801445018834211603F
:10295800ECD1D3E900030144C2E90013E6E7D2E968
:1029680000020144C4E90012C4E700BFF0010020DE
:10297800F8B5CD1C25F0030508350C2D38BF0C25FE
:10298800002D06463ADBA94238D82A4F00F08EF8C7
:102998003A6852B113685B1B04D433E023685B1BAD
:1029A80025D522465468002CF8D1796800293BD0F7
:1029B8002946304600F040F8431C2AD0C41C24F0B5
:1029C8000304A04205D0211A304600F035F8013042
:1029D8001FD02560304600F06BF804F10B0020F0A2
:1029E8000700231DC31A01D05A42E250F8BD0B2B31
:1029F8000BD8A24215D063685360EBE70C23002084
:102A08003360F8BD0B2B0BD9144623601C4425609A
:102A1800E0E70C233046336000F04AF80020F8BDA8
:102A280054683C601446D5E7304600F005F87860F5
:102A3800BEE700BFF001002038B50023064C05466C
:102A48000846236000F0E8FC431C00D038BD23682A
:102A5800002BFBD02B6038BDA804002030B4064CF6
:102A6800064D2468246A002C08BF2C46D4F8E4409C
:102A7800A44630BC604700BF00000020640000206E
:102A880082B049B15AB16BB113780B601278101C3F
:102A980018BF012002B0704701A9002AF3D11046DF
:102AA80002B070476FF00100F4E700BF704700BF45
:102AB800704700BF30B4064C064D2468246A002CC9
:102AC80008BF2C46D4F8E040A44630BC604700BF9D
:102AD800000000206400002019B1FF2A03D80A7002
:102AE8000121084670478A234FF0FF310360F8E759
:102AF80081F0004102E000BF83F0004330B54FEAA7
:102B080041044FEA430594EA050F08BF90EA020F13
:102B18001FBF54EA000C55EA020C7FEA645C7FEAA6
:102B2800655C00F0E2804FEA5454D4EB5555B8BFC9
:102B38006D420CDD2C4480EA020281EA030382EA3A
:102B4800000083EA010180EA020281EA0303362DCC
:102B580088BF30BD11F0004F4FEA01314FF4801C9F
:102B68004CEA113102D0404261EB410113F0004FB1
:102B78004FEA03334CEA133302D0524263EB430368
:102B880094EA050F00F0A780A4F10104D5F1200E06
:102B98000DDB02FA0EFC22FA05F2801841F1000161
:102BA80003FA0EF2801843FA05F359410EE0A5F135
:102BB80020050EF1200E012A03FA0EFC28BF4CF066
:102BC800020C43FA05F3C01851EBE37101F000451C
:102BD80007D54FF0000EDCF1000C7EEB00006EEB29
:102BE8000101B1F5801F1BD3B1F5001F0CD34908B3
:102BF8005FEA30004FEA3C0C04F101044FEA44520A
:102C080012F5800F80F09A80BCF1004F08BF5FEA90
:102C1800500C50F1000041EB045141EA050130BD70
:102C28005FEA4C0C404141EB010111F4801FA4F113
:102C38000104E9D191F0000F04BF01460020B1FA68
:102C480081F308BF2033A3F10B03B3F120020CDAA0
:102C58000C3208DD02F1140CC2F10C0201FA0CF07E
:102C680021FA02F10CE002F11402D8BFC2F1200CE3
:102C780001FA02F120FA0CFCDCBF41EA0C01904099
:102C8800E41AA2BF01EB0451294330BD6FEA0404E2
:102C98001F3C1CDA0C340EDC04F11404C4F12002CD
:102CA80020FA04F001FA02F340EA030021FA04F3DF
:102CB80045EA030130BDC4F10C04C4F1200220FA36
:102CC80002F001FA04F340EA0300294630BD21FA74
:102CD80004F0294630BD94F0000F83F4801306BF3A
:102CE80081F480110134013D4EE77FEA645C18BF2E
:102CF8007FEA655C29D094EA050F08BF90EA020FC5
:102D080005D054EA000C04BF1946104630BD91EABC
:102D1800030F1EBF0021002030BD5FEA545C05D1BF
:102D28004000494128BF41F0004130BD14F58004FE
:102D38003CBF01F5801130BD01F0004545F0FE4172
:102D480041F470014FF0000030BD7FEA645C1ABFA7
:102D5800194610467FEA655C1CBF0B46024650EADE
:102D6800013406BF52EA033591EA030F41F400210A
:102D780030BD00BF90F0000F04BF0021704730B590
:102D88004FF4806404F132044FF000054FF0000165
:102D980050E700BF90F0000F04BF0021704730B526
:102DA8004FF4806404F1320410F0004548BF4042FB
:102DB8004FF000013EE700BF42004FEAE2014FEA50
:102DC80031014FEA02701FBF12F07F4393F07F4F2B
:102DD80081F06051704732F07F4208BF704793F02E
:102DE8007F4F04BF41F40021704730B54FF4607441
:102DF80001F0004521F000411CE700BF50EA010244
:102E080008BF704730B54FF000050AE050EA0102EC
:102E180008BF704730B511F0004502D5404261EB5C
:102E280041014FF4806404F132045FEA915C3FF49D
:102E3800D8AE4FF003025FEADC0C18BF03325FEA3A
:102E4800DC0C18BF033202EBDC02C2F1200300FAEB
:102E580003FC20FA02F001FA03FE40EA0E0021FA10
:102E680002F11444BDE600BF70B54FF0FF0C4CF4FE
:102E7800E06C1CEA11541DBF1CEA135594EA0C0FB0
:102E880095EA0C0F00F0DEF82C4481EA030621EAEB
:102E98004C5123EA4C5350EA013518BF52EA033526
:102EA80041F4801143F4801338D0A0FB02CE4FF0D8
:102EB8000005E1FB02E506F00042E0FB03E54FF008
:102EC8000006E1FB03569CF0000F18BF4EF0010E00
:102ED800A4F1FF04B6F5007F64F5407404D25FEAFC
:102EE8004E0E6D4146EB060642EAC62141EA5551AF
:102EF8004FEAC52040EA5E504FEACE2EB4F1FD0CF1
:102F080088BFBCF5E06F1ED8BEF1004F08BF5FEA6E
:102F1800500E50F1000041EB045170BD06F0004620
:102F280046EA010140EA020081EA0301B4EB5C04CD
:102F3800C2BFD4EB0C0541EA045170BD41F48011C5
:102F48004FF0000E013C00F3AB8014F1360FDEBFEA
:102F5800002001F0004170BDC4F10004203C35DAC6
:102F68000C341BDC04F11404C4F1200500FA05F349
:102F780020FA04F001FA05F240EA020001F00042EA
:102F880021F0004110EBD37021FA04F642EB060160
:102F98005EEA430E08BF20EAD37070BDC4F10C048A
:102FA800C4F1200500FA04F320FA05F001FA04F24E
:102FB80040EA020001F0004110EBD37041F100013A
:102FC8005EEA430E08BF20EAD37070BDC4F1200545
:102FD80000FA05F24EEA020E20FA04F301FA05F2AD
:102FE80043EA020321FA04F001F0004121FA04F255
:102FF80020EA020000EBD3705EEA430E08BF20EA25
:10300800D37070BD94F0000F0FD101F0004640005E
:1030180041EB010111F4801F08BF013CF7D041EAE0
:10302800060195F0000F18BF704703F000465200E4
:1030380043EB030313F4801F08BF013DF7D043EAB5
:103048000603704794EA0C0F0CEA135518BF95EA6B
:103058000C0F0CD050EA410618BF52EA4306D1D1F2
:1030680081EA030101F000414FF0000070BD50EA11
:10307800410606BF1046194652EA430619D094EA9B
:103088000C0F02D150EA013613D195EA0C0F05D185
:1030980052EA03361CBF104619460AD181EA0301D9
:1030A80001F0004141F0FE4141F470014FF0000091
:1030B80070BD41F0FE4141F4780170BD70B54FF02C
:1030C800FF0C4CF4E06C1CEA11541DBF1CEA1355AC
:1030D80094EA0C0F95EA0C0F00F0A7F8A4EB05048E
:1030E80081EA030E52EA03354FEA013100F0888085
:1030F8004FEA03334FF0805545EA131343EA12634E
:103108004FEA022245EA111545EA10654FEA002602
:103118000EF000419D4208BF964244F1FD0404F5BB
:10312800407402D25B084FEA3202B61A65EB030517
:103138005B084FEA32024FF480104FF4002CB6EBD4
:10314800020E75EB030E22BFB61A754640EA0C0054
:103158005B084FEA3202B6EB020E75EB030E22BF94
:10316800B61A754640EA5C005B084FEA3202B6EBD5
:10317800020E75EB030E22BFB61A754640EA9C0094
:103188005B084FEA3202B6EB020E75EB030E22BF64
:10319800B61A754640EADC0055EA060E18D04FEA22
:1031A800051545EA16754FEA06164FEAC30343EAC2
:1031B80052734FEAC2025FEA1C1CC0D111F4801F8F
:1031C8000BD141EA00014FF000004FF0004CB6E788
:1031D80011F4801F04BF01430020B4F1FD0C88BF27
:1031E800BCF5E06F3FF6AFAEB5EB030C04BFB6EB32
:1031F800020C5FEA500C50F1000041EB045170BD25
:103208000EF0004E4EEA113114EB5C04C2BFD4EB51
:103218000C0541EA045170BD41F480114FF0000ED5
:10322800013C90E645EA060E8DE60CEA135594EA51
:103238000C0F08BF95EA0C0F3FF43BAF94EA0C0F54
:103248000AD150EA01347FF434AF95EA0C0F7FF4C9
:1032580025AF104619462CE795EA0C0F06D152EA1D
:1032680003353FF4FDAE1046194622E750EA410601
:1032780018BF52EA43067FF4C5AE50EA41047FF412
:103288000DAF52EA43057FF4EBAE12E74FF0FF3C77
:1032980006E000BF4FF0010C02E000BF4FF0010C48
:1032A8004DF804CD4FEA410C7FEA6C5C4FEA430CC1
:1032B80018BF7FEA6C5C1BD001B050EA410C0CBF10
:1032C80052EA430C91EA030F02BF90EA020F002072
:1032D800704710F1000F91EA030F58BF994208BFD9
:1032E80090422CBFD8176FEAE37040F00100704796
:1032F8004FEA410C7FEA6C5C02D150EA013C07D1ED
:103308004FEA430C7FEA6C5CD6D152EA033CD3D037
:103318005DF8040B704700BF8446104662468C4631
:103328001946634600E000BF01B5FFF7B7FF002864
:1033380048BF10F1000F01BD4DF808EDFFF7F4FF8D
:103348000CBF012000205DF808FB00BF4DF808ED18
:10335800FFF7EAFF34BF012000205DF808FB00BF3B
:103368004DF808EDFFF7E0FF94BF012000205DF85D
:1033780008FB00BF4DF808EDFFF7CEFF94BF012012
:1033880000205DF808FB00BF4DF808EDFFF7C4FF0B
:1033980034BF012000205DF808FB00BF4FEA410C54
:1033A8007FEA6C5C02D150EA013C0AD14FEA430C37
:1033B8007FEA6C5C02D152EA033C02D14FF0000074
:1033C80070474FF0010070474FEA410212F50012B2
:1033D80015D211D56FF47873B3EB625212D94FEA54
:1033E800C12343F0004343EA505311F0004F23FA3E
:1033F80002F018BF404270474FF00000704750EA93
:10340800013005D111F0004008BF6FF0004070474F
:103418004FF00000704700BF044A05491368002BAD
:1034280008BF0B461844106018467047F801002082
:10343800AC04002080B588B000AF524B9B69514A5C
:1034480043F0100393614F4B9B6903F01003FB603B
:10345800FB684C4B9B694B4A43F020039361494BF3
:103468009B6903F02003BB60BB68464B9B69454AD8
:1034780043F004039361434B9B6903F004037B60AF
:103488007B68404B9B693F4A43F0080393613D4B7F
:103498009B6903F008033B603B68002242F2C601C7
:1034A800394801F081FF00224FF43241374801F0DA
:1034B8007BFF42F2C6033B6101237B610223FB6170
:1034C80007F110031946304801F000FE4FF48873E5
:1034D8003B6100237B610123BB6107F1100319469F
:1034E800294801F0F3FD89233B6100237B61012317
:1034F800BB6107F110031946244801F0E7FD4FF4BA
:1035080032433B6101237B610223FB6107F1100316
:1035180019461E4801F0DAFD4FF480433B61002351
:103528007B610023BB6107F110031946174801F0BE
:10353800CDFD4FF400733B6100237B610223BB6127
:1035480007F110031946104801F0C0FD04233B6140
:1035580000237B610023BB6107F1100319460C4867
:1035680001F0B4FD10233B6100237B610223BB61A2
:1035780007F110031946054801F0A8FD00BF2037E0
:10358800BD4680BD0010024000100140000C014003
:103598000014014080B584B000AF234B234A1A6061
:1035A800214B4FF480729A601F4B0022DA601E4B49
:1035B80000225A611C4B4FF46022DA611A4B002238
:1035C8005A60194B02221A61174800F0A1FD034600
:1035D800002B03D04521164800F016FD0D237B6013
:1035E8000123BB600723FB603B1D19460E4800F012
:1035F8004FFF0346002B03D04F210D4800F004FD78
:1036080010237B600223BB603B1D1946064800F06F
:103618003FFF0346002B03D05821054800F0F4FC77
:1036280000BF1037BD4680BDFC01002000240140CA
:103638003885000880B588B000AF78607B681B6863
:10364800234A93423FD1234B9B69224A43F4007398
:103658009361204B9B6903F40073FB60FB680823AC
:103668003B6103237B6107F1100319461A4801F0F7
:103678002DFD1A4B1A4A1A60184B00225A60174B34
:1036880000229A60154B8022DA60144B4FF40072C6
:103698001A61124B4FF400625A61104B20229A6152
:1036A8000E4B0022DA610D4803F03EF80346002B6A
:1036B80003D07C210B4800F0A7FC7B68074A1A62FC
:1036C800064A7B68536200BF2037BD4680BD00BFF5
:1036D8000024014000100240001001402C0200208C
:1036E800080002403885000880B483B000AF084B5A
:1036F8005B69074A43F001035361054B5B6903F0BB
:1037080001037B607B6800BF0C37BD4680BC7047F7
:103718000010024080B500AF134B144A1A60124BD8
:10372800134A5A60104B00229A600F4B0022DA604D
:103738000D4B4FF480421A610B4B00225A610A4B21
:1037480000229A61084B0022DA61074B00221A62B4
:10375800054803F0AFFB0346002B03D04221054880
:1037680000F052FC00BF80BD7002002000580040ED
:10377800A08601004485000880B588B000AF786055
:103788007B681B680F4A934218D14FF440633B6132
:1037980012237B610323FB6107F1100319460A48D2
:1037A80001F094FC094BDB69084A43F48003D361B8
:1037B800064BDB6903F48003FB60FB6800BF20371E
:1037C800BD4680BD00580040000C0140001002407A
:1037D80080B500AF194B1A4A1A60184B4FF4827221
:1037E8005A60164B00229A60144B4FF40062DA605C
:1037F800124B00221A61114B00225A610F4B4FF4F1
:1038080000729A610D4B0822DA610C4B00221A6291
:103818000A4B00225A62094B00229A62074B0A227D
:10382800DA62064801F0EDFB0346002B03D0452180
:10383800044800F0E9FB00BF80BD00BFC4020020BF
:10384800003001405085000880B588B000AF78602E
:103858007B681B68194A93422BD1194B9B69184AFC
:1038680043F480539361164B9B6903F48053FB60C8
:10387800FB68A0233B6102237B610323FB6107F103
:10388800100319460F4801F021FC40233B61002337
:103898007B610023BB6107F110031946094801F059
:1038A80015FC00220021232002F029FB232002F02E
:1038B80042FB00BF2037BD4680BD00BF003001403D
:1038C800001002400008014080B586B000AF204BD0
:1038D800204A1A601E4B47225A601D4B00229A60EC
:1038E8001B4B6322DA601A4B00221A61184B002224
:1038F8009A61174802F062FB0346002B03D040216F
:10390800154800F081FB4FF48053BB6007F10803B2
:1039180019460F4802F085FC0346002B03D04621C8
:103928000D4800F071FB00233B6000237B603B46A1
:103938001946074802F0A1FE0346002B03D04D218B
:10394800054800F061FB00BF1837BD4680BD00BFC9
:103958001C030020000800405C85000880B586B084
:1039680000AF204B204A1A601E4B47225A601D4B5D
:1039780000229A601B4B40F2E732DA60194B0022B2
:103988001A61184B00229A61164802F017FB034689
:10399800002B03D05F21154800F036FB4FF480530D
:1039A800BB6007F1080319460E4802F03AFC0346CB
:1039B800002B03D065210D4800F026FB00233B6057
:1039C80000237B603B461946064802F056FE034634
:1039D800002B03D06C21054800F016FB00BF1837F8
:1039E800BD4680BD5C030020000C00405C850008DB
:1039F80080B485B000AF78607B681B68124A934238
:103A08000CD1124BDB69114A43F00403D3610F4B0D
:103A1800DB6903F00403FB60FB6810E07B681B684C
:103A28000B4A93420BD1094BDB69084A43F0080360
:103A3800D361064BDB6903F00803BB60BB6800BFBA
:103A48001437BD4680BC7047000800400010024093
:103A5800000C004080B500AF124B134A1A60114B9E
:103A68004FF4E1325A600F4B00229A600D4B00224E
:103A7800DA600C4B00221A610A4B0C225A61094B7E
:103A880000229A61074B0022DA61064800F03BFEEB
:103A98000346002B03D04621044800F0B5FA00BFC6
:103AA80080BD00BF2404002000380140688500085C
:103AB80080B500AF124B134A1A60114B4FF4E13234
:103AC8005A600F4B00229A600D4B0022DA600C4BB3
:103AD80000221A610A4B0C225A61094B00229A6192
:103AE800074B0022DA61064800F00DFE0346002B62
:103AF80003D05921044800F087FA00BF80BD00BFF9
:103B080064040020004400406885000880B588B03F
:103B180000AF78607B681B68534A93424ED1534B81
:103B28009B69524A43F480439361504B9B6903F469
:103B38008043FB60FB684FF400733B6102237B61A9
:103B48000323FB6107F110031946494801F0BEFA47
:103B58004FF480633B6100237B610123BB6107F164
:103B680010031946424801F0B1FA424B424A1A6022
:103B7800404B00225A603F4B00229A603D4B802206
:103B8800DA603C4B00221A613A4B00225A61394BE9
:103B980000229A61374B0022DA61364802F0C4FDF0
:103BA8000346002B03D08421344800F02DFA7B68AB
:103BB800304A5A632F4A7B68536250E07B681B681F
:103BC8002F4A93424BD1294BDB69284A43F40033EF
:103BD800D361264BDB6903F40033BB60BB68042365
:103BE8003B6102237B610323FB6107F11003194644
:103BF8001F4801F06BFA08233B6100237B61012316
:103C0800BB6107F110031946194801F05FFA1D4B13
:103C18001D4A1A601B4B00225A601A4B00229A60F8
:103C2800184B8022DA60174B00221A61154B0022CC
:103C38005A61144B00229A61124B0022DA61114832
:103C480002F072FD0346002B03D0AF210B4800F0B1
:103C5800DBF97B680B4A5A630A4A7B68536200BFE8
:103C68002037BD4680BD00BF00380140001002402B
:103C780000080140E0030020580002406885000861
:103C8800004400409C0300206C00024080B400AF58
:103C980000BFBD4680BC704780B400AFFEE780B46B
:103CA80000AFFEE780B400AFFEE780B400AFFEE7E8
:103CB80080B400AF00BFBD4680BC704780B400AF81
:103CC80000BFBD4680BC704780B400AF00BFBD4692
:103CD80080BC704780B500AF00F002FA02F062F9CC
:103CE80000BF80BD80B500AF024802F0A7FE00BF4C
:103CF80080BD00BF2C02002080B500AF024802F052
:103D08009DFE00BF80BD00BFE003002080B500AF6E
:103D1800024802F093FE00BF80BD00BF9C03002054
:103D280080B500AF024800F0DDFA00BF80BD00BFDB
:103D3800FC01002080B500AF024802F06AF900BF1C
:103D480080BD00BF1C03002080B500AF024803F00F
:103D580091F900BF80BD00BF7002002080B500AFA0
:103D6800024803F08BFA00BF80BD00BF700200203C
:103D780080B500AF024801F061F800BF80BD00BF08
:103D8800C402002080B500AF024800F009FD00BF62
:103D980080BD00BF2404002080B500AF024800F0B9
:103DA800FFFC00BF80BD00BF6404002080B500AFE9
:103DB800024802F02EF900BF80BD00BF5C0300205E
:103DC80080B582B000AF244B9B69234A43F00103BE
:103DD8009361214B9B6903F001037B607B6803209F
:103DE80002F082F8002200216FF00B0002F087F841
:103DF800002200216FF00A0002F081F80022002161
:103E08006FF0090002F07BF8002200216FF0040037
:103E180002F075F8002200216FF0030002F06FF83D
:103E2800002200216FF0010002F069F80022002151
:103E38004FF0FF3002F063F8084B5B68074A23F045
:103E4800E0635360054B5B68044A43F000735360BA
:103E580000BF0837BD4680BD001002400000014089
:103E680080B500AF00F00AF900F016F8FFF7E2FAA3
:103E7800FFF73AFCFFF78EFBFFF74CFCFFF7A8FCB7
:103E8800FFF722FDFFF76AFDFFF7E4FDFFF710FEDD
:103E980000F066F8FEE7000080B596B000AF012399
:103EA8003B634FF480337B630023BB6301233B6494
:103EB8000223FB644FF480333B654FF4E0137B65CA
:103EC80007F13003184601F087FA0346002B03D0A8
:103ED8009921214800F098F80F23FB6102233B62E7
:103EE80000237B624FF48063BB620023FB6207F10F
:103EF8001C030221184601F0D3FC0346002B03D013
:103F0800A721154800F080F802237B604FF4004396
:103F1800FB603B1D184601F069FE0346002B03D0E9
:103F2800AE210D4800F070F801F010FE02460B4B70
:103F3800A3FB02239B09184602F00BF8042002F0A9
:103F480015F8002200214FF0FF3001F0D8FF00BF24
:103F58005837BD4680BD00BF74850008D34D621038
:103F680080B500AF00220021252001F0C8FF2520E0
:103F780001F0E1FF00220021262001F0C0FF2620E9
:103F880001F0D9FF00220021322001F0B8FF3220D1
:103F980001F0D1FF002200211E2001F0B0FF1E20F9
:103FA80001F0C9FF002200210B2001F0A8FF0B201F
:103FB80001F0C1FF002200210F2001F0A0FF0F2017
:103FC80001F0B9FF00220021102001F098FF102015
:103FD80001F0B1FF00220021122001F090FF122011
:103FE80001F0A9FF00220021212001F088FF2120F3
:103FF80001F0A1FF00220021222001F080FF2220F1
:1040080001F099FF00BF80BD80B483B000AF786035
:104018003960FEE780B400AF154B1B68144A43F0C3
:1040280001031360124B5A681149124B13404B603D
:104038000F4B1B680E4A23F0847323F480331360FC
:104048000B4B1B680A4A23F480231360084B5B68F8
:10405800074A23F4FE035360054B4FF41F029A608E
:10406800054B4FF000629A6000BFBD4680BC7047A8
:10407800001002400000FFF800ED00E080B500AF3E
:10408800084B1B68074A43F010031360032001F034
:104098002BFF002000F008F8FFF792FE00231846D7
:1040A80080BD00BF0020024080B582B000AF7860BC
:1040B800094B1B68094AA2FB03239B09184601F018
:1040C80048FF002279684FF0FF3001F018FF002305
:1040D80018460837BD4680BDD0010020D34D621078
:1040E80080B400AF044B1B680133034A136000BF60
:1040F800BD4680BC704700BFA404002080B400AF58
:10410800024B1B681846BD4680BC7047A4040020BB
:1041180080B586B000AF78600023FB7500233B6153
:104128000023BB600023FB607B68002B01D10123C7
:10413800CEE07B689B68002B7B689B6A002B09D1CB
:104148007B680022DA627B68002283F82420786882
:10415800FFF770FA786800F093FA0346FB757B68FE
:104168009B6A03F01003002B40F0A980FB7D002B15
:1041780040F0A5807B689B6A23F4885323F00203F0
:1041880043F002027B689A627B685A687B681B6806
:1041980051498B420AD17B68DB69B3F5402F02D0C5
:1041A8007B68DB6904E04FF4002301E07B68DB698E
:1041B8001A437B68DB685B001343BA681343BB6030
:1041C8007B689B68B3F5807F03D07B689B68012B75
:1041D80002D14FF4807300E000233A6913433B6136
:1041E8007B685B69012B19D17B68DB68002B09D1DF
:1041F8007B689B69013B5A033B69134343F40063A3
:104208003B610BE07B689B6A43F020027B689A6203
:104218007B68DB6A43F001027B68DA627B681B68B3
:104228005B6823F469417B681B683A690A435A60F2
:104238007B681B689A68294B13407A681268B968CA
:104248000B4393607B689B68B3F5807F03D07B68E2
:104258009B68012B04D17B681B69013B1B05FB6034
:104268007B681B68DB6A23F470017B681B68FA684B
:104278000A43DA627B681B689A68194B1340BA686C
:104288009A420BD17B680022DA627B689B6A23F032
:10429800030343F001027B689A6218E07B689B6A1B
:1042A80023F0120343F010027B689A627B68DB6A92
:1042B80043F001027B68DA620123FB7507E07B6843
:1042C8009B6A43F010027B689A620123FB75FB7DB1
:1042D80018461837BD4680BD003C0140FDF7E1FF98
:1042E800FE0E1FFF80B582B000AF78607B681B6848
:1042F8005B6803F02003202B40D17B681B681B6898
:1043080003F00203022B39D17B689B6A03F0100388
:10431800002B05D17B689B6A43F400727B689A6224
:104328007B681B689B6803F46023B3F5602F1DD17D
:104338007B68DB68002B19D17B681B685A687B682F
:104348001B6822F020025A607B689B6A23F4807203
:104358007B689A627B689B6A03F48053002B05D1C3
:104368007B689B6A43F001027B689A62786800F078
:104378007CF87B681B686FF012021A607B681B6808
:104388005B6803F08003802B4FD17B681B681B6838
:1043980003F00403042B48D17B689B6A03F01003E5
:1043A800002B05D17B689B6A43F400527B689A62B4
:1043B8007B681B689B6803F4E043B3F5E04F12D0B9
:1043C8007B681B685B6803F48063002B25D17B68DE
:1043D8001B689B6803F46023B3F5602F1DD17B68CD
:1043E800DB68002B19D17B681B685A687B681B68DF
:1043F80022F080025A607B689B6A23F480527B68B3
:104408009A627B689B6A03F48073002B05D17B68F2
:104418009B6A43F001027B689A62786800F06AF947
:104428007B681B686FF00C021A607B681B685B680E
:1044380003F04003402B14D17B681B681B6803F012
:104448000103012B0DD17B689B6A43F480327B68A2
:104458009A62786800F012F87B681B686FF00102B6
:104468001A6000BF0837BD4680BD80B483B000AF76
:10447800786000BF0C37BD4680BC704780B483B0FD
:1044880000AF786000BF0C37BD4680BC70470000A5
:1044980080B485B000AF786039600023FB730023D7
:1044A800BB607B6893F82430012B01D10223DCE048
:1044B8007B68012283F824203B685B68062B1CD8A4
:1044C8007B681B68596B3B685A6813469B0013440A
:1044D800053B1F2202FA03F3DB4319403B681868C7
:1044E8003B685A6813469B001344053B00FA03F2E5
:1044F8007B681B680A435A633CE03B685B680C2B8B
:104508001CD87B681B68196B3B685A6813469B006C
:104518001344233B1F2202FA03F3DB4319403B6891
:1045280018683B685A6813469B001344233B00FAFB
:1045380003F27B681B680A431A631BE07B681B68ED
:10454800D96A3B685A6813469B001344413B1F22B3
:1045580002FA03F3DB4319403B6818683B685A6862
:1045680013469B001344413B00FA03F27B681B6827
:104578000A43DA623B681B68092B1CD97B681B68F5
:10458800D9683B681A6813465B0013441E3B072230
:1045980002FA03F3DB4319403B6898683B681A68E2
:1045A80013465B0013441E3B00FA03F27B681B684A
:1045B8000A43DA6019E07B681B6819693B681A6866
:1045C80013465B001344072202FA03F3DB43194046
:1045D8003B6898683B681A6813465B00134400FA06
:1045E80003F27B681B680A431A613B681B68102B3F
:1045F80003D03B681B68112B32D17B681B681D4AAE
:10460800934225D17B681B689B6803F40003002B49
:1046180026D17B681B689A687B681B6842F4000295
:104628009A603B681B68102B1AD1134B1B68134AFE
:10463800A2FB03239A0C13469B0013445B00BB6048
:1046480002E0BB68013BBB60BB68002BF9D107E007
:104658007B689B6A43F020027B689A620123FB73A4
:104668007B68002283F82420FB7B18461437BD465C
:1046780080BC704700240140D001002083DE1B432A
:1046880080B584B000AF78600023FB607B681B684E
:104698009B6803F00103012B27D17B681B689A688C
:1046A8007B681B6822F001029A60FFF727FDF8601B
:1046B80014E0FFF723FD0246FB68D31A022B0DD93D
:1046C8007B689B6A43F010027B689A627B68DB6AAE
:1046D80043F001027B68DA62012307E07B681B680C
:1046E8009B6803F00103012BE3D000231846103721
:1046F800BD4680BD80B483B000AF786000BF0C3782
:10470800BD4680BC704780B582B000AF78607B68DA
:10471800002B01D101233FE07B6893F83930DBB2ED
:10472800002B06D17B68002283F838207868FFF7D1
:10473800EDF97B68242283F839207B681B68DA68E6
:104748007B681B6822F40052DA60786800F05EFA31
:104758007B681B681A697B681B6822F490421A619F
:104768007B681B685A697B681B6822F02A025A61B9
:104778007B681B68DA687B681B6842F40052DA6061
:104788007B680022DA637B68202283F839207B6803
:10479800202283F83A20002318460837BD4680BDFA
:1047A80080B588B000AF78607B681B681B68FB61C8
:1047B8007B681B68DB68BB617B681B685B697B6126
:1047C80000233B610023FB60FB6903F00F033B619F
:1047D8003B69002B0DD1FB6903F02003002B08D0A7
:1047E800BB6903F02003002B03D0786800F08DF933
:1047F800CCE03B69002B00F0AB807B6903F0010340
:10480800002B05D1BB6903F49073002B00F0A08046
:10481800FB6903F00103002B0AD0BB6903F4807322
:10482800002B05D07B68DB6B43F001027B68DA6301
:10483800FB6903F00403002B0AD07B6903F0010332
:10484800002B05D07B68DB6B43F002027B68DA63E0
:10485800FB6903F00203002B0AD07B6903F0010314
:10486800002B05D07B68DB6B43F004027B68DA63BE
:10487800FB6903F00803002B0AD07B6903F00103EE
:10488800002B05D07B68DB6B43F008027B68DA639A
:104898007B68DB6B002B78D0FB6903F02003002BCF
:1048A80007D0BB6903F02003002B02D0786800F022
:1048B8002CF97B681B685B6903F04003002B14BF6D
:1048C80001230023DBB2FB607B68DB6B03F008038A
:1048D800002B02D1FB68002B31D0786800F077F804
:1048E8007B681B685B6903F04003002B23D07B685F
:1048F8001B685A697B681B6822F040025A617B6812
:104908005B6B002B13D07B685B6B224A5A637B6816
:104918005B6B184601F08AFF0346002B16D07B68B4
:104928005B6B5B6B7A68526B104698470EE0786851
:1049380000F044F80AE0786800F040F806E078688B
:1049480000F03CF87B680022DA631EE000BF1CE040
:10495800FB6903F08003002B08D0BB6903F08003D8
:10496800002B03D0786800F063F80FE0FB6903F0D0
:104978004003002B0AD0BB6903F04003002B05D08D
:10498800786800F0AAF800BF00E000BF2037BD46F5
:1049980080BD00BF114A000880B483B000AF7860C2
:1049A80000BF0C37BD4680BC704780B483B000AFF1
:1049B800786000BF0C37BD4680BC704780B483B0B8
:1049C80000AF786000BF0C37BD4680BC704780B42C
:1049D80083B000AF78607B681B68DA687B681B6807
:1049E80022F49072DA607B681B685A697B681B68DE
:1049F80022F001025A617B68202283F83A2000BF26
:104A08000C37BD4680BC704780B584B000AF786075
:104A18007B685B6AFB60FB680022DA85FB68002222
:104A2800DA84F868FFF7CAFF00BF1037BD4680BDBB
:104A380080B485B000AF78607B6893F83930DBB21A
:104A4800212B44D17B689B68B3F5805F1AD17B68C2
:104A58001B6AFB60FB681B881A467B681B68C2F3ED
:104A680008025A607B681B69002B05D17B681B6AAA
:104A78009A1C7B681A620EE07B681B6A5A1C7B686A
:104A88001A6208E07B681B6A591C7A6811621A78F6
:104A98007B681B685A607B68DB8C9BB2013B9BB2CE
:104AA8007A681946D184002B0FD17B681B68DA68B5
:104AB8007B681B6822F08002DA607B681B68DA6812
:104AC8007B681B6842F04002DA60002300E00223A2
:104AD80018461437BD4680BC704780B582B000AF19
:104AE80078607B681B68DA687B681B6822F0400284
:104AF800DA607B68202283F839207868FFF74CFF5A
:104B0800002318460837BD4680BD80B584B000AF85
:104B180078607B6893F83A30DBB2222B71D17B68DE
:104B28009B68B3F5805F23D17B689B6AFB607B68D9
:104B38001B69002B0ED17B681B685B689BB2C3F3B3
:104B480008039AB2FB681A807B689B6A9A1C7B6888
:104B58009A6229E07B681B685B689BB2DBB29AB2F9
:104B6800FB681A807B689B6A5A1C7B689A621BE008
:104B78007B681B69002B0AD17B681B6858687B68B7
:104B88009B6A591C7A689162C2B21A700CE07B6801
:104B98001B685B68DAB27B689B6A581C7968886214
:104BA80002F07F02D2B21A707B68DB8D9BB2013BA8
:104BB8009BB27A681946D185002B20D17B681B6887
:104BC800DA687B681B6822F02002DA607B681B6861
:104BD800DA687B681B6822F48072DA607B681B687D
:104BE8005A697B681B6822F001025A617B6820229F
:104BF80083F83A207868FFF7D8FE002302E0002304
:104C080000E0022318461037BD4680BDB0B584B019
:104C180000AF78600023FB607B681B681B6923F486
:104C280040517B68DA687B681B680A431A617B68B5
:104C38009A687B681B691A437B685B691343FA6847
:104C48001343FB607B681B68DB6823F4B05323F0D5
:104C58000C037A681268F9680B43D3607B681B6899
:104C68005B6923F440717B689A697B681B680A4317
:104C78005A617B681B686F4A93426BD100F084FFCE
:104C8800024613469B0013449A001A447B685B68EB
:104C98009B00B2FBF3F3684AA2FB03235B091C01E8
:104CA80000F072FF024613469B0013449A001A4410
:104CB8007B685B689B00B2FBF3F500F065FF02467A
:104CC80013469B0013449A001A447B685B689B0058
:104CD800B2FBF3F3584AA2FB03235B09642202FBED
:104CE80003F3EB1A1B013233534AA2FB03235B097C
:104CF80003F0F0031C4400F047FF024613469B00F4
:104D080013449A001A447B685B689B00B2FBF3F576
:104D180000F03AFF024613469B0013449A001A44D7
:104D28007B685B689B00B2FBF3F3434AA2FB032357
:104D38005B09642202FB03F3EB1A1B0132333E4A80
:104D4800A2FB03235B0903F00F027B681B68224464
:104D58009A606AE000F004FF024613469B00134481
:104D68009A001A447B685B689B00B2FBF3F3324AF3
:104D7800A2FB03235B091C0100F0F2FE0246134666
:104D88009B0013449A001A447B685B689B00B2FB43
:104D9800F3F500F0E5FE024613469B0013449A0023
:104DA8001A447B685B689B00B2FBF3F3224AA2FBC0
:104DB80003235B09642202FB03F3EB1A1B01323362
:104DC8001D4AA2FB03235B0903F0F0031C4400F017
:104DD800C7FE024613469B0013449A001A447B6898
:104DE8005B689B00B2FBF3F500F0BAFE024613467F
:104DF8009B0013449A001A447B685B689B00B2FBD3
:104E0800F3F30D4AA2FB03235B09642202FB03F3BD
:104E1800EB1A1B013233084AA2FB03235B0903F098
:104E28000F027B681B6822449A6000BF1037BD469A
:104E3800B0BD00BF003801401F85EB5180B588B078
:104E480000AF78607B681B685B68FB617B681B68E8
:104E58009B68BB61BB6903F04003002B0ED1BB69A3
:104E680003F00103002B09D0FB6903F04003002B7A
:104E780004D07B681B6C786898479FE0BB6903F097
:104E88000203002B09D0FB6903F08003002B04D038
:104E98007B685B6C7868984790E0BB6903F06003B7
:104EA800002B00F08B80FB6903F02003002B00F03F
:104EB8008580BB6903F04003002B23D07B6893F8FF
:104EC8005130DBB2032B11D07B685B6D43F00402D9
:104ED8007B685A6500237B617B681B68DB687B61A4
:104EE8007B681B689B687B617B690BE000233B61E7
:104EF8007B681B68DB683B617B681B689B683B6160
:104F08003B695BE0BB6903F02003002B14D07B688E
:104F18005B6D43F001027B685A650023FB607B6888
:104F28001B689B68FB607B681B681A687B681B684A
:104F380022F040021A60FB687B685B6D002B3CD056
:104F48007B681B685A687B681B6822F0E0025A601D
:104F58007B68012283F85120FB6903F00203002BD0
:104F680004D1FB6903F00103002B22D07B681B6886
:104F78005A687B681B6822F003025A607B68DB6C06
:104F8800002B08D07B68DB6C0E4A5A637B68DB6CAD
:104F9800184601F04BFC7B689B6C002B0CD07B689F
:104FA8009B6C084A5A637B689B6C184601F03EFC70
:104FB80002E0786800F008F800BF00BF2037BD465F
:104FC80080BD00BFE34F000880B483B000AF7860B5
:104FD80000BF0C37BD4680BC704780B584B000AFB9
:104FE80078607B685B6AFB60FB680022DA87FB6895
:104FF8000022DA86F868FFF7E7FF00BF1037BD46E2
:1050080080BD80B582B000AF78607B68002B01D18D
:10501800012357E07B6800229A627B6893F851303D
:10502800DBB2002B02D17868FEF70EFC7B68022207
:1050380083F851207B681B681A687B681B6822F01C
:1050480040021A607B685A687B689B681A437B68D1
:10505800DB681A437B681B691A437B685B691A43E0
:105068007B689B6903F400731A437B68DB691A4306
:105078007B681B6A42EA03017B689A6A7B681B6843
:105088000A431A607B689B691B0C03F004017B6868
:105098005A6A7B681B680A435A607B681B687A688F
:1050A800D26A1A617B681B68DA697B681B6822F41C
:1050B8000062DA617B6800225A657B68012283F806
:1050C8005120002318460837BD4680BD80B48BB0F8
:1050D80000AF786039600023FB610023BB610023C7
:1050E8007B6100233B6200233B6100237B6233E149
:1050F80001227B6A02FA03F3FB613B681B68FA69C9
:105108001340BB61BA69FB699A4240F022813B684F
:105118005B68122B34D0122B0DD8022B2BD0022B0C
:1051280004D8002B31D0012B1CD048E0032B43D0EE
:10513800112B1BD043E08D4A934226D08B4A9342D1
:1051480006D88B4A934220D08A4A93421DD036E033
:10515800894A934219D0894A934216D0884A934281
:1051680013D02CE03B68DB683B6228E03B68DB68D7
:1051780004333B6223E03B68DB6808333B621EE094
:105188003B68DB680C333B6219E03B689B68002B8B
:1051980002D104233B6212E03B689B68012B05D1D6
:1051A80008233B627B68FA691A6108E008233B62BE
:1051B8007B68FA695A6102E000233B6200BFBB6961
:1051C800FF2B01D87B6801E07B680433FB60BB6977
:1051D800FF2B02D87B6A9B0002E07B6A083B9B009E
:1051E8003B61FB681A680F213B6901FA03F3DB4353
:1051F8001A40396A3B6901FA03F31A43FB681A60DB
:105208003B685B6803F08053002B00F0A2805D4B85
:105218009B695C4A43F0010393615A4B9B6903F015
:105228000103BB60BB68584A7B6A9B08023352F88B
:1052380023307B617B6A03F003039B000F2202FA91
:1052480003F3DB437A6913407B617B684F4A9342DF
:105258001FD07B684E4A934219D07B684D4A9342CF
:1052680013D07B684C4A93420DD07B684B4A9342DB
:1052780007D07B684A4A934201D105230AE00623F6
:1052880008E0042306E0032304E0022302E00123EC
:1052980000E000237A6A02F00302920093407A69E0
:1052A80013437B6138497B6A9B0802337A6941F86A
:1052B80023203B685B6803F48033002B06D0394B0E
:1052C8001A683849BB6913430B6006E0354B1A6806
:1052D800BB69DB43334913400B603B685B6803F4ED
:1052E8000033002B06D02F4B5A682E49BB69134355
:1052F8004B6006E02B4B5A68BB69DB4329491340D6
:105308004B603B685B6803F48013002B06D0254B89
:105318009A682449BB6913438B6006E0214B9A685D
:10532800BB69DB431F4913408B603B685B6803F430
:105338000013002B06D01B4BDA681A49BB691343CC
:10534800CB6006E0174BDA68BB69DB4315491340AD
:10535800CB607B6A01337B627B6A0F2B7FF6C8AE1A
:1053680000BF2C37BD4680BC704700BF000021102D
:10537800000011100000121000003110000032105F
:105388000000221000100240000001400008014007
:10539800000C0140001001400014014000180140B9
:1053A800001C01400004014080B483B000AF786065
:1053B8000B467B8013467B707B78002B03D07A8862
:1053C8007B681A6103E07B881A047B681A6100BF56
:1053D8000C37BD4680BC704780B586B000AF78609A
:1053E80000233B617B681B6803F00103002B00F07E
:1053F8008780924B5B6803F00C03042B0CD08F4B17
:105408005B6803F00C03082B12D18C4B5B6803F428
:105418008033B3F5803F0BD1884B1B6803F400330E
:10542800002B6CD07B685B68002B68D101232DE2D0
:105438007B685B68B3F5803F06D1804B1B687F4A69
:1054480043F4803313602EE07B685B68002B0CD13B
:105458007A4B1B68794A23F480331360774B1B68B7
:10546800764A23F4802313601DE07B685B68B3F5FC
:10547800A02F0CD1714B1B68704A43F48023136032
:105488006E4B1B686D4A43F4803313600BE06B4B23
:105498001B686A4A23F480331360684B1B68674AA9
:1054A80023F4802313607B685B68002B13D0FEF71E
:1054B80025FE386108E0FEF721FE02463B69D31A53
:1054C800642B01D90323E1E15C4B1B6803F400332F
:1054D800002BF0D014E0FEF711FE386108E0FEF76B
:1054E8000DFE02463B69D31A642B01D90323CDE193
:1054F800524B1B6803F40033002BF0D100E000BFCF
:105508007B681B6803F00203002B63D04B4B5B687E
:1055180003F00C03002B0BD0484B5B6803F00C0323
:10552800082B1CD1454B5B6803F48033002B16D144
:10553800424B1B6803F00203002B05D07B681B69F4
:10554800012B01D00123A1E13C4B1B6823F0F80299
:105558007B685B69DB00394913430B603AE07B6881
:105568001B69002B20D0364B01221A60FEF7C6FDBE
:10557800386108E0FEF7C2FD02463B69D31A022BE8
:1055880001D9032382E12D4B1B6803F00203002B92
:10559800F0D02A4B1B6823F0F8027B685B69DB00BC
:1055A800264913430B6015E0254B00221A60FEF7CD
:1055B800A5FD386108E0FEF7A1FD02463B69D31A54
:1055C800022B01D9032361E11C4B1B6803F0020382
:1055D800002BF0D17B681B6803F00803002B39D03F
:1055E8007B689B69002B19D0164B01221A60FEF7C5
:1055F80085FD386108E0FEF781FD02463B69D31A54
:10560800022B01D9032341E10C4B5B6A03F002032F
:10561800002BF0D0012000F0CBFA1BE0094B002250
:105628001A60FEF76BFD38610EE0FEF767FD024673
:105638003B69D31A022B07D9032327E10010024044
:105648000000424280044242924B5B6A03F002032C
:10565800002BEAD17B681B6803F00403002B00F0E1
:10566800A6800023FB758B4BDB6903F08053002B6E
:105678000DD1884BDB69874A43F08053D361854B52
:10568800DB6903F08053FB60FB680123FB75824BE9
:105698001B6803F48073002B18D17F4B1B687E4A6C
:1056A80043F480731360FEF729FD386108E0FEF7C4
:1056B80025FD02463B69D31A642B01D90323E5E093
:1056C800754B1B6803F48073002BF0D07B68DB6894
:1056D800012B06D16F4B1B6A6E4A43F0010313621C
:1056E8002DE07B68DB68002B0CD16A4B1B6A694A8A
:1056F80023F001031362674B1B6A664A23F0040315
:1057080013621CE07B68DB68052B0CD1614B1B6ABC
:10571800604A43F0040313625E4B1B6A5D4A43F020
:10572800010313620BE05B4B1B6A5A4A23F0010327
:105738001362584B1B6A574A23F0040313627B68B1
:10574800DB68002B15D0FEF7D9FC38610AE0FEF7BC
:10575800D5FC02463B69D31A41F28832934201D9FB
:10576800032393E04B4B1B6A03F00203002BEED09C
:1057780014E0FEF7C3FC38610AE0FEF7BFFC0246FE
:105788003B69D31A41F28832934201D903237DE061
:10579800404B1B6A03F00203002BEED1FB7D012B6B
:1057A80005D13C4BDB693B4A23F08053D3617B68CE
:1057B800DB69002B69D0374B5B6803F00C03082BBF
:1057C80061D07B68DB69022B46D1344B00221A601A
:1057D800FEF794FC386108E0FEF790FC02463B694E
:1057E800D31A022B01D9032350E02A4B1B6803F07C
:1057F8000073002BF0D17B681B6AB3F5803F08D19A
:10580800244B5B6823F400327B689B68214913436F
:105818004B60204B5B6823F474127B68196A7B68C1
:105828005B6A0B431B4913434B601C4B01221A60F4
:10583800FEF764FC386108E0FEF760FC02463B694D
:10584800D31A022B01D9032320E0124B1B6803F063
:105858000073002BF0D018E0104B00221A60FEF7FE
:105868004DFC386108E0FEF749FC02463B69D31A53
:10587800022B01D9032309E0064B1B6803F00073D0
:10588800002BF0D101E0012300E00023184618376F
:10589800BD4680BD001002400070004060004242DA
:1058A80080B584B000AF786039600023FB60724B2C
:1058B8001B6803F007033A689A4210D96E4B1B68BD
:1058C80023F007026C493B6813430B606A4B1B6863
:1058D80003F007033A689A4201D00123C8E07B68C5
:1058E8001B6803F00203002B08D0644B5B6823F0AD
:1058F800F0027B689B68614913434B607B681B68B7
:1059080003F00103002B6AD07B685B68012B07D189
:105918005A4B1B6803F40033002B15D10123A7E071
:105928007B685B68022B07D1544B1B6803F000733C
:10593800002B09D101239BE0504B1B6803F00203A5
:10594800002B01D1012393E04C4B5B6823F0030249
:105958007B685B68494913434B60FEF7CFFBF860EF
:105968007B685B68012B12D10AE0FEF7C7FB024691
:10597800FB68D31A41F28832934201D9032377E0B6
:105988003E4B5B6803F00C03042BEED127E07B68E9
:105998005B68022B1DD10AE0FEF7B0FB0246FB68EC
:1059A800D31A41F28832934201D9032360E0334B82
:1059B8005B6803F00C03082BEED110E0FEF79EFBAA
:1059C8000246FB68D31A41F28832934201D9032375
:1059D8004EE02A4B5B6803F00C03002BEED1264BFC
:1059E8001B6803F007033A689A4210D2224B1B68DF
:1059F80023F0070220493B6813430B601E4B1B68CA
:105A080003F007033A689A4201D0012330E07B682B
:105A18001B6803F00403002B08D0184B5B6823F4C1
:105A2800E0627B68DB68154913434B607B681B6841
:105A380003F00803002B09D0104B5B6823F4605275
:105A48007B681B69DB000D4913434B6000F01CF8B1
:105A580001460A4B5B681B0903F00F03084AD35C35
:105A680021FA03F3074A13600020FEF71DFB002309
:105A780018461037BD4680BD002002400010024085
:105A8800C4870008D001002090B48AB000AF2A4B28
:105A98003C1D0FCB84E80F00284B1B883B8000235C
:105AA800FB610023BB6100237B6200237B61002331
:105AB8003B62234B5B68FB61FB6903F00C03042B1F
:105AC80002D0082B03D02DE01E4B3B622DE0FB6972
