:020000040800F2
:1000000000C00020619B00082D4A0008394A000802
:100010003F4A0008454A00084B4A0008000000001B
:10002000000000000000000000000000514A00082D
:100030005D4A000800000000694A0008754A00088F
:10004000A99B0008A99B0008A99B0008A99B000880
:10005000A99B0008A99B0008A99B0008A99B000870
:10006000A99B0008A99B0008A99B0008854A0008D5
:10007000A99B0008A99B0008A99B0008994A0008B1
:10008000AD4A0008A99B0008C14A0008A99B0008C6
:10009000A99B0008A99B0008A99B0008A99B000830
:1000A000A99B0008A99B0008A99B0008A99B000820
:1000B000A99B0008A99B0008D54A0008A99B000835
:1000C000A99B0008E94A0008FD4A0008114B0008F6
:1000D000A99B0008254B00083D4B0008A99B000880
:1000E000A99B0008A99B0008A99B0008A99B0008E0
:1000F000A99B0008A99B0008A99B0008A99B0008D0
:10010000A99B0008A99B0008554B0008A99B000863
:10011000A99B0008A99B0008694B0008A99B00083F
:10012000A99B0008A99B0008A99B0008A99B00089F
:1001300000000000000000000000000000000000BF
:1001400000000000000000000000000000000000AF
:10015000000000000000000000000000000000009F
:10016000000000000000000000000000000000008F
:10017000000000000000000000000000000000007F
:10018000000000000000000000000000000000006F
:10019000000000000000000000000000000000005F
:1001A000000000000000000000000000000000004F
:1001B000000000000000000000000000000000003F
:1001C000000000000000000000000000000000002F
:1001D000000000000000000000000000000000001F
:0401E0005FF8E0F1F3
:1001E8000348044B834202D0034B03B118477047BE
:1001F800D4010020D4010020000000000548064971
:10020800091A891001EBD171491002D0034B03B1CF
:1002180018477047D4010020D401002000000000D6
:1002280010B5064C237843B9FFF7DAFF044B13B136
:100238000448AFF300800123237010BDD4010020CF
:1002480000000000C09E000808B5044B1BB104491B
:100258000448AFF30080BDE80840CFE70000000085
:10026800D8010020C09E000870B50D4E0D4D761BBC
:10027800B61006D00024013455F8043B9847A6422E
:10028800F9D1094E094D09F00BFE761BB61006D0C0
:100298000024013455F8043B9847A642F9D170BDB3
:1002A800C09E0008C09E0008C49E0008C09E0008AA
:1002B800F0B4860743D0541E002A3ED0CAB2034683
:1002C80002E014F1FF3438D303F8012B9D07F8D16D
:1002D800032C2BD9CDB245EA05250F2C45EA054557
:1002E80016D9A4F110073F0903F1200606EB0716FB
:1002F80003F1100242E9045542E902551032B242B4
:10030800F8D104F00F040137032C03EB07130DD9C0
:100318001E462246043A032A46F8045BFAD8221FEE
:1003280022F003020432134404F003042CB1C9B2CE
:100338001C4403F8011B9C42FBD1F0BC70471446D7
:100348000346C5E72DE9F047002B88B01E46DDE9D6
:1003580013A49046109D51DB0023129A1370662C4B
:100368001BD0462C19D0022124F02003452B08BFAE
:10037800013507AFCDE9001506A9CDE903174246B7
:100388003346CDF808A000F0DDFD672C074649D1BB
:10039800119BDB072ED53D4414E0032107AF0091E4
:1003A80006A93346CDE903174246CDE9015A00F0C4
:1003B800C9FD07463B7800EB0509302B25D0DAF854
:1003C80000504D44404631460022002302F0B4FF5D
:1003D80090B9079B9D4206D930215A1C0792197083
:1003E800079BAB42F9D33846159ADB1B136008B05C
:1003F800BDE8F087079BF6E72B46F4E72D2103F1CC
:1004080000431E46129B1970A9E740463146002258
:10041800002302F091FF0028D1D1C5F10105CAF8E7
:100428000050CEE7472CB3D03D44CBE70029F0B4C9
:10043800B4BF2D232B230546B8BF4942092905F827
:10044800022B82B043702BDD0DF107063446194F9D
:1004580000E01C46A7FB0132D20802EB8203A1EBA5
:1004680043033033092A04F8013C114604F1FF33F1
:10047800EFDC3031023CC9B2A64203F8011C0BD9AB
:100488001A462C4601E012F8011B964204F8011B9B
:10049800F9D102AAD31A1D44281A02B0F0BC704739
:1004A8003023051D1944C1708370281A02B0F0BCAE
:1004B800704700BFCDCCCCCC2DE9F04F91B00C46A5
:1004C800DDF868B016461F46054601F069FC03686A
:1004D80018460A9300F074FC0023DBF80010226829
:1004E80007310B9009920E9321F00701D1F8008093
:1004F800D1F8049042464B46083194F818A0CBF83E
:10050800001029F0004BC4E91223404659464FF029
:10051800FF32B44B02F042FF002854D140465946FE
:100528004FF0FF32AF4B02F01BFF00284BD1404683
:1005380049460022002302F009FF002840F092807B
:10054800099BA94A23F004032360A84B0321BAF1AD
:10055800470F8CBF904698464FF0000921610097DD
:1005680033460FAA2146284600F05AFA013025D012
:100578002368580500F1D28042462369314628464F
:10058800B84701301AD0226892070F98E36863D5FC
:100598001A1A002A60DD4FF0000804F1190904E076
:1005A800E3680F981A1A424556DD01234A46314638
:1005B8002846B847013008F10108F1D14FF0FF3063
:1005C80011B0BDE8F08F424640464B46494602F01E
:1005D800E5FE002876D1099B606843F48061431CDE
:1005E80000F09980BAF1670F40D0BAF1470F3DD0BB
:1005F8004FF0000C216042460DF1380E01910DF1CB
:1006080034080DF133014B460090CDE90218CDF8BE
:1006180010A0CDE905EC2846FFF794FE80460D9B17
:10062800BAF1650F65D9BAF1660F00F0B0800E9A7D
:100638009A4200F3B68022682361D20701D55A1C7A
:1006480022614FF00009A3659DF83330002B86D056
:100658002D2384F8433082E79842B8BF184611B07A
:10066800BDE8F08F2D2384F8433069E7002840F077
:10067800A0800123184663604FF0000C21604246B9
:100688000DF1380E01910DF134080DF133014B468F
:100698000090CDE90218CDF810A0CDE905EC284668
:1006A800FFF750FEBAF1670F80460D9B02D0BAF1F2
:1006B800470FB5D1D91C15DB62689A4212DB4FF09F
:1006C800670AB4E70321099B494A23F0040323601E
:1006D800484B2161BAF1470F8CBF904698464FF0BE
:1006E80000093CE7AAF1020A5FFA8AFABAF1650F33
:1006F80099D8013B1946524604F150000D93FFF773
:1007080095FE0E9A81461318012A236140F3A980A9
:100718000133236198E706206060ADE7BAF1650F01
:100728006CD9D4E912010022002302F005FE00284A
:1007380000F0A4800123304A31462846B8470130EA
:100748003FF43CAFDDE90D239A4280F2D980DDE920
:100758000A2331462846B84701303FF42FAF0E9B95
:10076800012B7FF710AF4FF0000804F11A0904E0DD
:100778000E9B013B43457FF706AF01234A463146AE
:100788002846B847013008F10108F1D116E7002BD7
:1007980062686BDD2361002A5ED001321A4422614F
:1007A8004FE7002BCCBF0121C3F102010A442261AB
:1007B80047E74FF0000C216042460DF1380E0191D9
:1007C8000DF134080DF133014B460090CDE90218C4
:1007D800CDF810A0CDE905EC2846FFF7B3FD0D9B39
:1007E800804667E7FFFFEF7F509E00084C9E000899
:1007F800589E0008549E00085C9E00080E9A012A24
:1008080040F383800123424631462846B8470130E9
:100818003FF4D4AEDDE90A2331462846B847013013
:1008280008F101083FF4CAAED4E91201DDF838A096
:10083800002200230AF1FF3B02F07EFD002849D187
:100848005B46424631462846B84701303FF4B6AECB
:100858004B4604F1500291E62168C8077FF5F1AED6
:100868009BE72268D2077FF5EFAE51E722B92168EE
:10087800C90701D401229AE7023298E70D9B002BA1
:100888004CDC0123654A31462846B84701303FF41D
:1008980095AE0D9B002B70D0DDE90A233146284622
:1008A800B84701303FF48AAE0D9B002B33DA4FF086
:1008B800000904F11A0A03E00D9B5B424B452ADD4F
:1008C8000123524631462846B847013009F101094B
:1008D800F2D173E6BAF1010FBADD4FF0000804F166
:1008E8001A0A03E00E9B013B4345B1DD0123524642
:1008F80031462846B847013008F10108F2D15DE6D3
:100908002268D1077FF540AE21E7D9073FF57AAFD6
:100918004246012396E742460E9B2FE60E9AA36DA8
:100928009A42A8BF1A46002A924608DD1346314665
:1009380042462846B84701303FF440AEA36D2AEA44
:10094800EA7211469A1A002A994621DD04F11A0B17
:10095800C1464FF0000AA0460C4604E0D8F85830CB
:100968001A1B524511DD01235A4631462846B8471D
:1009780001300AF1010AF1D120E60E9B002B8BD140
:100988002268D3077FF500AE86E74446C8469946F5
:10099800DDE90D239A42C8443BDADDE90A233146F2
:1009A8002846B84701303FF409AEDDE90D23A3EB33
:1009B8000909991A8945A8BF8946B9F1000F09DDC7
:1009C80042464B4631462846B84701303FF4F6AD1B
:1009D800DDE90D2329EAE9789B1AA3EB0803002B2C
:1009E8007FF7D1AD4FF0000904F11A0A07E0DDE9FD
:1009F8000D239B1AA3EB08034B457FF7C4AD0123D6
:100A0800524631462846B847013009F10109EED16E
:100A1800D4E52168C807C0D4C9E700BF5C9E0008B8
:100A28002DE9F0470C460969A56891468D42B8BF83
:100A38000D46156094F8431006461F46DDF82080E1
:100A480011B16A1CC9F80020236899065FD5D9F846
:100A580000200232C9F80020236813F0060F194657
:100A68001DD1E1688A1A002AD8BF194617DD00256A
:100A780004F1190A05E0E368D9F800209B1AAB4293
:100A88000CDD0123524639463046C047013005F196
:100A98000105F0D14FF0FF30BDE8F087216894F8E8
:100AA8004330003318BF01238A060AD53021E218E3
:100AB80082F8431094F845105A1C224482F84310D7
:100AC800023304F1430239463046C0470130E1D0D1
:100AD800D4E902202368D9F8005003F00603042B58
:100AE80021691AD08A421FDD4FF00009521A914439
:100AF80000251A3401E04D4516D001232246394617
:100B08003046C047013005F10105F4D1C2E713F0C2
:100B1800060F0CD1D9F80020A3E7401B8A4220EA2F
:100B2800E079E3DC0028E3DC0020BDE8F08794F8F6
:100B38004330003318BF0123C3E700BF2DE9F0435A
:100B48000C46097E85B06E2906461746984604F17C
:100B5800430C0C9D4AD00FD8632900F0FE8000F2A8
:100B6800BE8000294ED0582940F0E08084F8451016
:100B78002268DFF844E212E0732900F0C5807AD8D1
:100B88006F2900F0DA80702940F0D080206840F0AA
:100B9800200222607823DFF824E284F845302B68AD
:100BA800191D1B682960150602D4500648BF9BB260
:100BB800D10744BF42F020022260002B6CD1D4E957
:100BC800001284F84330002A21F020032360A26039
:100BD8007DDB21F0240121601021002A78D16546AF
:100BE80008294ED0ACEB050323610EE02B68226880
:100BF800181D6169286015061B6802D4500600F1AB
:100C0800C6801960002365462361CDF800803B4605
:100C180003AA21463046FFF703FF013020D02A46B9
:100C2800236939463046C047013019D022680398F5
:100C38009207E36819D51A1A002A16DD002504F16F
:100C4800190904E0E36803981A1AAA420DDD012382
:100C58004A4639463046C047013005F10105F1D111
:100C68004FF0FF3005B0BDE8F0839842B8BF184692
:100C780005B0BDE8F08375295FD0782956D1226880
:100C880088E72368DB07ADD5626823699A42A9DC47
:100C98003023013D2B70A5E71021002284F8432062
:100CA8006268002AA2602CDB206820F00400206023
:100CB800002B92D06546B3FBF1F201FB12331EF80C
:100CC8000300134605F8010D002AF4D188E7102126
:100CD8009EF8003004F1420584F8423080E7642928
:100CE80001D0692922D120682B68010603F104028A
:100CF80045D51B682A60002B4BDB0A21DFF8B8E0DA
:100D0800CEE7002BD6D1E3E72B686268191D29606E
:100D18001D680021284601F06FF8002845D0401BC7
:100D280060602061002384F843306EE7012384F873
:100D38004210236104F14205F4E720682B6810F0A3
:100D4800800F03F1040213D01B682A606F290CBFBF
:100D580008210A21DFF860E09FE701222B68191DAE
:100D68001B68296004F1420584F842302261D9E702
:100D7800400653BF1B682A601B882A60E6E74106C5
:100D880053BF1B682A60B3F900302A60B3E71980A3
:100D980038E72D2162685B42002A84F84310A2607C
:100DA80005DB0A21DFF810E07FE76068B9E7DFF8C4
:100DB80008E00A217EE700BF609E0008749E0008D4
:100DC80020F0030110F00300C0F1000051F8043BCB
:100DD80000F1040C4FEACC0C6FF000021CBF22FAA1
:100DE8000CF213434FF0010C4CEA0C2C4CEA0C4C5F
:100DF800A3EB0C0222EA030212EACC1204BF51F858
:100E0800043B0430F4D0C2F1000102EA0102B2FA54
:100E180082F2C2F11F0200EBD2007047000000000E
:100E28002DE9F04F03690E6983B0B342C0F28680A2
:100E3800013E01F1140800F1140958F8263059F858
:100E480026700133B7FBF3F7B300009308EB030AEE
:100E58004B440193002F3BD00023C6461C46CC468A
:100E68005EF8042BDCF800501FFA82FB07FB0B33FB
:100E7800120C4FEA134B07FB02BB9AB2A21AABB291
:100E88001FFA8BF41A44C4EB154404EB224492B2C3
:100E980042EA0442F2454CF8042B4FEA24444FEA54
:100EA8001B43DDD2009B59F803308BB9019A131FFD
:100EB80099450CD252F8043C4BB9A2F1080302E060
:100EC8001A68043B1AB9994506F1FF36F8D306614A
:100ED800044601F0DFFA00282CDB4D4600230137D9
:100EE80058F8041B28688AB29A1A0B0C81B20A4473
:100EF800C3EB104303EB224392B242EA0342C245DA
:100F080045F8042B4FEA2343EAD259F8262009EB87
:100F180086037AB91A1F91450BD253F8042C42B9AB
:100F2800083B02E01A68043B1AB9994506F1FF36F6
:100F3800F8D32661384603B0BDE8F08F002003B02F
:100F4800BDE8F08F2DE9F04F16461F46456A99B067
:100F58000446CDE90267002D00F0EF802B6853B1FD
:100F680001226D681946AA40C3E9015201F034F81C
:100F78000022636A1A603E1EB4BF01230023259A2B
:100F8800B8BF26F000461360794BB8BF0396B34349
:100F980000F0A680DDE90289002200234046494688
:100FA80002F0CAF9074678B10123249A1360269BF8
:100FB800002B00F0CB806F4B269A03F1FF391360AA
:100FC800484619B0BDE8F08F16AA17ABCDE9003234
:100FD800204642464B4601F07BFB350D834640F0E8
:100FE8009F80DDE91685454405F23243202B40F306
:100FF8005184C3F140039E40029B05F2124023FA3C
:1010080000F0304301F0B6FE0122013D0A92A1F141
:10101800F8710022584B01F06FFD4FA3D3E900236C
:1010280001F022FF4EA3D3E9002301F067FD064635
:1010380028460F4601F0AEFE4BA3D3E9002301F08A
:1010480013FF02460B463046394601F057FD064667
:101058000F4602F0B9F900220590002330463946C0
:1010680002F074F9002840F08282059E162E00F2E4
:101078006C82DDE90223414901EBC601D1E9000197
:1010880002F082F9002800F00C84731E05930023F7
:101098000D93A8EB0505B5F1010A00F16282002362
:1010A8000693059B002BC0F253829A440C930023AD
:1010B8000B93229B092B69D8052BC4BF043B2293B1
:1010C800229BC8BF0026A3F10203D8BF0126032B29
:1010D80000F2A684DFE813F00804E80313040B0504
:1010E80042F20F73249A1360029B83B9C6F3130666
:1010F8006EB9269BDFF88890002B3FF461AF09F1A9
:1011080008034846269A136019B0BDE8F08F269B5D
:10111800DFF87090002B3FF453AF09F10303F0E7B9
:10112800C9F3130343F07F514046A5F2FF350A97F0
:1011380041F44011DDF858806BE7102000F04CFEB8
:101148006062C0E901550560C56014E7DFF83890B2
:10115800484619B0BDE8F08F61436F63A787D23F57
:10116800B3C8608B288AC63FFB799F501344D33F8E
:101178000000F07F5D9E00080000F83F189C000802
:10118800889E0008949E00085C9E00084FF0FF357A
:1011980001260023CDE908562293239300231946FC
:1011A800676A14957B60204600F0E2FE636A0E2DA4
:1011B8003860D3F8009000F2FC80002E00F0F9802F
:1011C800DDE9022316461F460599CDE90E67002979
:1011D80040F3E6839A4B01F00F020D1103EBC203B3
:1011E800D3E90012CDE90212EA0640F19E84954B3C
:1011F8003946D3E90823304601F060FF0327CDE9DB
:10120800100105F00F057DB1DDE902018D4EEB07F8
:1012180004D5D6E9002301F027FE01376D1006F149
:101228000806F4D1CDE90201DDE90223DDE9100168
:1012380001F044FFCDE902010D9B43B1DDE9020154
:101248000022814B02F082F8002840F007853846DA
:1012580001F0A0FDDDE9022301F006FE7B4B002230
:1012680001F04CFC089B0546A1F15076002B00F0DC
:101278001784059B1593089B1093DDE9020102F082
:10128800A3F8109A6E4B00F1300803EBC20353E940
:101298000212CDE9121201F07DFD0B460246DDE98E
:1012A8000201CDE9025601F027FC099B5FFA88F894
:1012B80006460F4609F10105002B00F05784DDE9C9
:1012C80012230020624901F0F9FEDDE9022301F052
:1012D80013FC89F8008032463B46CDE9020102F052
:1012E80053F8002840F00C8532463B46002056490A
:1012F80001F002FCDDE9022302F028F8002840F0A2
:101308000985109A012A50D04A44CDF848A0CDF852
:1013180040B0A046DDE902ABCDF8089091460EE05A
:1013280032463B460020484901F0E6FB52465B4600
:1013380002F00CF8002840F0E6844D452ED05046C7
:1013480059460022434B01F08FFD0022414B824653
:101358008B463046394601F087FD0F46064602F0B7
:1013680033F8044601F016FD02460B46304639466E
:1013780001F0C2FB3034E4B205F8014B52465B463B
:1013880006460F4601F0E2FF0028C9D0159BDDF89C
:1013980040B0DDF808904446059339E24446DDF84C
:1013A80048A0DDF840B0DDF80890DDE90E23CDE96E
:1013B8000223179B002BC0F2A980059A0E2A00F37E
:1013C800A5801F4B03EBC203D3E90023CDE9062315
:1013D800239B002BC0F2C082DDE90267DDE906230A
:1013E8003046394601F06AFE01F0EEFF804601F012
:1013F800D1FCDDE9062301F037FD02460B463046F5
:10140800394601F079FB089E08F13005012E89F86C
:10141800005002460B4609F101054CD000220D4B45
:1014280001F022FD0022002306460F4601F084FF4A
:10143800002840F0ED81CDF808B0DDE906AB18E0F2
:10144800189C0008089D00080000F03F00001C40A0
:101458000000E03F000024400022C64B01F004FDDC
:101468000022002306460F4601F066FF002840F0E0
:10147800418352465B463046394601F01FFE01F073
:10148800A3FF804601F086FC52465B4601F0ECFC67
:1014980002460B463046394601F02EFB08F130066D
:1014A80005F8016B089FA5EB0906B74202460B46F3
:1014B800D2D1DDF808B01046194601F01FFBDDE96E
:1014C800062306460F4601F05FFF60B9DDE90623F3
:1014D8003046394601F030FF002800F0998118F0B5
:1014E800010F00F0958115F8018C05E0994500F091
:1014F8007D831D4613F8018CB8F1390F05F1FF33D0
:10150800F4D008F1010883F8008081E1099A002AE3
:101518003DD0229A012A40F31182089B03F1FF383B
:101528000B9B4345C0F2E982A3EB0808089B002BFC
:10153800C0F20E83069A9A440A921A44069201212E
:10154800204600F03FFE064626E001230D93A0E565
:1015580000230C93DDE90532D21A5B4206920B9305
:10156800A7E5C5F1010306934FF0000A99E5DDF8F8
:101578001490484601F00EFC32463B4601F0DCFE72
:1015880000287FF472AD09F1FF3305936DE5069BE2
:10159800DDF82C80099E0A930A9900290B460CDD78
:1015A800BAF1000F09DD5145A8BF5346069AAAEBC8
:1015B800030AD21A0692CA1A0A920B9B7BB1099A9D
:1015C800002A00F08D82A3EB0807B8F1000F40F065
:1015D800998159463A46204600F0A4FE83460121E7
:1015E800204600F0EFFD0C9A0746002A40F02581BE
:1015F800229B012B40F3C7830120504410F01F00A9
:1016080000F01981C0F12003042B40F3B783C0F127
:101618001C00069B8244034406930A9B03440A93D6
:10162800069B002B05DD59461A46204600F0D6FEDB
:101638008346BAF1000F05DD39465246204600F0D0
:10164800CDFE07460D9B002B77D1089B002B40F35E
:101658000582099B002B00F089800A9B002B00F370
:1016680066810C9B002B40F0C481B246C846029BA1
:10167800089A03F001030A9309F1FF331A4406920A
:10168800CDF82C9039465846FFF7CAFB31468146BB
:101698000990584600F0FEFE524602903946204610
:1016A80000F014FFC268054609F130090146002A16
:1016B80040F0CF81584600F0EDFE294608902046BC
:1016C80000F08AFC089A32B9229B23B90A9B002BA6
:1016D80000F02483229A029B002BC0F2198205D1C4
:1016E800229B1BB90A9B002B00F01282002A08F1EA
:1016F800010500F32182069B88F80090434500F01D
:101708002C82594600230A22204600F081FC5645C7
:10171800834631464FF000034FF00A02204600F09E
:10172800928100F075FC5146064600230A222046A5
:1017380000F06EFCA8468246A4E73946584600F0F9
:10174800A9FE002881DA059D594600230A22204671
:10175800013D059500F05CFC099B8346002B40F099
:10176800EE82149B002B40F3F98208934D46DDF876
:10177800208008E000002440594600230A22204621
:1017880000F046FC834639465846FFF749FB30309F
:1017980005F8010BA5EB09024245EDDB00220346E3
:1017A8000292594601222046089300F017FE394656
:1017B800834600F06FFE002815F8012C089B11DC09
:1017C80005D1DB070ED402E015F8022C1D46302A9D
:1017D80005F1FF33F8D00BE0994500F04C811D4628
:1017E80013F8012C392A05F1FF33F5D001321A70AC
:1017F8003946204600F0F0FB56B1029921B1B142BA
:1018080002D0204600F0E8FB3146204600F0E4FB19
:101818005946204600F0E0FB0022059B2A70249AD6
:1018280001331360269B002B3FF4CAAB48461D606A
:1018380019B0BDE8F08F1C20EBE60146204600F009
:1018480071FD229B0746012B00F3E780029B002BCA
:1018580040F0E380DDE90212C2F31303002B40F0ED
:10186800CF8122F000431B0D1B052BB1069B0AF10B
:10187800010A0133069301230C9A0C93002A3FF4C2
:10188800BBAE3B6907EB8303186900F04BFCC0F162
:101898002000B2E6C3F12006029B03FA06F0FFF728
:1018A800B1BB0D90FFF7F5BB00230993059B239A65
:1018B80013445D1C012D14932B46B8BF01239C468D
:1018C80008950021676ABCF1170F79607FF66BAC49
:1018D800012204235B0003F114006045114602F164
:1018E8000102F7D979605EE400230993239B002B5A
:1018F80040F3F1809C461D4614930893E1E70123C9
:101908000993F3E742463146204600F00BFD5A465C
:1019180001460646204600F05FFC804659462046B0
:1019280000F05AFBC346002F3FF459AE51E631464A
:101938001A46204600F052FD064692E60A9A002A08
:1019480000F06081069A03F233430A921A449A44DB
:101958000692DDF82C80F2E5089B002B3FF73CADA2
:1019680040F0F981DDE906010022B64B01F07CFA6E
:10197800DDE9022301F0FEFC089F3E46002875D1F0
:101988003123059A89F800300132059209F10105E1
:101998003946204600F020FB002E7FF435AF37E7AC
:1019A80000F04981DDE90E01059B5D42A64B05F07B
:1019B8000F0203EBC203D3E9002301F055FA2D11FE
:1019C800CDE9020100F0CF81002302279F4EEA07EC
:1019D80005D5D6E9002301F047FA01231F446D100D
:1019E80006F10806F3D1002B3FF426ACCDE902013D
:1019F80022E47168204600F0BBFA0546336906F117
:101A08000C0102339A000C3000F03CFA29460122FE
:101A1800204600F0E3FC824628E600230C9330E7DA
:101A28000025666A29467560204600F0A1FA636AB7
:101A380030604FF0FF32D3F80090012308922395CD
:101A480014920993B5E400F0E3FAA84606468246E4
:101A580018E6204600F0C0FA01223CE6229B022B41
:101A68007FF7F7AD089B002B00F0D780239B4D46EE
:101A7800DB4305938CE73123059A89F8003001325E
:101A88000592B5E6384601F085F9DDE9022301F053
:101A9800EBF900226E4B01F031F80546A1F15076C2
:101AA800DDE902010022674B01F026F82A46334699
:101AB800CDE9020101F068FC0746002853D1DDE9B1
:101AC80002012A4606F1004301F040FC00283FF4D9
:101AD8006CAC3E46CAE7012523950895FFF75EBB27
:101AE80059460B9A204600F01DFC834677E50123F2
:101AF8000993DBE6DDF808B08AE60B9B0C9AA8EBA5
:101B080003031A44CDF82C800C924FF000080DE521
:101B1800002A4B4608F10105DDF82C9000F3C5803A
:101B2800029688F80030564662E6DDE90E23022761
:101B3800CDE91023FFF767BB4B46392BDDF82C9016
:101B480000F0C5800133029688F8003056464FE60B
:101B5800069B089A9B1A0A93F1E44B460296DDF815
:101B68002C9056461DE600273E4609E7DDE912237C
:101B7800DDE9020101F078F9109BCDE90201012BA2
:101B880089F8008021D0109BCDF840A04B449A469C
:101B98000022304B3046394601F066F90F460646BA
:101BA80001F012FC804601F0F5F802460B4630467B
:101BB800394600F0A1FF08F1300805F8018B5545BA
:101BC80006460F46E4D1DDF840A00022DDE9020117
:101BD800214B00F093FF32463B4601F0B7FB00284B
:101BE8007BD0159B059315F8018C85E4302389F883
:101BF8000030059B15F8018C013305934B4680E4B2
:101C0800002339E6169B069AC3F136030A921A4452
:101C18009A440692DDF82C8091E439460522204644
:101C280000F0F6F901460746584600F033FC002854
:101C38003FF7A6AE1AE7DDE90E230227CDE9022316
:101C4800FFF7FABA00001440189C0008089D000825
:101C580000001C40000024400000E03F089B002BCF
:101C68003FF410AF149B002B7FF79FABDDE9020117
:101C78000022474B01F0F8F805460E46781CCDE9DE
:101C8800025601F087F82A46334601F0EDF80022A3
:101C9800404B00F033FF059A149B013A0546159214
:101CA800A1F150761093FFF7E8BA59460122204671
:101CB800029300F093FB3946834600F0EBFB0028C3
:101CC800029B36DD392B02D0099B313328E73922B4
:101CD800029688F80020564684E5DDE902230020B4
:101CE8002D4900F009FF32463B4601F04DFB10B983
:101CF800FFF75BBB154615F8013C6A1E302BF9D07F
:101D0800159B059384E54346A0461C46DDF840B084
:101D1800DDF80890159B0593FFF7EEBB4B46392B72
:101D2800DDF82C9008F10105D1D0029A002ACBDC0D
:101D3800F6E67FF4F5AEDA077FF5F2AEC2E7314694
:101D480000230A22204600F063F9149B0646002B64
:101D58000CDD089381E400273E4687E6229B022B90
:101D680009DC149B01E50227FFF766BA229B022BC8
:101D780001DC149BEDE7149B089373E63FF450AC29
:101D8800C0F13C0045E4029B002B3FF463AD33E413
:101D98000000244000001C400000E03FF030704785
:101DA800044A054B1268106A002808BF1846F0302C
:101DB800704700BF0000002064000020044A054B63
:101DC8001268106A002808BF1846F030704700BF34
:101DD8000000002064000020024B0146186800F053
:101DE800C7BD00BF00000020024B0146186800F084
:101DF8006BBD00BF00000020830770B4CDB23DD09A
:101E0800541E0AB30378AB421FD0431C05E014F1FB
:101E1800FF3419D30278AA4217D013F0030F1846DB
:101E280003F10103F3D1032C11D84CB30378AB426F
:101E38000BD00444431C02E00278AA4205D09C421D
:101E4800184603F10103F7D1002070BC704706461D
:101E58000A0292B22A4342EA0242336830465340A9
:101E6800A3F1013121EA030313F0803F06F10406D0
:101E7800DCD1043C032C3046EFD8D6E71446D2E731
:101E88002046E2E7844641EA000313F0030349D100
:101E9800403A23D30B6803604B6843608B688360C8
:101EA800CB68C3600B6903614B6943618B698361CC
:101EB800CB69C3610B6A03624B6A43628B6A8362B4
:101EC800CB6AC3620B6B03634B6B43638B6B83639C
:101ED800CB6BC36340304031403ADBD230320BD356
:101EE8000B6803604B6843608B688360CB68C36092
:101EF80010301031103AF3D20C3205D351F8043BAC
:101F080040F8043B043AF9D2043208D0D2071CBF87
:101F180011F8013B00F8013B01D30B8803806046B0
:101F2800704700BF082A13D38B07B1D010F0030302
:101F3800AED0C3F10403D21ADB071CBF11F8013B72
:101F480000F8013BA4D331F8023B20F8023B9FE79D
:101F5800043AD9D3013A11F8013B00F8013BF9D210
:101F68000B7803704B7843708B78837060467047AA
:101F780070B5446A06460D465CB1E3689BB153F8F8
:101F88002500E0B1026843F825200023C0E90333A7
:101F980070BD1020FFF720FF002304467062C0E9DF
:101FA80001330360C36021220421304600F07EFC27
:101FB800736AE060DB68002BE1D1002070BD01216D
:101FC80001FA05F4621D3046920000F06FFC00280B
:101FD800F3D0C0E90154D8E730B5456A83B0044668
:101FE80055B139B1636A4A68DB6853F82200086062
:101FF80043F8221003B030BD10200191FFF7ECFE2A
:1020080001996062C0E901550560C560E9E700BF54
:10201800F0B54FF0000C0C4605460E6983B001F18F
:10202800140738680CF1010C81B202FB0133010C72
:10203800180C02FB01019BB203EB0143664547F80C
:10204800043B4FEA1143ECDC3BB1A268B24207DD26
:1020580004EB8602013653612661204603B0F0BDC9
:102068006168284601310193FFF782FF074622691C
:1020780004F10C01023292000C30FFF703FF2146F5
:102088002846FFF7A9FF3C46019BE1E72DE9F84305
:10209800234C1E46083384FB034CDB17C3EB6C0C44
:1020A800BCF1010F07460C469046089D35DD01231B
:1020B80000215B009C4501F10101FADC3846FFF77D
:1020C80057FF0123B8F1090FC0E9043521DD04F1F8
:1020D80009094D46444415F8013B0146303B0A22A4
:1020E8003846FFF795FFAC42F5D109EB0804083CE8
:1020F80046450CDDA6EB0806264414F8013B0146CC
:10210800303B0A223846FFF783FFA642F5D1BDE8E7
:10211800F8834FF009080A34EAE70021CEE700BF48
:10212800398EE338020C12040346C2B903041020A6
:1021380013F07F4F04BF1B02083013F0704F04BF29
:102148001B01043013F0404F04BF9B000230002BEA
:1021580004DB5B0001D50130704720207047002068
:10216800E6E700BF0368014613F0070207D0DA0765
:102178001FD498071FD55B080B600120704798B2E1
:10218800A0B1104613F0FF0F04BF1B0A08301A074E
:1021980004BF1B0904309A0704BF9B080230DA0702
:1021A80002D45B080BD001300B6070471B0C102069
:1021B800E8E7002070479B080B600220704720204A
:1021C800704700BF10B50C460121FFF7D1FE012270
:1021D800C0E9042410BD00BF2DE9F04F0D69146952
:1021E80085B0A5420E46914604DA2A464E46254653
:1021F80089461446B36805EB040871684345B8BFBF
:102208000131FFF7B5FE00F1140B0BEB880AD3453B
:10221800019005D25B46002243F8042B9A45FBD86F
:1022280009F1140303EB840406F11402A34202EB40
:10223800850E62D2A4EB0904153C24F00304234460
:10224800CDE902A809F1100990469A4605E0090C63
:102258002CD1CA450BF1040B4DD059F8041F1FFAB5
:1022680081FCBCF1000FF2D047465E46002100E039
:102278000646304657F8042B346893B2A5B2120CC0
:102288000CFB0353240C0CFB02420B4402EB1341DE
:102298009BB243EA0143BE454FEA114140F8043B73
:1022A800E6D87160D9F80010090CD2D0DBF80030FC
:1022B80040461E465D46002200E025462C4607881B
:1022C800360C01FB07669BB2324443EA024344F8EA
:1022D800043B50F8043B6E681B0CB7B201FB037358
:1022E800864503EB12434FEA1342E6D8CA456B60B2
:1022F8000BF1040BB1D1DDE902A8B8F1000F0BDD39
:102308005AF8043CAAF1040A1BB105E05AF8043D46
:1023180013B9B8F10108F9D10198C0F8108005B0D7
:10232800BDE8F08F2DE9F04112F0030382B01446A6
:1023380007462DD10E46A4101CD07B6A8BB39D682E
:10234800002D38D0E3074FF0000806D4641011D0F0
:10235800286898B10546E307F8D531462A46384635
:10236800FFF73AFF0346314638461E46FFF734FE6C
:102378006410EDD1304602B0BDE8F0812A46294606
:102388003846FFF729FF2860C0F800800546E2E7D5
:10239800114A013B52F823200023FFF739FE064675
:1023A800C9E71020FFF718FD002203467862C0E94C
:1023B80001220260C260012138460193FFF7D8FD6F
:1023C80001210546002240F27120019BC5E9041055
:1023D8009D602A60B6E700BF089C00080B692DE9DC
:1023E800F0474FEA621A0AEB03088B6808F1010408
:1023F8009C420D4691460746496804DD5B009C42B5
:1024080001F10101FADC3846FFF7B2FDBAF1000F1D
:10241800064600F114033ADD002203EB8A0143F873
:10242800042B8B42FBD1286905F1140319F01F090D
:1024380003EB800C23D0C9F120024FF0000A00E022
:1024480071468E46186800FA09F040EA0A004EF80C
:10245800040B53F8040B9C4520FA02FAF0D8C1F893
:1024680004A0BAF1000F01D008F10204013C38467B
:1024780034612946FFF7B0FD3046BDE8F0870439DE
:1024880053F8042B9C4541F8042FF9D8EEE7194678
:10249800C9E700BF30B40B6905460069C01A0FD1FF
:1024A8009B001435143119442B4401E09D4207D296
:1024B80053F8044D51F8042D9442F7D002D301206B
:1024C80030BC70474FF0FF30FAE700BF2DE9F84FF6
:1024D8000C6913698946E41A002C924601F1140725
:1024E80002F1140B14D19B00FA185B4401E0BA42C4
:1024F80062D952F8045D53F8041D8D42F7D009D211
:102508003A464B465F46D14693469A46012401E037
:10251800F6DB0024D9F80410FFF72AFD5E464FF0D9
:102528000008D9F810C0DAF810303D46C4600BEB4B
:10253800830E07EB8C0700F1140455F8049B56F83A
:10254800042B1FFA89F343441FFA82F8120CA3EBF9
:102558000803C2EB194202EB23429BB243EA02434F
:10256800B64544F8043B4FEA2248E6D8AF4217D9AB
:10257800A6462E4656F8043B99B241440A1402EB8B
:10258800134289B241EA0243B7424EF8043B4FEA8C
:102598002248EFD8ED432F4427F0030704373C4483
:1025A800043C2BB954F8043D0CF1FF3C002BF9D046
:1025B800C0F810C0BDE8F88F0021FFF7D9FC012250
:1025C8000023C0E90423BDE8F88F00BF0F4B0B4080
:1025D800A3F15073002B02DD0020194670475B42BF
:1025E8001B15132B0BDD143B1E2BD7BF0122012318
:1025F800C3F11F0302FA03F30021184670474FF492
:102608000022002042FA03F1704700BF0000F07F6B
:102618002DE9F041076900F1140606EB870757F822
:10262800048C4046FFF77EFDC0F120030A280B60AA
:10263800A7F1040218DC96422CBF002257F8082C98
:10264800C0F10B0328FA03F138BFDA4000F1150393
:1026580041F07F5508FA03F345F4401543EA0204B4
:1026680020462946BDE8F0819642A0F10B031DD211
:1026780057F8080CE3B108FA03F848F07F58C3F19B
:102688002001A7F1080220FA01FC48F440189642FC
:1026980000FA03F048EA0C0503D257F80C3CCB408B
:1026A8001843044620462946BDE8F08133B9184648
:1026B80048F07F5545F440150446F3E7002008FA32
:1026C80003F343F07F5545F440150446EAE700BF9D
:1026D8002DE9F0411C4682B00121DDE908659046EC
:1026E800FFF746FC2346C4F30A540746C3F3130313
:1026F8000CB143F48013B8F1000201931ED002A874
:1027080040F8082DFFF72EFD70BBDDE900237A6144
:10271800002B0CBF01210221BB613961CCB907EB49
:102728008103A0F2324030601869FFF7FBFCC0EB70
:1027380041102860384602B0BDE8F08101A8FFF7D3
:1027480011FD0122019B11462030C7E90423002C0A
:10275800E5D0A4F233430344C0F135003360286068
:10276800384602B0BDE8F081019BC0F12002009913
:1027780003FA02F20A43C34001937A61C8E700BF33
:102788002DE9F04383B00F4669460646FFF740FF40
:1027980004460D46384601A9FFF73AFF36693A69FB
:1027A8008946DDE90013B61ACB1A03EB4613002B52
:1027B80080460BDD05EB03573D4642464B46204617
:1027C800294600F07BFC03B0BDE8F083C3EB03337C
:1027D80009EB03518946F0E71728D0B504460ADD0E
:1027E800002000260749084F32463B4600F03CFBD4
:1027F800013CF9D1D0BD054B03EBC004D4E9040179
:10280800D0BD00BF0000F03F00002440089C000835
:1028180070B414694D1E02F1140303EB84016D11A9
:1028280001358B4200EB85040CD2051F53F8046B6D
:10283800994245F8046FF9D88B1A153B23F0030326
:1028480004331844844204D9002340F8043B8442EA
:10285800FBD870BC704700BF036910B44C11A34289
:1028680000F114020FDA02EB83039A421CD253F8E8
:10287800040C043B18B114E053F8041D89B99A42BA
:10288800FAD310BC704702EB8403EEDD11F01F0190
:10289800EBD052F8244024FA01F000FA01F18C42FE
:1028A800E3D0012010BC70470020EAE738B502FBEE
:1028B80001F4214600F05CF8054618B122460021D3
:1028C800FDF7F6FC284638BD002934D038B551F854
:1028D800043C0C1F002BB8BFE418054600F0E6F8CE
:1028E800224B1A682AB1A2420DD921686018824287
:1028F80035D0626028461C60BDE8384000F0D8B882
:10290800A34203D81A465368002BF9D1116850180E
:10291800A04218D010D821686018834203BFD3E9B9
:1029280000030918C4E90013636054602846BDE831
:10293800384000F0BDB870470C2328462B60BDE82E
:10294800384000F0B5B8206801445018834211603F
:10295800ECD1D3E900030144C2E90013E6E7D2E968
:1029680000020144C4E90012C4E700BFF0010020DE
:10297800F8B5CD1C25F0030508350C2D38BF0C25FE
:10298800002D06463ADBA94238D82A4F00F08EF8C7
:102998003A6852B113685B1B04D433E023685B1BAD
:1029A80025D522465468002CF8D1796800293BD0F7
:1029B8002946304600F040F8431C2AD0C41C24F0B5
:1029C8000304A04205D0211A304600F035F8013042
:1029D8001FD02560304600F06BF804F10B0020F0A2
:1029E8000700231DC31A01D05A42E250F8BD0B2B31
:1029F8000BD8A24215D063685360EBE70C23002084
:102A08003360F8BD0B2B0BD9144623601C4425609A
:102A1800E0E70C233046336000F04AF80020F8BDA8
:102A280054683C601446D5E7304600F005F87860F5
:102A3800BEE700BFF001002038B50023064C05466C
:102A48000846236000F0E8FC431C00D038BD23682A
:102A5800002BFBD02B6038BD080C002030B4064C8E
:102A6800064D2468246A002C08BF2C46D4F8E4409C
:102A7800A44630BC604700BF00000020640000206E
:102A880082B049B15AB16BB113780B601278101C3F
:102A980018BF012002B0704701A9002AF3D11046DF
:102AA80002B070476FF00100F4E700BF704700BF45
:102AB800704700BF30B4064C064D2468246A002CC9
:102AC80008BF2C46D4F8E040A44630BC604700BF9D
:102AD800000000206400002019B1FF2A03D80A7002
:102AE8000121084670478A234FF0FF310360F8E759
:102AF80081F0004102E000BF83F0004330B54FEAA7
:102B080041044FEA430594EA050F08BF90EA020F13
:102B18001FBF54EA000C55EA020C7FEA645C7FEAA6
:102B2800655C00F0E2804FEA5454D4EB5555B8BFC9
:102B38006D420CDD2C4480EA020281EA030382EA3A
:102B4800000083EA010180EA020281EA0303362DCC
:102B580088BF30BD11F0004F4FEA01314FF4801C9F
:102B68004CEA113102D0404261EB410113F0004FB1
:102B78004FEA03334CEA133302D0524263EB430368
:102B880094EA050F00F0A780A4F10104D5F1200E06
:102B98000DDB02FA0EFC22FA05F2801841F1000161
:102BA80003FA0EF2801843FA05F359410EE0A5F135
:102BB80020050EF1200E012A03FA0EFC28BF4CF066
:102BC800020C43FA05F3C01851EBE37101F000451C
:102BD80007D54FF0000EDCF1000C7EEB00006EEB29
:102BE8000101B1F5801F1BD3B1F5001F0CD34908B3
:102BF8005FEA30004FEA3C0C04F101044FEA44520A
:102C080012F5800F80F09A80BCF1004F08BF5FEA90
:102C1800500C50F1000041EB045141EA050130BD70
:102C28005FEA4C0C404141EB010111F4801FA4F113
:102C38000104E9D191F0000F04BF01460020B1FA68
:102C480081F308BF2033A3F10B03B3F120020CDAA0
:102C58000C3208DD02F1140CC2F10C0201FA0CF07E
:102C680021FA02F10CE002F11402D8BFC2F1200CE3
:102C780001FA02F120FA0CFCDCBF41EA0C01904099
:102C8800E41AA2BF01EB0451294330BD6FEA0404E2
:102C98001F3C1CDA0C340EDC04F11404C4F12002CD
:102CA80020FA04F001FA02F340EA030021FA04F3DF
:102CB80045EA030130BDC4F10C04C4F1200220FA36
:102CC80002F001FA04F340EA0300294630BD21FA74
:102CD80004F0294630BD94F0000F83F4801306BF3A
:102CE80081F480110134013D4EE77FEA645C18BF2E
:102CF8007FEA655C29D094EA050F08BF90EA020FC5
:102D080005D054EA000C04BF1946104630BD91EABC
:102D1800030F1EBF0021002030BD5FEA545C05D1BF
:102D28004000494128BF41F0004130BD14F58004FE
:102D38003CBF01F5801130BD01F0004545F0FE4172
:102D480041F470014FF0000030BD7FEA645C1ABFA7
:102D5800194610467FEA655C1CBF0B46024650EADE
:102D6800013406BF52EA033591EA030F41F400210A
:102D780030BD00BF90F0000F04BF0021704730B590
:102D88004FF4806404F132044FF000054FF0000165
:102D980050E700BF90F0000F04BF0021704730B526
:102DA8004FF4806404F1320410F0004548BF4042FB
:102DB8004FF000013EE700BF42004FEAE2014FEA50
:102DC80031014FEA02701FBF12F07F4393F07F4F2B
:102DD80081F06051704732F07F4208BF704793F02E
:102DE8007F4F04BF41F40021704730B54FF4607441
:102DF80001F0004521F000411CE700BF50EA010244
:102E080008BF704730B54FF000050AE050EA0102EC
:102E180008BF704730B511F0004502D5404261EB5C
:102E280041014FF4806404F132045FEA915C3FF49D
:102E3800D8AE4FF003025FEADC0C18BF03325FEA3A
:102E4800DC0C18BF033202EBDC02C2F1200300FAEB
:102E580003FC20FA02F001FA03FE40EA0E0021FA10
:102E680002F11444BDE600BF70B54FF0FF0C4CF4FE
:102E7800E06C1CEA11541DBF1CEA135594EA0C0FB0
:102E880095EA0C0F00F0DEF82C4481EA030621EAEB
:102E98004C5123EA4C5350EA013518BF52EA033526
:102EA80041F4801143F4801338D0A0FB02CE4FF0D8
:102EB8000005E1FB02E506F00042E0FB03E54FF008
:102EC8000006E1FB03569CF0000F18BF4EF0010E00
:102ED800A4F1FF04B6F5007F64F5407404D25FEAFC
:102EE8004E0E6D4146EB060642EAC62141EA5551AF
:102EF8004FEAC52040EA5E504FEACE2EB4F1FD0CF1
:102F080088BFBCF5E06F1ED8BEF1004F08BF5FEA6E
:102F1800500E50F1000041EB045170BD06F0004620
:102F280046EA010140EA020081EA0301B4EB5C04CD
:102F3800C2BFD4EB0C0541EA045170BD41F48011C5
:102F48004FF0000E013C00F3AB8014F1360FDEBFEA
:102F5800002001F0004170BDC4F10004203C35DAC6
:102F68000C341BDC04F11404C4F1200500FA05F349
:102F780020FA04F001FA05F240EA020001F00042EA
:102F880021F0004110EBD37021FA04F642EB060160
:102F98005EEA430E08BF20EAD37070BDC4F10C048A
:102FA800C4F1200500FA04F320FA05F001FA04F24E
:102FB80040EA020001F0004110EBD37041F100013A
:102FC8005EEA430E08BF20EAD37070BDC4F1200545
:102FD80000FA05F24EEA020E20FA04F301FA05F2AD
:102FE80043EA020321FA04F001F0004121FA04F255
:102FF80020EA020000EBD3705EEA430E08BF20EA25
:10300800D37070BD94F0000F0FD101F0004640005E
:1030180041EB010111F4801F08BF013CF7D041EAE0
:10302800060195F0000F18BF704703F000465200E4
:1030380043EB030313F4801F08BF013DF7D043EAB5
:103048000603704794EA0C0F0CEA135518BF95EA6B
:103058000C0F0CD050EA410618BF52EA4306D1D1F2
:1030680081EA030101F000414FF0000070BD50EA11
:10307800410606BF1046194652EA430619D094EA9B
:103088000C0F02D150EA013613D195EA0C0F05D185
:1030980052EA03361CBF104619460AD181EA0301D9
:1030A80001F0004141F0FE4141F470014FF0000091
:1030B80070BD41F0FE4141F4780170BD70B54FF02C
:1030C800FF0C4CF4E06C1CEA11541DBF1CEA1355AC
:1030D80094EA0C0F95EA0C0F00F0A7F8A4EB05048E
:1030E80081EA030E52EA03354FEA013100F0888085
:1030F8004FEA03334FF0805545EA131343EA12634E
:103108004FEA022245EA111545EA10654FEA002602
:103118000EF000419D4208BF964244F1FD0404F5BB
:10312800407402D25B084FEA3202B61A65EB030517
:103138005B084FEA32024FF480104FF4002CB6EBD4
:10314800020E75EB030E22BFB61A754640EA0C0054
:103158005B084FEA3202B6EB020E75EB030E22BF94
:10316800B61A754640EA5C005B084FEA3202B6EBD5
:10317800020E75EB030E22BFB61A754640EA9C0094
:103188005B084FEA3202B6EB020E75EB030E22BF64
:10319800B61A754640EADC0055EA060E18D04FEA22
:1031A800051545EA16754FEA06164FEAC30343EAC2
:1031B80052734FEAC2025FEA1C1CC0D111F4801F8F
:1031C8000BD141EA00014FF000004FF0004CB6E788
:1031D80011F4801F04BF01430020B4F1FD0C88BF27
:1031E800BCF5E06F3FF6AFAEB5EB030C04BFB6EB32
:1031F800020C5FEA500C50F1000041EB045170BD25
:103208000EF0004E4EEA113114EB5C04C2BFD4EB51
:103218000C0541EA045170BD41F480114FF0000ED5
:10322800013C90E645EA060E8DE60CEA135594EA51
:103238000C0F08BF95EA0C0F3FF43BAF94EA0C0F54
:103248000AD150EA01347FF434AF95EA0C0F7FF4C9
:1032580025AF104619462CE795EA0C0F06D152EA1D
:1032680003353FF4FDAE1046194622E750EA410601
:1032780018BF52EA43067FF4C5AE50EA41047FF412
:103288000DAF52EA43057FF4EBAE12E74FF0FF3C77
:1032980006E000BF4FF0010C02E000BF4FF0010C48
:1032A8004DF804CD4FEA410C7FEA6C5C4FEA430CC1
:1032B80018BF7FEA6C5C1BD001B050EA410C0CBF10
:1032C80052EA430C91EA030F02BF90EA020F002072
:1032D800704710F1000F91EA030F58BF994208BFD9
:1032E80090422CBFD8176FEAE37040F00100704796
:1032F8004FEA410C7FEA6C5C02D150EA013C07D1ED
:103308004FEA430C7FEA6C5CD6D152EA033CD3D037
:103318005DF8040B704700BF8446104662468C4631
:103328001946634600E000BF01B5FFF7B7FF002864
:1033380048BF10F1000F01BD4DF808EDFFF7F4FF8D
:103348000CBF012000205DF808FB00BF4DF808ED18
:10335800FFF7EAFF34BF012000205DF808FB00BF3B
:103368004DF808EDFFF7E0FF94BF012000205DF85D
:1033780008FB00BF4DF808EDFFF7CEFF94BF012012
:1033880000205DF808FB00BF4DF808EDFFF7C4FF0B
:1033980034BF012000205DF808FB00BF4FEA410C54
:1033A8007FEA6C5C02D150EA013C0AD14FEA430C37
:1033B8007FEA6C5C02D152EA033C02D14FF0000074
:1033C80070474FF0010070474FEA410212F50012B2
:1033D80015D211D56FF47873B3EB625212D94FEA54
:1033E800C12343F0004343EA505311F0004F23FA3E
:1033F80002F018BF404270474FF00000704750EA93
:10340800013005D111F0004008BF6FF0004070474F
:103418004FF00000704700BF044A05491368002BAD
:1034280008BF0B461844106018467047F801002082
:103438000C0C002080B584B000AF78607B681B68F6
:103448001B6803F01003102B24D10023BB60134B1F
:103458001B681B68BB60114B1B685B68BB60BB6863
:103468000E4802F0A5FA0D4B5B6B1B685B68FB60AE
:10347800FB689BB2C3F500739AB2094B5A80084A9D
:10348800137843F0010313704FF4007205490348A1
:1034980002F00EFA00BF1037BD4680BD540B002065
:1034A800140600201806002080B582B000AF002363
:1034B800FB710C4B1B68DA680A4B1B6842F0100260
:1034C800DA604FF400720849064802F0F1F9002268
:1034D8000221064803F0D7F9FB7918460837BD469C
:1034E80080BD00BF540B00201806002000100140CA
:1034F80080B582B000AF0023FB710C4B1B68DA6803
:103508000A4B1B6842F01002DA604FF40072084957
:10351800064802F0CDF900220421064803F0B3F969
:10352800FB7918460837BD4680BD00BF940B0020C4
:10353800140400200010014080B586B000AFF86088
:103548000B467A607B810023FB75012202210D481E
:1035580003F099F97A894FF6FF73F9680A4802F07F
:103568000DF90346FB7500220221064803F08BF98A
:10357800FB7D002B01D00123FB75FB7D1846183716
:10358800BD4680BD00100140540B002080B500AF3F
:1035980000224FF40071024803F075F900BF80BDA6
:1035A800000C014080B582B000AF0023FB710122FE
:1035B8004FF40041144803F066F9012240211348F2
:1035C80003F061F901228021104803F05CF9104BE7
:1035D80000229A700E4B0122DA700D4B00229A726B
:1035E8000B4B00225A720A4B00229A74084B002295
:1035F800DA72074B0022DA73642001F059FDFB7977
:1036080018460837BD4680BD000C01400010014037
:10361800E80B002080B584B000AF0346FB7100239F
:10362800FB73FB79002B0FD100228021124803F095
:103638002AF900224FF40041104803F024F900222F
:1036480040210D4803F01FF9FB79012B0FD100220F
:103658008021094803F017F901224FF40041074877
:1036680003F011F900224021034803F00CF9FB7B19
:1036780018461037BD4680BD00100140000C0140BF
:1036880080B582B000AF0023FB7101228021094878
:1036980003F0F9F801224FF40041074803F0F3F86A
:1036A80001224021034803F0EEF8FB791846083759
:1036B800BD4680BD00100140000C014080B582B0BD
:1036C80000AF0023FB716B4BDB7B002B01D0FB7938
:1036D800CCE0694B1B78002B01D0FB79C6E0654B29
:1036E8001B78002B09D0634B5B78002B05D0FFF7C4
:1036F800C7FF0123FB71FB79B8E05E4B1B78002BF9
:103708002FD05C4B5B78002B2BD15A4B1B7B002BAB
:1037180003D1584B5B7B002B01D0FB79A6E0554BBE
:103728001B7C002B02D0534B00221A74514B5B7C3C
:10373800012B0ED14F4B9B78002B0AD14D4BDB78D8
:10374800012B04D14B4B01221A72FB798EE0FB79D5
:103758008CE0484B00221A74464B01225A74FB79BC
:1037680084E0444B1B78002B1FD1424B5B78002B25
:103778001BD0404B1B7C002B0BD03E4BDB78002B27
:1037880007D13C4B01221A723A4B00225A74FB793A
:103798006CE0384B5B7C002B07D0364B00225A7408
:1037A800344B00221A74FB7960E0324B1B78002BF3
:1037B8005BD1304B5B78002B57D12E4B1B7C002BF9
:1037C80016D02C4B9B78002B04D02A4B00225A741D
:1037D800FB794BE0274B0022DA70264B01221A7442
:1037E800244B00225A74234B01221A72FB793DE0C4
:1037F800204B5B7C002B26D01E4B9B78002B1AD0CD
:103808001C4B1B7B002B07D11A4B5B7B002B03D176
:10381800184B9B7B002B0CD0FFF732FF154B002277
:103828009A70144B01221A74144B0022DA71FB7936
:103838001CE0FB791AE00F4B0122DA700D4B0122D4
:103848001A72FB7912E00B4B9B78002B0DD1094BB8
:103858000122DA70074B01221A74064B00225A74AF
:10386800044B01221A72FB7900E0FB7918460837ED
:10387800BD4680BDE80B0020FF0B0020D40B0020C4
:1038880080B582B000AF0023FB710E4B1B7A002B72
:1038980013D00C4B9B78002B04D00A4B00221A72D1
:1038A800FB790BE0074B01229A70064BDB78184630
:1038B800FFF7B0FE034B00221A72FB79184608374F
:1038C800BD4680BDE80B002080B483B000AFFF2365
:1038D800BB710023FB710023FB7109E0FB79094AE6
:1038E800D35C002B01D1FB7906E0FB790133FB7136
:1038F800FB790F2BF2D9BB7918460C37BD4680BC33
:10390800704700BFFC03002080B485B000AF78602A
:103918000B467B807B681B78FB730123BB8109E026
:10392800BB897A6813441A78FB7B5340FB73BB89C5
:103938000133BB81BA897B889A42F1D3FB7B184655
:103948001437BD4680BC704780B586B000AFF860BC
:10395800B9607A603B6000237B757B681B7803F055
:103968000103DBB2002B01D17B7DC2E17A681378B9
:103978006FF3000313707B685B7903F0F003A02BEF
:1039880045D1BB681B7D052B01D97B7DB1E17B68E7
:103998001B795B2B03D17B685B7A5D2B01D07B7D28
:1039A800A7E17B680433013303211846FFF7ACFF16
:1039B80003463B757B681B7A3A7D9A4201D07B7D32
:1039C80097E1BB681B7D1A467B685979BB68995497
:1039D800BB681B7D19467B689A79BB680B445A7192
:1039E800BB681B7D19467B68DA79BB680B449A7201
:1039F800BB681B7D1A46BB6813440122DA73BB6897
:103A08001B7D0133DAB2BB681A757B7D71E1FB68F7
:103A18005B7A002B01D07B7D6BE1FB681B7A9AB245
:103A2800FB689B889A427BD2FB681B7A002B77D075
:103A38000023FB826DE07B681A1DFB8A1A44FB6831
:103A48001B7A053319463B680B4412781A70FB68D9
:103A58001B7A0133DAB2FB681A72FB689A88FB6832
:103A68001B7A9BB29A4251D17B681A1DFB8A01339B
:103A780013441A78FB689A707B681A1DFB8A023314
:103A880013441B785D2B0AD0FB6800221A72FB686E
:103A980000229A80FB680022DA807B7D29E1FB689E
:103AA8009B8807339AB2FB68DA803B685A1CFB682C
:103AB800DB88033B9BB219461046FFF725FF0346F8
:103AC8003B75FB689B783A7D9A420AD0FB680022D6
:103AD8001A72FB6800229A80FB680022DA807B7DDC
:103AE80007E1FB681B7A05331A463B6813443A7DA5
:103AF8001A70FB681B7A06333A6813445D221A7001
:103B0800FB683A68DA60FB6801225A72FB8A013363
:103B1800FB827B685B88FA8A9A428CD37B7DE8E0DB
:103B2800FB68DB88002B40F0E3807B681B795B2B0C
:103B380001D07B7DDDE07B685A79FB681A707B6871
:103B48009A79FB685A707B68DB799BB21B029AB240
:103B58007B681B7A9BB213449AB2FB689A80FB6815
:103B68009B88002B43D17B689B7A5D2B01D07B7DA2
:103B7800BFE07B685A7AFB689A70FB680722DA8094
:103B88003B685B221A703B680133FA6812781A7036
:103B98003B680233FA6852781A703B6803337A68D4
:103BA800D2791A703B6804337A68127A1A703B68C3
:103BB800013304211846FFF7A7FE03463B75FB684F
:103BC8009B783A7D9A4204D0FB680022DA807B7D9C
:103BD8008FE03B680533FA6892781A703B680633C1
:103BE8005D221A70FB6801225A727B7D81E00523F1
:103BF800FB8278E07B681A1DFB8A1A44FB8A3968C5
:103C08000B4412781A70FB681B7A0133DAB2FB682E
:103C18001A72FB689A88FB681B7A9BB29A425FD13A
:103C28007B681A1DFB681B7A063313441B785D2BCF
:103C380008D0FB6800229A80FB6800221A72FB6891
:103C48000022DA807B681A1DFB8A013313441A7834
:103C5800FB689A70FB689B8807339AB2FB68DA8026
:103C68007B6804335A1CFB68DB88033B9BB219460C
:103C78001046FFF749FE03463B75FB689B783A7D83
:103C88009A4204D0FB680022DA807B7D31E03B68F1
:103C98005B221A703B680133FA6812781A703B6825
:103CA8000233FA6852781A703B6803337A68D2791B
:103CB8001A703B6804337A68127A1A70FB8A0133E7
:103CC8003A681344FA6892781A70FB8A02333A68A1
:103CD80013445D221A70FB6801225A727B7D08E04A
:103CE800FB8A0133FB827B685B88FA8A9A4281D31C
:103CF8007B7D18461837BD4680BD000080B582B070
:103D080000AF0023FB71064B064A07490748FFF737
:103D18001BFE0346FB71FB7918460837BD4680BD7C
:103D2800FC01002014060020D40800208808002088
:103D380080B582B000AF0023FB71994B5B7A002BF2
:103D480000F07681FFF7C0FD0346BB71BB79FF2BFE
:103D580001D1FB796DE1924B1B7803F0F003D02B76
:103D680079D0D02B04DCB02B09D0C02B2FD01FE189
:103D7800E02B00F0D480F02B00F0F18018E1BB7943
:103D8800884AAB21D154864B1B78B22B1FD1844B68
:103D98005B78012B1BD1BB79824A134402221A7427
:103DA800BB79804A1344012283F850207E4B0122BC
:103DB8001A707D4ABB795370BB797C4A0121D15472
:103DC8007A4B1B7C0133DAB2784B1A74F3E0BB7977
:103DD800744AAC21D154724B1B78C12B0ED1BB79DC
:103DE800704A134401221A74BB79704A0121D154D4
:103DF8006E4B1B7C0133DAB26C4B1A74684B1B7820
:103E0800C22B0ED1BB79674A134402221A74BB79BC
:103E1800664A0121D154654B1B7C0133DAB2634BEE
:103E28001A745F4B1B78C32B0ED1BB795D4A1344C0
:103E380003221A74BB795D4A0121D1545B4B1B7C68
:103E48000133DAB2594B1A74BB79564A134401222A
:103E580083F85020AFE0BB79524AAD21D154504B82
:103E68001B78D02B54D1BB794E4A134400221A74C4
:103E78004B4B5B78012B0FD1BB794A4A1344012283
:103E880083F82020BB79494A0221D154474B1B7C37
:103E98000133DAB2454B1A74414B5B78022B0FD1D0
:103EA800BB79404A1344022283F82020BB793F4A59
:103EB8000221D1543D4B1B7C0133DAB23B4B1A74BF
:103EC800374B5B78032B0FD1BB79364A1344032257
:103ED80083F82020BB79354A0221D154334B1B7C0F
:103EE8000133DAB2314B1A742D4B5B78042B0FD1A6
:103EF800BB792C4A1344042283F82020BB792B4A2F
:103F08000221D154294B1B7C0133DAB2274B1A7496
:103F1800BB79244A1344012283F850204BE0BB7933
:103F2800204AAE21D154BB791E4A1344FF221A7489
:103F3800BB791C4A1344002283F82020BB79194A14
:103F48001344012283F85020BB79184A0221D15426
:103F5800164B1B7C0133DAB2144B1A742BE0BB7975
:103F6800104AAF21D154BB790E4A1344FF221A7468
:103F7800BB790C4A1344002283F82020BB79094AF4
:103F88001344012283F85020BB79084A0221D154F6
:103F9800064B1B7C0133DAB2044B1A740BE000BFEA
:103FA800880800201808002098080020FC0300203A
:103FB8000423FB7100BF214B1B78012B2CD1204B14
:103FC8001B78002B1AD11E4B01221A721C4B01229E
:103FD8001A741B4B00225A74194B0022DA70194BC1
:103FE80001221A70154B5B781A46174B9B5C1A46D0
:103FF800164B1344002283F8202007E00F4B5B7810
:104008001A46124B1344012283F820200B4B5B788D
:104018001A460D4B022199540D4B00221A720C4B73
:1040280000229A800A4B0022DA80094B00225A7239
:10403800FB7918460837BD4680BD00BF98080020A8
:10404800E80B0020FF0B0020FC03002018080020CC
:104058008808002080B582B000AF0023BB71002320
:10406800FB712F4B1B7C002B01D1BB7954E05B23E8
:104078003B705D237B710023FB7149E0FB79284A83
:10408800D35C022B41D1FB79264AD35C7B70FB7948
:10409800244A13441B7CBB70FB79224A134493F8CF
:1040A8002030FB703B46013303211846FFF72CFCF8
:1040B80003463B71FB791B4A134493F85030012B9C
:1040C8000CD1FB79174A1344002283F850203B4651
:1040D8004FF6FF7206211846FFF72EFAFB79114AB0
:1040E800134493F85030022B05D1FB790D4A134441
:1040F800002283F85020FB79094A0021D154084B4B
:104108001B7C013BDAB2064B1A74FB790133FB7155
:10411800FB790F2BB2D9BB7918460837BD4680BD4D
:10412800FC0300201808002080B588B000AF524B6F
:104138009B69514A43F0100393614F4B9B6903F00D
:104148001003FB60FB684C4B9B694B4A43F0200310
:104158009361494B9B6903F02003BB60BB68464BE6
:104168009B69454A43F004039361434B9B6903F001
:1041780004037B607B68404B9B693F4A43F008031C
:1041880093613D4B9B6903F008033B603B68002249
:1041980042F2C601394802F076FB00224FF4324160
:1041A800374802F070FB42F2C6033B6101237B6192
:1041B8000223FB6107F110031946304802F0DEF9CB
:1041C8004FF488733B6100237B610123BB6107F1D6
:1041D80010031946294802F0D1F989233B610023CD
:1041E8007B610123BB6107F110031946244802F0E3
:1041F800C5F94FF432433B6101237B610223FB6124
:1042080007F1100319461E4802F0B8F94FF480432D
:104218003B6100237B610023BB6107F11003194652
:10422800174802F0ABF94FF400733B6100237B6140
:104238000223BB6107F110031946104802F09EF9EA
:1042480004233B6100237B610023BB6107F110035A
:1042580019460C4802F092F910233B6100237B6158
:104268000223BB6107F110031946054802F086F9DD
:1042780000BF2037BD4680BD00100240001001403D
:10428800000C01400014014080B584B000AF234BFE
:10429800234A1A60214B4FF480729A601F4B002208
:1042A800DA601E4B00225A611C4B4FF46022DA611F
:1042B8001A4B00225A60194B02221A61174800F063
:1042C80015FF0346002B03D04521164800F06CFE6D
:1042D8000D237B600123BB600723FB603B1D194650
:1042E8000E4801F0C3F80346002B03D04F210D48B8
:1042F80000F05AFE10237B600223BB603B1D194669
:10430800064801F0B3F80346002B03D058210548AE
:1043180000F04AFE00BF1037BD4680BDEC08002003
:1043280000240140AC9B000880B588B000AF7860DD
:104338007B681B68234A93423FD1234B9B69224ADF
:1043480043F400739361204B9B6903F40073FB6093
:10435800FB6808233B6103237B6107F110031946BF
:104368001A4802F00BF91A4B1A4A1A60184B002225
:104378005A60174B00229A60154B8022DA60144B62
:104388004FF400721A61124B4FF400625A61104BDD
:1043980020229A610E4B0022DA610D4803F044FC9A
:1043A8000346002B03D07C210B4800F0FDFD7B6801
:1043B800074A1A62064A7B68536200BF2037BD4627
:1043C80080BD00BF002401400010024000100140E1
:1043D8001C09002008000240AC9B000880B483B090
:1043E80000AF084B5B69074A43F001035361054B73
:1043F8005B6903F001037B607B6800BF0C37BD4637
:1044080080BC70470010024080B500AF134B144ABF
:104418001A60124B134A5A60104B00229A600F4BD5
:104428000022DA600D4B4FF480421A610B4B0022D8
:104438005A610A4B00229A61084B0022DA61074B45
:1044480000221A62054804F06FF80346002B03D0D7
:104458004221054800F0A8FD00BF80BD600900208A
:1044680000580040A0860100B89B000880B588B0BD
:1044780000AF78607B681B680F4A934218D14FF4ED
:1044880040633B6112237B610323FB6107F1100347
:1044980019460A4802F072F8094BDB69084A43F4E6
:1044A8008003D361064BDB6903F48003FB60FB6880
:1044B80000BF2037BD4680BD00580040000C0140B9
:1044C8000010024080B500AF194B1A4A1A60184B09
:1044D8004FF482725A60164B00229A60144B4FF4C4
:1044E8000062DA60124B00221A61114B00225A61F5
:1044F8000F4B4FF400729A610D4B0822DA610C4B96
:1045080000221A620A4B00225A62094B00229A6260
:10451800074B0A22DA62064801F0CBFF0346002B5C
:1045280003D04521044800F03FFD00BF80BD00BF17
:10453800B409002000300140C49B000880B588B051
:1045480000AF78607B681B68194A93422BD1194BDE
:104558009B69184A43F480539361164B9B6903F493
:104568008053FB60FB68A0233B6102237B6103232C
:10457800FB6107F1100319460F4801F0FFFF4023C4
:104588003B6100237B610023BB6107F110031946DF
:10459800094801F0F3FF00220021232002F01FFF49
:1045A800232002F038FF00BF2037BD4680BD00BF82
:1045B80000300140001002400008014080B586B07C
:1045C80000AF204B204A1A601E4B47225A601D4BF1
:1045D80000229A601B4B3122DA601A4B00221A61C2
:1045E800184B00229A61174802F058FF0346002B27
:1045F80003D04121154800F0D7FC4FF48053BB602D
:1046080007F1080319460F4803F095F80346002BF5
:1046180003D047210D4800F0C7FC00233B6000236E
:104628007B603B461946074803F0A7FA0346002B70
:1046380003D04E21054800F0B7FC00BF1837BD462F
:1046480080BD00BF0C0A002000080040D09B000875
:1046580080B586B000AF204B204A1A601E4B472217
:104668005A601D4B00229A601B4B40F2E732DA6019
:10467800194B00221A61184B00229A61164802F061
:104688000DFF0346002B03D06021154800F08CFC79
:104698004FF48053BB6007F1080319460E4803F036
:1046A8004AF80346002B03D066210D4800F07CFC35
:1046B80000233B6000237B603B461946064803F015
:1046C8005CFA0346002B03D06D21054800F06CFC12
:1046D80000BF1837BD4680BD4C0A0020000C0040C2
:1046E800D09B000880B582B000AF164B164A1A60FE
:1046F800144B47225A60134B00229A60114BC72271
:10470800DA60104B00229A610E4802F0C7FE034699
:10471800002B03D07D210D4800F046FC00233B60B0
:1047280000237B603B461946064803F026FA0346F9
:10473800002B03D08421054800F036FC00BF083761
:10474800BD4680BD8C0A002000100040D09B0008A8
:1047580080B586B000AF78607B681B681F4A9342BB
:104768000CD11F4BDB691E4A43F00403D3611C4B79
:10477800DB6903F004037B617B692AE07B681B68C3
:10478800184A93420CD1164BDB69154A43F00803CB
:10479800D361134BDB6903F008033B613B6918E005
:1047A8007B681B68104A934213D10D4BDB690C4A96
:1047B80043F01003D3610A4BDB6903F01003FB607D
:1047C800FB6800220021362002F009FE362002F0A4
:1047D80022FE00BF1837BD4680BD00BF000800405C
:1047E80000100240000C00400010004080B500AFEF
:1047F800124B134A1A60114B4FF4E1325A600F4BB7
:1048080000229A600D4B0022DA600C4B00221A61DC
:104818000A4B0C225A61094B00229A61074B00226D
:10482800DA61064800F05DFF0346002B03D04621FD
:10483800044800F0B9FB00BF80BD00BF540B002046
:1048480000380140DC9B000880B500AF124B134ACA
:104858001A60114B4FF4E1325A600F4B00229A60F4
:104868000D4B0022DA600C4B00221A610A4B0C2215
:104878005A61094B00229A61074B0022DA61064807
:1048880000F02FFF0346002B03D05921044800F005
:104898008BFB00BF80BD00BF940B0020004400408C
:1048A800DC9B000880B588B000AF78607B681B6827
:1048B800534A93424ED1534B9B69524A43F4804327
:1048C8009361504B9B6903F48043FB60FB684FF492
:1048D80000733B6102237B610323FB6107F1100333
:1048E8001946494801F04AFE4FF480633B610023B2
:1048F8007B610123BB6107F110031946424801F0AF
:104908003DFE424B424A1A60404B00225A603F4BE0
:1049180000229A603D4B8022DA603C4B00221A61EB
:104928003A4B00225A61394B00229A61374B0022D8
:10493800DA61364803F078F90346002B03D0842166
:10494800344800F031FB7B68304A5A632F4A7B6851
:10495800536250E07B681B682F4A93424BD1294B26
:10496800DB69284A43F40033D361264BDB6903F43F
:104978000033BB60BB6804233B6102237B610323D4
:10498800FB6107F1100319461F4801F0F7FD0823E2
:104998003B6100237B610123BB6107F110031946CA
:1049A800194801F0EBFD1D4B1D4A1A601B4B0022F4
:1049B8005A601A4B00229A60184B8022DA60174B13
:1049C80000221A61154B00225A61144B00229A6189
:1049D800124B0022DA61114803F026F90346002B36
:1049E80003D0AF210B4800F0DFFA7B680B4A5A630B
:1049F8000A4A7B68536200BF2037BD4680BD00BFAE
:104A0800003801400010024000080140100B00204F
:104A180058000240DC9B000800440040CC0A0020FB
:104A28006C00024080B400AF00BFBD4680BC704738
:104A380080B400AFFEE780B400AFFEE780B400AFFB
:104A4800FEE780B400AFFEE780B400AF00BFBD460C
:104A580080BC704780B400AF00BFBD4680BC7047C3
:104A680080B400AF00BFBD4680BC704780B500AFC2
:104A780000F006FB02F006FD00BF80BD80B500AF68
:104A8800024803F0E7FA00BF80BD00BF1C09002000
:104A980080B500AF024803F0DDFA00BF80BD00BF5B
:104AA800100B002080B500AF024803F0D3FA00BF16
:104AB80080BD00BFCC0A002080B500AF024800F0DE
:104AC800FFFB00BF80BD00BFEC08002080B500AF31
:104AD800024802F028FD00BF80BD00BF0C0A00207C
:104AE80080B500AF024803F0FFFD00BF80BD00BFE6
:104AF8006009002080B500AF024803F0F9FE00BF4E
:104B080080BD00BF6009002080B500AF024801F0F9
:104B1800EDFB00BF80BD00BFB409002080B500AF29
:104B28000348FEF787FC024800F09EFF00BF80BDE7
:104B3800540B002080B500AF0348FEF77BFC024809
:104B480000F092FF00BF80BD940B002080B500AF3D
:104B5800024802F0E8FC00BF80BD00BF4C0A0020FC
:104B680080B500AF024802F0DEFC00BF80BD00BF88
:104B78008C0A002080B582B000AF244B9B69234A81
:104B880043F001039361214B9B6903F001037B60B0
:104B98007B68032002F018FC002200216FF00B0054
:104BA80002F01DFC002200216FF00A0002F017FC41
:104BB800002200216FF0090002F011FC0022002100
:104BC8006FF0040002F00BFC002200216FF00300DC
:104BD80002F005FC002200216FF0010002F0FFFB4B
:104BE800002200214FF0FF3002F0F9FB084B5B6810
:104BF800074A23F0E0635360054B5B68044A43F0BF
:104C08000073536000BF0837BD4680BD00100240E6
:104C18000000014080B500AF00F000FA00F038F85D
:104C2800FFF782FAFFF7DAFBFFF72EFBFFF7ECFB43
:104C3800FFF748FCFFF7C2FCFFF70AFDFFF7D6FDB8
:104C4800FFF702FEFFF74EFD00F086F80D4802F070
:104C580050FC0D4802F04DFC0C4802F04AFCFEF7EF
:104C6800A1FCFEF793FCFEF71FFCFEF741FCFFF7E3
:104C780045F8FFF75DF8FFF7EDF9FEF71FFDFEF7C2
:104C8800FFFDF4E70C0A00204C0A00208C0A0020E3
:104C980080B596B000AF01233B634FF480337B634C
:104CA8000023BB6301233B640223FB644FF480337E
:104CB8003B654FF4E0137B6507F13003184601F0BC
:104CC800FBFD0346002B03D0BB21214800F06CF903
:104CD8000F23FB6102233B6200237B624FF4806356
:104CE800BB620023FB6207F11C030221184602F095
:104CF80047F80346002B03D0C921154800F054F9A2
:104D080002237B604FF40043FB603B1D184602F012
:104D1800DDF90346002B03D0D0210D4800F044F9FB
:104D280002F084F902460B4BA3FB02239B091846A9
:104D380002F07FFB042002F089FB002200214FF0E3
:104D4800FF3002F04CFB00BF5837BD4680BD00BFA6
:104D5800E89B0008D34D621080B500AF0022002107
:104D6800252002F03CFB252002F055FB0022002103
:104D7800262002F034FB262002F04DFB0022002101
:104D8800322002F02CFB322002F045FB00220021E9
:104D98001E2002F024FB1E2002F03DFB0022002111
:104DA8000B2002F01CFB0B2002F035FB0022002137
:104DB8000F2002F014FB0F2002F02DFB002200212F
:104DC800102002F00CFB102002F025FB002200212D
:104DD800122002F004FB122002F01DFB0022002129
:104DE800212002F0FCFA212002F015FB002200210C
:104DF800222002F0F4FA222002F00DFB00BF80BD51
:104E080080B582B000AF78605B4B1A687B681B681E
:104E18009A423BD10821594801F01EFD03461A4623
:104E2800574B1A70564B1B78002B23D1554B1B78C8
:104E3800002B1FD1544B9B7A0133DAB2524B9A7232
:104E4800514B9B7A0A2B1CD94F4B01225A704E4B5F
:104E580000229A724C4BDB78012B12D14A4B00226C
:104E6800DA70494B00229A70474B00229A82FEF76B
:104E780007FC06E0444B00225A70434B00229A720A
:104E880000E000BF3E4B1A783E4B1A703F4B1A6841
:104E98007B681B689A420AD110213D4801F0DCFC6E
:104EA80003461A463B4B1A703A4B1B78002B3A4B79
:104EB8001A687B681B689A425AD1334B9B78012B3E
:104EC80056D110212D4801F0C7FC03461A46334B32
:104ED8001A70324B1B78002B1ED1314B1B78002BDC
:104EE8001AD1294B5B7A0133DAB2274B5A72264B17
:104EF8005B7A052B16D92B4B1B78002B05D1224B3F
:104F08009B8A01339AB2204B9A82264B01221A704F
:104F18001D4B00225A7205E0224B00221A701A4BD0
:104F280000225A721D4B1A781D4B1A70164B9B8A19
:104F3800B3F5967F11D9144BDB78002B0DD1124BAA
:104F480001221A70104B00229A820F4B0122DA704C
:104F58000D4B00229A70FEF793FB0B4B9B8A0A2B92
:104F680006D9094BDB78012B02D1074B00221A70B6
:104F780000BF0837BD4680BD0C0A0020000C014068
:104F8800E40B0020000C0020E80B00204C0A002055
:104F980000100140D40B00208C0A0020FE0B0020DA
:104FA800E50B0020010C002080B483B000AF7860CE
:104FB8003960FEE780B400AF154B1B68144A43F014
:104FC80001031360124B5A681149124B13404B608E
:104FD8000F4B1B680E4A23F0847323F4803313604D
:104FE8000B4B1B680A4A23F480231360084B5B6849
:104FF800074A23F4FE035360054B4FF41F029A60DF
:10500800054B4FF000629A6000BFBD4680BC7047F8
:10501800001002400000FFF800ED00E080B500AF8E
:10502800084B1B68074A43F010031360032002F083
:10503800CBF9002000F008F8FFF79CFD0023184684
:1050480080BD00BF0020024080B582B000AF78600C
:10505800094B1B68094AA2FB03239B09184602F067
:10506800E8F9002279684FF0FF3002F0B8F9002320
:1050780018460837BD4680BDD0010020D34D6210C8
:1050880080B400AF044B1B680133034A136000BFB0
:10509800BD4680BC704700BF040C002080B400AF40
:1050A800024B1B681846BD4680BC7047040C0020A4
:1050B80080B584B000AF7860FFF7F0FFB8607B6818
:1050C800FB60FB68B3F1FF3F02D0FB680133FB6074
:1050D80000BFFFF7E3FF0246BB68D31AFA689A429B
:1050E800F7D800BF1037BD4680BD000080B586B038
:1050F80000AF78600023FB7500233B610023BB6091
:105108000023FB607B68002B01D10123CEE07B6884
:105118009B68002B7B689B6A002B09D17B68002267
:10512800DA627B68002283F824207868FFF7FCF8AD
:10513800786800F093FA0346FB757B689B6A03F076
:105148001003002B40F0A980FB7D002B40F0A580C8
:105158007B689B6A23F4885323F0020343F002021E
:105168007B689A627B685A687B681B6851498B42E6
:105178000AD17B68DB69B3F5402F02D07B68DB6915
:1051880004E04FF4002301E07B68DB691A437B6885
:10519800DB685B001343BA681343BB607B689B689A
:1051A800B3F5807F03D07B689B68012B02D14FF455
:1051B800807300E000233A6913433B617B685B69B5
:1051C800012B19D17B68DB68002B09D17B689B69AF
:1051D800013B5A033B69134343F400633B610BE013
:1051E8007B689B6A43F020027B689A627B68DB6A73
:1051F80043F001027B68DA627B681B685B6823F412
:1052080069417B681B683A690A435A607B681B6876
:105218009A68294B13407A681268B9680B439360FF
:105228007B689B68B3F5807F03D07B689B68012B04
:1052380004D17B681B69013B1B05FB607B681B680D
:10524800DB6A23F470017B681B68FA680A43DA6238
:105258007B681B689A68194B1340BA689A420BD14D
:105268007B680022DA627B689B6A23F0030343F0C1
:1052780001027B689A6218E07B689B6A23F012033C
:1052880043F010027B689A627B68DB6A43F0010294
:105298007B68DA620123FB7507E07B689B6A43F051
:1052A80010027B689A620123FB75FB7D184618374C
:1052B800BD4680BD003C0140FDF7E1FFFE0E1FFF2B
:1052C80080B582B000AF78607B681B685B6803F0CC
:1052D8002003202B40D17B681B681B6803F0020366
:1052E800022B39D17B689B6A03F01003002B05D190
:1052F8007B689B6A43F400727B689A627B681B68D0
:105308009B6803F46023B3F5602F1DD17B68DB68CD
:10531800002B19D17B681B685A687B681B6822F0D0
:1053280020025A607B689B6A23F480727B689A62C9
:105338007B689B6A03F48053002B05D17B689B6ACA
:1053480043F001027B689A62786800F07CF87B6819
:105358001B686FF012021A607B681B685B6803F0B9
:105368008003802B4FD17B681B681B6803F0040304
:10537800042B48D17B689B6A03F01003002B05D1EE
:105388007B689B6A43F400527B689A627B681B685F
:105398009B6803F4E043B3F5E04F12D07B681B68C9
:1053A8005B6803F48063002B25D17B681B689B68CE
:1053B80003F46023B3F5602F1DD17B68DB68002BF5
:1053C80019D17B681B685A687B681B6822F08002C9
:1053D8005A607B689B6A23F480527B689A627B6878
:1053E8009B6A03F48073002B05D17B689B6A43F0AA
:1053F80001027B689A62786800F06AF97B681B682A
:105408006FF00C021A607B681B685B6803F040034E
:10541800402B14D17B681B681B6803F00103012B28
:105428000DD17B689B6A43F480327B689A62786806
:1054380000F012F87B681B686FF001021A6000BF69
:105448000837BD4680BD80B483B000AF786000BF28
:105458000C37BD4680BC704780B483B000AF78601D
:1054680000BF0C37BD4680BC7047000080B485B0D3
:1054780000AF786039600023FB730023BB607B6852
:1054880093F82430012B01D10223DCE07B68012250
:1054980083F824203B685B68062B1CD87B681B6854
:1054A800596B3B685A6813469B001344053B1F22FF
:1054B80002FA03F3DB4319403B6818683B685A68F3
:1054C80013469B001344053B00FA03F27B681B68F4
:1054D8000A435A633CE03B685B680C2B1CD87B682A
:1054E8001B68196B3B685A6813469B001344233B9F
:1054F8001F2202FA03F3DB4319403B6818683B6834
:105508005A6813469B001344233B00FA03F27B6856
:105518001B680A431A631BE07B681B68D96A3B68EF
:105528005A6813469B001344413B1F2202FA03F3B7
:10553800DB4319403B6818683B685A6813469B0070
:105548001344413B00FA03F27B681B680A43DA62A2
:105558003B681B68092B1CD97B681B68D9683B68AA
:105568001A6813465B0013441E3B072202FA03F332
:10557800DB4319403B6898683B681A6813465B0030
:1055880013441E3B00FA03F27B681B680A43DA6087
:1055980019E07B681B6819693B681A6813465B0049
:1055A8001344072202FA03F3DB4319403B68986867
:1055B8003B681A6813465B00134400FA03F27B68E1
:1055C8001B680A431A613B681B68102B03D03B68B1
:1055D8001B68112B32D17B681B681D4A934225D169
:1055E8007B681B689B6803F40003002B26D17B684B
:1055F8001B689A687B681B6842F400029A603B68E3
:105608001B68102B1AD1134B1B68134AA2FB0323E8
:105618009A0C13469B0013445B00BB6002E0BB6816
:10562800013BBB60BB68002BF9D107E07B689B6A34
:1056380043F020027B689A620123FB737B68002297
:1056480083F82420FB7B18461437BD4680BC70477E
:1056580000240140D001002083DE1B4380B584B0C4
:1056680000AF78600023FB607B681B689B6803F0D1
:105678000103012B27D17B681B689A687B681B682C
:1056880022F001029A60FFF709FDF86014E0FFF7C5
:1056980005FD0246FB68D31A022B0DD97B689B6A6D
:1056A80043F010027B689A627B68DB6A43F0010270
:1056B8007B68DA62012307E07B681B689B6803F05C
:1056C8000103012BE3D0002318461037BD4680BDE7
:1056D80080B483B000AF786000BF0C37BD4680BC93
:1056E800704780B582B000AF78607B68002B01D12D
:1056F80001233FE07B6893F83930DBB2002B06D1F9
:105708007B68002283F838207868FFF7CBF87B683D
:10571800242283F839207B681B68DA687B681B6859
:1057280022F40052DA60786800F0C8FC7B681B68D5
:105738001A697B681B6822F490421A617B681B68AF
:105748005A697B681B6822F02A025A617B681B68C9
:10575800DA687B681B6842F40052DA607B680022D2
:10576800DA637B68202283F839207B68202283F85B
:105778003A20002318460837BD4680BD80B588B05A
:1057880002AFF860B9603B601346FB8000237B6181
:10579800FB6893F83930DBB2202B40F08380BB687C
:1057A800002B02D0FB88002B01D101237BE0FB6892
:1057B80093F83830012B01D1022374E0FB680122F1
:1057C80083F83820FB680022DA63FB68212283F81B
:1057D8003920FFF763FC7861FB68FA889A84FB68D4
:1057E800FA88DA8442E0FB68DB8C9BB2013B9AB210
:1057F800FB68DA84FB689B68B3F5805F22D13B685D
:1058080000937B6900228021F86800F0D9FA0346EA
:10581800002B01D0032346E0BB683B613B691B8832
:105828001A46FB681B68C2F308025A60FB681B69CA
:10583800002B03D1BB680233BB6017E0BB680133A0
:10584800BB6013E03B6800937B6900228021F86805
:1058580000F0B6FA0346002B01D0032323E0BB680F
:105868005A1CBA601A78FB681B685A60FB68DB8CA4
:105878009BB2002BB7D13B6800937B690022402183
:10588800F86800F09DFA0346002B01D003230AE0D4
:10589800FB68202283F83920FB68002283F838202F
:1058A800002300E0022318461837BD4680BD0000DB
:1058B80080B586B000AFF860B9601346FB80FB681E
:1058C80093F83A30DBB2202B66D1BB68002B02D0AC
:1058D800FB88002B01D101235FE0FB6893F8383087
:1058E800012B01D1022358E0FB68012283F83820FC
:1058F800BA68FB689A62FB68FA889A85FB68002296
:10590800DA63FB68222283F83A20FB685B6B254A3E
:105918009A62FB685B6B244ADA62FB685B6B234A1A
:105928001A63FB685B6B00225A6307F108037B610B
:10593800FB68586BFB681B68043319467B691A6857
:10594800FB8802F0F3F900233B61FB681B681B68C6
:105958003B61FB681B685B683B613B69FB68002235
:1059680083F83820FB681B68DA68FB681B6842F418
:105978008072DA60FB681B685A69FB681B6842F032
:1059880001025A61FB681B685A69FB681B6842F090
:1059980040025A61002300E0022318461837BD462A
:1059A80080BD00BFB15C0008195D0008355D0008C6
:1059B80080B584B000AF78600023FB607B681B680B
:1059C8005B6903F08003002B14BF01230023DBB2C3
:1059D800FB607B6893F83930DBB2212B16D1FB686A
:1059E800002B13D07B681B685A697B681B6822F000
:1059F80080025A617B681B6B002B04D07B681B6B91
:105A0800184602F0F2F9786800F024FA7B681B68FF
:105A18005B6903F04003002B14BF01230023DBB2B2
:105A2800FB607B6893F83A30DBB2222B16D1FB6817
:105A3800002B13D07B681B685A697B681B6822F0AF
:105A480040025A617B685B6B002B04D07B685B6B00
:105A5800184602F0CAF9786800F011FA00231846CF
:105A68001037BD4680BD000080B588B000AF7860B3
:105A78007B681B681B68FB617B681B68DB68BB6114
:105A88007B681B685B697B6100233B610023FB60CB
:105A9800FB6903F00F033B613B69002B0DD1FB69E8
:105AA80003F02003002B08D0BB6903F02003002B70
:105AB80003D0786800F081FACCE03B69002B00F055
:105AC800AB807B6903F00103002B05D1BB6903F4AC
